:400000000080002011000000BD020000BD02000008B5044B1A6803F53F5302331A6000F06DF900BFFA46004010B5054C237833B9044B13B10448AFF300800123237010BD93
:400040008081FF1F00000000543B0000084B10B51BB108490848AFF300800848036803B910BD074B002BFBD0BDE81040184700BF000000008481FF1F543B0000C880FF1F74
:40008000000000000000000010B5002420E0204601F09AFC10A3D3E9002301F0FBFC0022114B01F0F7FC01F0D7FF01F09FFC00F0FFF90BA3D3E9002301F0ECFC08A3D3E986
:4000C000002301F035FB01F0A7FF084B185501343F2CDCDD10BD00BFF1D4C853FB2119400000000000E05F400000903FA881FF1F10B562B6FFF7C8FF00F0AEF9002407E05A
:40010000054B185D00F070F9642000F0B7F901343F2CF5DDF2E700BFA881FF1FFEE700BF0A4B1B78DBB203F00701094A11701B09013213700222074B1A70202203F69B0391
:400140001A704422A3F222231A707047CF0100496E580040FD51004008B50A46002102F002F808BD38B502221E4B1A7008224FF040231A70032103F5007319701A4B1B787E
:40018000DBB21A490B701A4B1A8041F25122023B1A80002419250CE0164B1B7803F0010343EA440404F003044FF4F07000F070F9013D0DB1032CEFD115B90320FFF7AEFF34
:4001C0000D4B4FF480721A8007221A7000220B490A704820023108701A700222033B1A7038BD00BF0043004008010049A146004022420040254200400440004006400040A7
:4002000008B501F0A5FF08BD38B572B6204A137843F00403137000240CE01E4D630019194A0011462A44084691882858FFF794FF0134E4B2072CF0D9174A137843F0020366
:4002400013701032137843F00203137008224FF090411248FFF7D4FF082211491148FFF7CFFF114A137843F0080313700F4C61232370FFF777FF8123237001220C4B1A70B5
:40028000FFF74EFF0E220B490B48FFF7B9FF38BDE8460040583B000003500140F25100400800004812510040224300400048004004000840A0430040B043004008B501F0F9
:4002C0001BFF03680C2B00D1FEE7FEE708B5094B1A681044084BC31A802B02DC054B186005E001F009FF0C2303604FF0FF32104608BD00BFCC80FF1FF081FF1F08B5104E71
:40030000104D16E029686B68AC68002204E051F8040B43F8040B0432A242F8D1E868002203E0002143F8041B04328242F9D11035013E002EE6D101F0E5FEFFF7D9FEFEE7E4
:4003400001000000B43E000008B5104A104B1A60104A136843F40073136000230AE0032B03D80D4A52F8231000E00C490C4A42F8231001332F2BF2D90A4B1A780A4B1A70AB
:40038000074A0A4B1A60FFF73FFF08BD0004FA050CED00E014ED00E000000000BD0200000080FF1FBC760040C080FF1F08ED00E0054A137843F0080313701032137843F0CA
:4003C00008031370704700BFA8430040054B1A7802F0FD021A701A7800F0020010431870704700BF2C580040014B1870704700BF835B0040064B1B78C3F3810303F1924389
:40040000063393F83831DBB2024A1370704700BF2C5800400B46004008B5064B1A7802F0F3021A701A7800F00C0010431870FFF7E1FF08BD2C58004010B50024054B1C70CA
:4004400001331C700420FFF7E7FF2046FFF7BEFF10BD00BF2C58004008B5074B1B7823B9FFF7EAFF0122044B1A70FFF7A1FF6420FFF7BAFF08BD00BF9C81FF1F08B5034B67
:400480001B7A00FB03F000F003F808BDD080FF1F0230800803D000BF01380046FCD17047EFF3108072B6704780F31088704700BF30B5214A21F00043934287B01BDD1F4A69
:4004C000934205DD02460B4601F030F907B030BD02AA00F035F800F0030001281ED0022811D0DDE9042300B3DDE9020100F040FA01F10041EAE7002300930022002300F08E
:4005000053FF07B030BD01230093DDE90201DDE9042300F049FF01F10041D7E7DDE90423DDE9020100F024FAD0E70124DDE90201009400F039FFC9E7FB21E93FFFFFEF7FAA
:400540002DE9F04F944C21F00047A7428FB040F381801446914A0E46974226DC84A3D3E90023002940F3A08101F0E0F88C4B80469F42894600F083807FA3D3E9002301F0B0
:40058000D5F802460B464046C4E90023494601F0CDF879A3D3E9002301F0C8F80125C4E9020128460FB0BDE8F08F7E4A974240F383807D4A974258DC3D15A5F21645A7EBE6
:4005C00005518B46824601F0FFFC01F0FDF98046894642464B4650465946CDE9088901F0A5F80022714B01F055FA8B46824601F0EBFC01F0E9F98046894642464B465046DB
:400600005946CDE90A8901F091F80022674B01F041FA00220023CDE90C0101F0A3FC002800F06A81002340464946002201F09AFC002814BF012302235D48022101900091AE
:400640002A46214608A800F0B7FA002EC0F24A81054606E0C2E9000100250024C2E90245002528460FB0BDE8F08F02460B4601F05DF80025C4E90201C4E90001F1E740A3FC
:40068000D3E9002301F052F83FA3D3E9002306460F4601F04BF802460B463046C4E90023394601F043F838A3D3E9002301F03EF80125C4E90201D4E700F02CFF34A3D3E9E0
:4006C00000238046894601F0E5F90022394B01F02FF801F079FC054601F076F924A3D3E90023CDE9040101F0D5F902460B464046494601F01BF820A3D3E9002382468B4697
:40070000DDE9040101F0C6F91F2DCDE9020155DC294B6A1E53F822309F424FD002460B465046594601F002F802460B4681468846C4E900234A4643465046594600F0F6FF85
:40074000DDE9022300F0F2FF02460B46002EC4E9022386DA4A4608F1004301F1004184E80C00E160A0606D427BE700BFAFF3008000004054FB21F93F3163621A61B4D03DF0
:400780000000601A61B4D03D7370032E8A19A33B83C8C96D305FE43FFB21E93F7BD90240FB21F93FFB213941FFFFEF7F00007041083C00000000E03F883B0000DDE90223E3
:4007C0005046594600F0B2FF3F15C1F30A53FB1A102B81468846C4E90001ABDD58A3D3E90023DDE9040101F055F98046894602460B465046594600F099FFCDE906010246CF
:400800000B465046594600F091FF42464B4600F08DFF4DA3D3E9002380468946DDE9040101F038F942464B4600F080FF02460B46CDE90201DDE9060100F078FF0B46024625
:400840008846C1F30A517F1A312F8146C4E9002372DD3FA3D3E90023DDE9040101F01AF98046894602460B46DDE9060100F05EFF02460B4682468B46DDE9060100F056FFA0
:4008800042464B4600F052FF33A3D3E9002380468946DDE9040101F0FDF842464B4600F045FFCDE9020139E700F042FF2E4B80469F42894622D02AA3D3E9002300F038FFD8
:4008C00002460B464046C4E90023494600F02EFF23A3D3E9002300F02BFF4FF0FF35C4E90201BEE66268E36802F1004203F1004345426260E360B4E603239DE610A3D3E918
:40090000002300F015FF10A3D3E9002306460F4600F00EFF02460B463046C4E90023394600F004FF08A3D3E9002300F001FF4FF0FF35C4E9020194E6DDE906ABFAE600BFE2
:400940000000601A61B4D03D7370032E8A19A33B0000002E8A19A33BC14920259A837B393163621A61B4D03DFB21F93F000000002DE9F04F21F00046B6F1795F85B00C463F
:4009800092469B4605466BDA01F01EFB002800F0E7802A4623462846214601F07BF874A3D3E900238046894601F074F872A3D3E9002300F0BDFE42464B4601F06BF870A34C
:4009C000D3E9002300F0B2FE42464B4601F062F86DA3D3E9002300F0ABFE42464B4601F059F86BA3D3E9002300F0A0FE42464B4601F050F868A3D3E9002300F099FE42466B
:400A00004B4601F047F8CDE900010022644B4046494601F03FF8DDE9002306460F464046494601F037F85246804689465B462846214601F02FF802460B464046494600F018
:400A400075FE02460B463046394600F06FFE02460B460020534900F069FE05B0BDE8F08F02460B4601F016F841A3D3E900238046894601F00FF840A3D3E9002300F058FEA3
:400A800042464B4601F006F83DA3D3E9002300F04DFE42464B4600F0FDFF3BA3D3E9002300F046FE42464B4600F0F4FF38A3D3E9002300F03BFE42464B4600F0EBFF36A393
:400AC000D3E9002300F034FE4B46424600F0E2FF354BCDE900019E4297DD344B00229E4238DCA6F5001300202E4916461F4600F01DFECDE902010022294B4046494600F086
:400B0000C9FF32463B4600F011FEDDE9002306460F464046494600F0BDFF5246804689465B462846214600F0B5FF02460B464046494600F0FBFD02460B463046394600F04F
:400B4000F5FD02460B46DDE9020100F0EFFD05B0BDE8F08F164B0026CDE90223154FCAE71049002005B0BDE8F08F00BFAFF30080D43888BEE9FAA8BDC4B1B4BD9EEE213E57
:400B8000AD529C804F7E923E9015CB19A001FA3E7751C1166CC1563F4C5555555555A53F0000E03F0000F03F3233D33F0000E93F0000E73F0000D23F2DE9F04F794CADF501
:400BC0001D7D1F460B93D31E84FB0354DB17C3EBA403A69E744C23EAE37554F826406B1C26460994A3EB83037C1E0D95029402EBC3032D1B341904900A91089316D42C444D
:400C0000013422AEA79F08E057F8250000F0DCFE0135A542E6E9020108D0002DF4DA013500200021A542E6E90201F6D1099B002B2FDB099B74AADDF8089002EBC30B0DF5C5
:400C4000E47A029B002BC0F295810B9B0026C3EB090824AB03EBC808049B0027A3F1080524AB03EBC904F5E9022374E8020100F011FF02460B463046394600F059FD4445BE
:400C800006460F46EFD1EAE90267DA4509F10109D7D1099B10A91D4603F18043023B9B001A1D0A440B440F920E939CAB03EBC503002D53E928672BDD9CAB03EBC504A83C88
:400CC0000DF13C0A0DF5E47B0022384B3046394600F0E0FE01F078F900F076FE0022344B8046894600F0D6FE02460B463046394600F01CFD01F068F974E802234AF8040F68
:400D00004946404600F014FD5C4506460F46DBD1089C30463946224600F08AFC00224FF07F5306460F4600F0B5FE00F0F9FB0022204B00F0AFFE02460B463046394600F035
:400D4000F5FC0F46064601F03FF9814600F03CFE02460B463046394600F0E8FC002C06460F4640F3EE80681E10AB53F82030C4F1180243FA02F101FA02F29B1AC4F11708A4
:400D800010AA42F82030894443FA08F8B8F1000F3DDD002D09F1010940F3D382002214460FA911E0ABAAAA2A103D00000000703E0000704100002040C3F180700BB1086038
:400DC0000124013295420DDD51F8043F002CF3D0C3F1FF13013203F57F4395420B604FF00104F1DC089B002B0DDD012B00F0B180022B08D16A1E10AB53F8223010A9C3F3FF
:400E0000150341F82230B8F1020F00F08180002200233046394601F0A5F8002800F05B82099B05F1FF3B5B4510DC05F1804310AA013B0F9802EB8303002253F8041983422F
:400E400042EA0102F9D1002A40F0B180099B10AA013B52F82330002B40F071820E9A012352F8041901330029FAD0E9186A1C8A420C914BDC0D990B985118DB0001F18041B8
:400E80000593A79B05440139E80003EB810A24ABD20003EB000B74AB13440193A2F10803069007934FF000095AF8040F00F08CFD029BEBE80201002B4FF000064FF00007B3
:400EC0001BDB069B03EB0904079B09EB030824AB1C449844049BA3F10805F5E9022374E8020100F0D7FD02460B463046394600F01FFC444506460F46EFD1019B09F1080924
:400F0000E3E802670193059B9945CDD10C9DCCE632463B460020B04900F008FC06460F46002C3FF474AF089A0020AB4900F080FB02460B463046394600F0F8FB06460F4616
:400F400065E710D16B1E10AA52F823304FEAE3581CE76A1E10AB53F8223010A9C3F3160341F822304FE700229C4B01F019F858B980464CE700260027EAE90267DA4509F10D
:400F800001097FF45EAE84E6002D09F10109C8BF4FF002083FF702AF32463B4600208E4900F0C4FB4FF0020806460F462FE7089A10AB53F82B30183ACDF81490CDF80480B0
:400FC00008926BB90BF18043013B10A901EB830353F804190BF1FF3B183A0029F8D00892089A00207C4900F023FBBBF1000F04460D46C0F2B6814FEACB030DF5E87810AA99
:4010000002EB8B0608EB03090493043609F1080756F8040D00F0D8FC22462B4600F03AFD002267E902016E4B2046294600F032FDB84504460D46EBD14B46CDF818B09B46BF
:401040000DF5987ACDF808A0DDF824A04FF00009BAF1000FC0F226815DA3D3E90023DFF884815D4600260027002403E0A14510DBF8E90223F5E8020100F00CFD02460B4600
:401080003046394600F054FB0134A24506460F46ECDA029BABF1080B03EBC903C3E9006772AB5B4509F10109D2D1A69BDDF818B0DDF808A0032B00F28380DFE813F0D100E3
:4010C000950095000400BBF1000F40F35481049BCDF808B053449846D3E90067D34658E9029A32463B464846514600F021FB04460D4602460B464846514600F017FB324656
:401100003B4600F015FBC8E9000168E90245C34526462F46E3D1DA46DDF808B0BBF1010F40F32981049B0DF59C7B53449846D3E90067994659E902343046CDE902341A4698
:401140003946234600F0F4FA04460D4602460B46DDE9020100F0EAFA32463B4600F0E8FAC9E9000169E90245CB4526462F46E1D100231D4608F1080850AC184678E90223AD
:40118000294600F0D5FA444503460D46F5D1019A002A00F0D880DAF80440DAF80C200A9FDAF80010DAF8080005F1004504F1004402F100427D613B617C60FA603960B86086
:4011C000059B03F007000DF51D7DBDE8F08F00BF00000040FB21F93F0000F03F0000E03F0000703E203D000000242146049D0835554475E90223204600F09AFA5545044696
:40120000F7D1019B002B50D00A9F01F100450B46DAE9000187E83000224600F087FABBF1000F03460D460DDD01241846FAE90223294600F07DFA0134A34503460D46F4DA69
:40124000019A0AB105F10045184629460A9BC3E90201059B03F007000DF51D7DBDE8F08F00231C46049A0832924418467AE90223214600F05DFA0BF1FF3BBBF1FF3F034632
:401280000C46F2D1019A0AB104F10044184621460A9BC3E90001059B03F007000DF51D7DBDE8F08F00260027F3E626460F4622460A9C0B46DAE90001C4E9006700F036FADB
:4012C000BBF1000F03460D46AEDC184629460A9BC3E90201BDE7089B30465A423946CDF81490CDF8048000F0A3F900222C4B06460F4600F055FE002840D00022294B304615
:40130000394600F0C7FB00F05FFE044600F05CFB0022234B00F0BEFB0B4602463946304600F004FA00F050FE089B05F1010B1833089310AB43F8250043F82B4050E6012305
:4013400093E500244EE51846DAE90067DAE9022329460A9DC5E90067C5E90401C5E902232EE7A69B032B3FF62BAFDFE803F0151010020DF5987A00231D4608E7304639467B
:4013800000F022FE10ABAB4643F8250028E6002421460DF5987A34E700231C4672E700BF000070410000703E2DE9F04F21F00046B6F1795F85B00C4690469946054604DABD
:4013C00000F002FE002800F085802A4623462846214600F05FFB06460F4602460B462846214600F057FB3EA3D3E9002382468B463046394600F04EFB3BA3D3E9002300F063
:4014000095F932463B4600F045FB39A3D3E9002300F08EF932463B4600F03CFB36A3D3E9002300F083F932463B4600F033FB34A3D3E9002300F07CF90E9BCDE900019BB39F
:401440000022334B4046494600F024FBDDE90023CDE902015046594600F01CFB02460B46DDE9020100F062F932463B4600F012FB42464B4600F05AF923A3D3E900230646DA
:401480000F465046594600F005FB02460B463046394600F04DF902460B462846214600F045F905B0BDE8F08F02460B463046394600F0F0FA14A3D3E9002300F037F95246C3
:4014C0005B4600F0E7FA2A46234600F031F905B0BDE8F08F2846214605B0BDE8F08F00BF7CD5CF5A3AD9E53DEB9C2B8AE6E55A3E7DFEB157E31DC73ED561C119A0012A3F51
:40150000A6F810111111813F495555555555C53F0000E03F21F00041704700BF00000000C1F30A522DE9F843A2F2FF36132E0B4604460D46884607461CDC002E3FDB3A4AF5
:40154000864642FA06F901EA0902024317D034A3D3E9002300F0ECF80022002300F02AFD20B1002D40DB28EA0905002738462946BDE8F883332E06DDB6F5806F2FD02046AC
:401580001946BDE8F883A2F213424FF0FF3929FA02F910EA090FF2D021A3D3E9002300F0C7F80022002300F005FD0028DED0002D20DB454627EA090738462946D8E718A3C0
:4015C000D3E9002300F0B4F80022002300F0F2FC0028CBD0002D18DB00273D46C6E702460B4600F0A5F8CCE74FF4801343FA06F6B044B8E7142E10D00123C6F1340603FA64
:4016000006F6371928BF9844D3E725F00042074B224318BF1D460027A8E705F10108C8E79C7500883CE4377EFFFF0F000000F0BFF8B5C1F30A5604460D460B46174606BB3E
:4016400021F00043034325D000222F4B00F022FA2E4A044697420D460B462ADBC1F30A56363E40F2FE723E44964228DC002E12DD23F0FF4323F4E00343EA0655204629469E
:40168000F8BD40F2FF729642EBD102460B4600F04FF8F8BDF8BD16F1350F1DDA4CF250339F420CDC14A1D1E9000122462B4600F031F811A3D3E9002300F0ECF9F8BD224651
:4016C0000FA1D1E900012B4600F024F80CA3D3E9002300F0DFF9F8BD23F0FF4323F4E003363643EA0655204629460022084B00F0D1F9F8BDAFF3008059F3F8C21F6EA501A0
:401700009C7500883CE4377E00005043B03CFFFF0000903C03F0004321F0004242EA0301704700BF81F0004102E000BF83F0004330B54FEA41044FEA430594EA050F08BF7D
:4017400090EA020F1FBF54EA000C55EA020C7FEA645C7FEA655C00F0E2804FEA5454D4EB5555B8BF6D420CDD2C4480EA020281EA030382EA000083EA010180EA020281EA68
:401780000303362D88BF30BD11F0004F4FEA01314FF4801C4CEA113102D0404261EB410113F0004F4FEA03334CEA133302D0524263EB430394EA050F00F0A780A4F101041E
:4017C000D5F1200E0DDB02FA0EFC22FA05F2801841F1000103FA0EF2801843FA05F359410EE0A5F120050EF1200E012A03FA0EFC28BF4CF0020C43FA05F3C01851EBE371EF
:4018000001F0004507D54FF0000EDCF1000C7EEB00006EEB0101B1F5801F1BD3B1F5001F0CD349085FEA30004FEA3C0C04F101044FEA445212F5800F80F09A80BCF1004FA5
:4018400008BF5FEA500C50F1000041EB045141EA050130BD5FEA4C0C404141EB010111F4801FA4F10104E9D191F0000F04BF01460020B1FA81F308BF2033A3F10B03B3F19B
:4018800020020CDA0C3208DD02F1140CC2F10C0201FA0CF021FA02F10CE002F11402D8BFC2F1200C01FA02F120FA0CFCDCBF41EA0C019040E41AA2BF01EB0451294330BD0D
:4018C0006FEA04041F3C1CDA0C340EDC04F11404C4F1200220FA04F001FA02F340EA030021FA04F345EA030130BDC4F10C04C4F1200220FA02F001FA04F340EA0300294695
:4019000030BD21FA04F0294630BD94F0000F83F4801306BF81F480110134013D4EE77FEA645C18BF7FEA655C29D094EA050F08BF90EA020F05D054EA000C04BF19461046A1
:4019400030BD91EA030F1EBF0021002030BD5FEA545C05D14000494128BF41F0004130BD14F580043CBF01F5801130BD01F0004545F0FE4141F470014FF0000030BD7FEA22
:40198000645C1ABF194610467FEA655C1CBF0B46024650EA013406BF52EA033591EA030F41F4002130BD00BF90F0000F04BF0021704730B54FF4806404F132044FF000055F
:4019C0004FF0000150E700BF90F0000F04BF0021704730B54FF4806404F1320410F0004548BF40424FF000013EE700BF42004FEAE2014FEA31014FEA02701FBF12F07F4348
:401A000093F07F4F81F06051704792F0000F14BF93F07F4F704730B54FF4607401F0004521F0004120E700BF50EA010208BF704730B54FF000050AE050EA010208BF70473D
:401A400030B511F0004502D5404261EB41014FF4806404F132045FEA915C3FF4DCAE4FF003025FEADC0C18BF03325FEADC0C18BF033202EBDC02C2F1200300FA03FC20FA9D
:401A800002F001FA03FE40EA0E0021FA02F11444C1E600BF70B54FF0FF0C4CF4E06C1CEA11541DBF1CEA135594EA0C0F95EA0C0F00F0DEF82C4481EA030621EA4C5123EAF2
:401AC0004C5350EA013518BF52EA033541F4801143F4801338D0A0FB02CE4FF00005E1FB02E506F00042E0FB03E54FF00006E1FB03569CF0000F18BF4EF0010EA4F1FF04B6
:401B0000B6F5007F64F5407404D25FEA4E0E6D4146EB060642EAC62141EA55514FEAC52040EA5E504FEACE2EB4F1FD0C88BFBCF5E06F1ED8BEF1004F08BF5FEA500E50F161
:401B4000000041EB045170BD06F0004646EA010140EA020081EA0301B4EB5C04C2BFD4EB0C0541EA045170BD41F480114FF0000E013C00F3AB8014F1360FDEBF002001F04B
:401B8000004170BDC4F10004203C35DA0C341BDC04F11404C4F1200500FA05F320FA04F001FA05F240EA020001F0004221F0004110EBD37021FA04F642EB06015EEA430EB2
:401BC00008BF20EAD37070BDC4F10C04C4F1200500FA04F320FA05F001FA04F240EA020001F0004110EBD37041F100015EEA430E08BF20EAD37070BDC4F1200500FA05F2A0
:401C00004EEA020E20FA04F301FA05F243EA020321FA04F001F0004121FA04F220EA020000EBD3705EEA430E08BF20EAD37070BD94F0000F0FD101F00046400041EB0101A9
:401C400011F4801F08BF013CF7D041EA060195F0000F18BF704703F00046520043EB030313F4801F08BF013DF7D043EA0603704794EA0C0F0CEA135518BF95EA0C0F0CD03F
:401C800050EA410618BF52EA4306D1D181EA030101F000414FF0000070BD50EA410606BF1046194652EA430619D094EA0C0F02D150EA013613D195EA0C0F05D152EA033689
:401CC0001CBF104619460AD181EA030101F0004141F0FE4141F470014FF0000070BD41F0FE4141F4780170BD70B54FF0FF0C4CF4E06C1CEA11541DBF1CEA135594EA0C0FC2
:401D000095EA0C0F00F0A7F8A4EB050481EA030E52EA03354FEA013100F088804FEA03334FF0805545EA131343EA12634FEA022245EA111545EA10654FEA00260EF0004121
:401D40009D4208BF964244F1FD0404F5407402D25B084FEA3202B61A65EB03055B084FEA32024FF480104FF4002CB6EB020E75EB030E22BFB61A754640EA0C005B084FEAC4
:401D80003202B6EB020E75EB030E22BFB61A754640EA5C005B084FEA3202B6EB020E75EB030E22BFB61A754640EA9C005B084FEA3202B6EB020E75EB030E22BFB61A754659
:401DC00040EADC0055EA060E18D04FEA051545EA16754FEA06164FEAC30343EA52734FEAC2025FEA1C1CC0D111F4801F0BD141EA00014FF000004FF0004CB6E711F4801F89
:401E000004BF01430020B4F1FD0C88BFBCF5E06F3FF6AFAEB5EB030C04BFB6EB020C5FEA500C50F1000041EB045170BD0EF0004E4EEA113114EB5C04C2BFD4EB0C0541EA9E
:401E4000045170BD41F480114FF0000E013C90E645EA060E8DE60CEA135594EA0C0F08BF95EA0C0F3FF43BAF94EA0C0F0AD150EA01347FF434AF95EA0C0F7FF425AF10467F
:401E800019462CE795EA0C0F06D152EA03353FF4FDAE1046194622E750EA410618BF52EA43067FF4C5AE50EA41047FF40DAF52EA43057FF4EBAE12E74FF0FF3C06E000BF16
:401EC0004FF0010C02E000BF4FF0010C4DF804CD4FEA410C7FEA6C5C4FEA430C18BF7FEA6C5C1BD001B050EA410C0CBF52EA430C91EA030F02BF90EA020F0020704710F122
:401F0000000F91EA030F58BF994208BF90422CBFD8176FEAE37040F0010070474FEA410C7FEA6C5C02D150EA013C07D14FEA430C7FEA6C5CD6D152EA033CD3D05DF8040B51
:401F4000704700BF8446104662468C461946634600E000BF01B5FFF7B7FF002848BF10F1000F01BD4DF808EDFFF7F4FF0CBF012000205DF808FB00BF4DF808EDFFF7EAFFEC
:401F800034BF012000205DF808FB00BF4DF808EDFFF7E0FF94BF012000205DF808FB00BF4DF808EDFFF7CEFF94BF012000205DF808FB00BF4DF808EDFFF7C4FF34BF01206D
:401FC00000205DF808FB00BF4FEA410212F5001215D211D56FF47873B3EB625212D94FEAC12343F0004343EA505311F0004F23FA02F018BF404270474FF00000704750EABB
:40200000013005D111F0004008BF6FF0004070474FF00000704700BF4A0011D212F5001211D20DD56FF47873B3EB62520ED44FEAC12343F0004343EA505323FA02F07047D0
:402040004FF00000704750EA013002D14FF0FF3070474FF0000070474FEA4102B2F1E04324BFB3F5001CDCF1FE5C0DD901F0004C4FEAC0024CEA5070B2F1004F40EB83004D
:4020800008BF20F00100704711F0804F21D113F13872BCBF01F00040704741F480114FEA5252C2F11802C2F1200C10FA0CF320FA02F018BF40F001004FEAC1234FEAD32306
:4020C00003FA0CFC40EA0C0023FA02F34FEA4303CCE77FEA625307D150EA01331EBF4FF0FE4040F44000704701F0004040F0FE4040F40000704700BF014B1868704700BFED
:402100004081FF1F0E4B70B51E460E4C0025E41AA410A54204D056F8253098470135F8E701F0B6FE084B094C1E46E41AA4100025A54204D056F8253098470135F8E770BD54
:402140009C3E00009C3E00009C3E0000A43E000010B5431E0A44914204D011F8014B03F8014FF8E710BD03460244934202D003F8011BFAE770472DE9F04788B0149F002B40
:402180001E461299B8BF03F1004327F02007B6BF1E4600232D23462F1446109DDDF84CA00B7003D0452F03D1013501E0032300E0022307AA049206AA03928DE8280422462E
:4021C000334600F0B9FB472F804602D1119BDB0728D5462F08EB050911D198F80030302B0AD10022002320463146FFF7BBFE18B9C5F10105CAF80050DAF800309944002269
:40220000002320463146FFF7ADFE08B9302202E0CDF81C9006E0079B994503D9591C07911A70F8E74046079B159AC8EB0303136008B0BDE8F087034673B50029B8BF49426C
:4022400003F8022BB4BF2D222B22092942701ADD0DF1070216460A2591FBF5F405FB1411092C01F1300102F8011D2146F4DC3031541E02F8011CB4421A460AD214F8012B25
:4022800003F8012BF7E71A463024214402F8024B5970101A02B070BD2DE9F04F91B00C46DDF8688016461F46054601F0DDF803681846099300F0AAFA00230E93D8F80030B3
:4022C0000A90073323F0070303F1080294F81890D4F800B0C8F80020D3E90023C4E91223D4F84CA0D4F848802AF000430B934FF0FF32A74B40460B9901F016FCA0B94FF030
:40230000FF32A34B40460B99FFF740FE60B90022002340465146FFF72FFE10B12D2384F843309C4B9C4A0AE0424653464046514601F0FAFB002800F09281984B984AB9F10D
:40234000470F8CBF90469846032323612BF0040323604FF0000A3DE0B9F1670F00F08A81B9F1470F00F0868123600193636800210DF1330205900292009342465346069197
:40238000CDF81090CDF80CE02846FFF7F4FE09F0DF03472B804600F08481B9F1650F0D9900F28D8101394A4604F150000D91FFF742FF0E9A82468318012A236100F37C8157
:4023C0002268D10700F178819DF8333013B12D2384F84330009733460FAA2146284600F09FF9013002D14FF0FF3096E123685A0501D4236965E0B9F1650F40F2D580D4E995
:40240000120100220023FFF7ADFD78B30123654A31462846B8470130E5D00E9B0D9A9A420BDB2368D80708D423689B0740F111814FF0000804F1190906E10A9B099A314690
:402440002846B8470130CED04FF0000804F11A090E9B013B9845E7DA01234A4631462846B8470130BFD008F10108F1E70D9B002B29DC01234B4A31462846B8470130B2D0E4
:402480000D9B23B90E9B13B92368D907CCD50A9B099A31462846B8470130A4D04FF0000904F11A0A0D9B5B42994509DA0123524631462846B847013095D009F10109F1E7CD
:4024C0000E9B4246A7E00E9AA36D9A42A8BF1A46002A914606DC4FF0000A29EAE97904F11A0B11E01346314642462846B8470130F1D178E701235A4631462846B84701302D
:402500003FF471AF0AF1010AA36DC9EB03029245F0DB08EB03090D9A0E9B9A420FDB2368DA070CD40E9B0D9A9844C9EB08089B1A9845A8BF9846B8F1000F08DC0FE00A9B7F
:40254000099A31462846B8470130EBD14BE743464A4631462846B84701303FF444AF4FF0000928EAE87804F11A0A09E00123524631462846B84701303FF435AF09F10109B9
:402580000D9A0E9B9B1AC8EB03039945EEDB4BE7FFFFEF7F623D0000663D00006A3D00006E3D0000723D00000E9A012A01DCDB0738D50123424631462846B84701303FF442
:4025C00012AF0A9B099A31462846B84701303FF40AAFD4E9120100220023FFF7C3FC20B14FF0000804F11A090EE00E9B08F10102013B19E001234A4631462846B847013046
:402600003FF4F1AE08F101080E9B013B9845F1DB534604F1500231462846B84701307FF403AFE0E64246012331462846B8470130EED1D8E601234A4631462846B847013051
:402640003FF4D1AE08F10108E3680F9A9B1A9845F0DBE0680F9B9842B8BF18465DE062680EA8531C0DF1340E4BF480637FF474AE062201E012B90122626075E600210691C5
:402680000DF133018DE80C00236005904246CDF81090CDF80CE0029153462846FFF76BFD80460D9BD81C02DB626893421DDDA9F102095FFA89F970E60133236184E6B9F13F
:4026C000660F14D10029636807DD216113B92268D2071DD501330B4419E013B92268D00701D5023313E0012311E04FF067090D9B0E9A934205DB22682361D10708D501339E
:4027000005E0002BD4BFC3F102030123134423610D9B4FF0000AA36556E611B0BDE8F08F2DE9F04791461F460A698B6806469342B8BF1346C9F8003091F843200C46DDF840
:40274000208012B10133C9F800302368990642BFD9F800300233C9F80030256815F0060510D104F1190A07E00123524639463046C04701301AD00135E368D9F800209B1A08
:402780009D42F1DB94F843302268003318BF012392060FD5E118302081F843005A1C94F845102244023382F8431003E04FF0FF30BDE8F08704F1430239463046C0470130A3
:4027C000F4D02268D9F80050E36802F00602042A08BF5D1B2269A3680CBF25EAE57500259342C4BF9B1AED184FF000091A344D4509D00123224639463046C0470130D5D058
:4028000009F10109F3E70020BDE8F087034613F8012B002AFBD1181A013870472DE9F74F03690C6980469C427FDC013C01F114074FEA840E00F1140606EB0E0357F82450C5
:40284000019356F824300135B3FBF5F507EB0E09C5B34FF0000A3846B446D34650F8043B9AB205FB02A21B0C4FEA124A05FB03A392B2C2EB0B0BBCF800204FEA134A5A4411
:402880001FFA83FBDCF800308145CBEB134303EB224392B242EA03424FEA234B4CF8042BDCD256F80E306BB9019B043B9E421A4602D3C8F8104005E01268043B002AF8D19A
:4028C000013CF3E7404600F0E8FF00282BDB304601354FF0000E57F8042B036891B2C1EB0E0E120C99B27144C2EB134303EB214389B24FEA234EB94541EA034340F8043B0B
:40290000E9D256F8242006EB840362B9043B9E421A4602D3C8F8104005E01268043B002AF8D1013CF3E7284600E0002003B0BDE8F08F0000000000002DE9F04F456A95B01D
:402940008246219CCDE9022345B9102000F090FDCAF82400456085600560C560DAF82430196859B15A68012393404A608B60504600F0BBFDDAF8243000221A60039BA04ACB
:40298000002BBDBF01232360039B0023BCBF23F000430393DDF80C80A8BF236028F000431B0D1B0593421DD142F20F73209A1360029B43B9934A944BC8F31300002814BFEF
:4029C0001846104600E09048229B002B00F04685C37813B100F1080300E0C31C229A136000F03CBDDDE902450022002320462946FFF7B8FA074658B1209A01231360229BC3
:402A0000002B00F01E8581481860013800F026BD12AB019313AB009322462B46504600F0B7FFC8F30A56049056B1C5F3130343F07F51204641F44011A6F2FF3611971DE0EF
:402A4000139B129E1E4406F23243202B0ADD029A06F21240C3F1400322FA00F008FA03F3184304E0C3F12000029B03FA00F0FEF79BFF0123A1F1F871013E11930022644B17
:402A8000FEF754FE58A3D3E90023FFF703F858A3D3E90023FEF74CFE044630460D46FEF793FF55A3D3E90023FEF7F4FF02460B4620462946FEF73CFE04460D46FFF784FAE4
:402AC00000228346002320462946FFF755FA58B15846FEF779FF02460B4620462946FFF741FA08B90BF1FF3BBBF1160F0DD8DDE90223484901EBCB01D1E90001FFF75AFA15
:402B000030B10BF1FF3B002300E00123109300E01090129B9E1B731E079343BFC3F10008002307934FF00008BBF1000F06DB079BCDF82CB05B440793002705E00023CBEBE4
:402B40000808CBF100070B931E9B092B28D8052BC4BF043B1E931E9BC8BF0025A3F10203D8BF0125032B20D8DFE803F0060E0204012302E0012308E000230A931F9B002BE8
:402B80001DDD9946059321E000230A931F9B0BEB030909F10103012B0593B8BF012315E0012500231E930A9501E001230A934FF0FF390022CDF8149012231F9206E04FF08D
:402BC00001094B46CDF81490CDF87C90DAF8244000226260042101F114029A421CD86268490001326260F6E761436F63A787D23FB3C8608B288AC63FFB799F501344D33F66
:402C00000000F07F743D00007D3D0000733D00000000F83F903D00006168504600F030FCDAF8243020601B680693059B0E2B00F25B81002D00F05881DDE90234BBF1000F75
:402C4000CDE90E3430DD9F4A0BF00F034FEA2B1502EBC303E80618CBCDE908340CD5DDE90E01994B05F00F05D3E90823FFF73CF80324CDE9020100E00224934E6DB1E907E1
:402C800008D5DDE90801D6E90023FEF703FFCDE9080101346D100836F0E7DDE90823DDE90201FFF721F820E0CBF1000505B3DDE90E01844B05F00F0203EBC203D3E900238B
:402CC000FEF7E8FECDE902017F4E2D110023022455B1EA0705D5D6E90023FEF7DBFE013401236D100836F3E71BB1CDE9020100E00224109BE3B1DDE902560022734B284647
:402D00003146FFF739F998B1059B8BB1B9F1000F40F3E6800BF1FF330893314600226C4B2846FEF7B7FE0134CDE902014E4602E0059ECDF820B02046FEF746FEDDE9022326
:402D4000FEF7A8FE634B0022FEF7F2FCA1F1507304460C931D46D6B9DDE9020100225E4BFEF7E4FC22460C9BCDE90201FFF722F9002840F03F820C99224601F10043DDE972
:402D80000201FFF7F9F8002840F02B82A8E00A9A4C4B711E002A49D003EBC103D3E9002300204E49FEF7A0FF22462B46FEF7BEFCCDE90C01069CDDE90201FFF705F90546BE
:402DC000FEF702FE02460B46DDE90201FEF7AEFCDDE90C23303504F8015BCDE90201FFF7CBF8002840F01D83DDE9022300203749FEF79CFCDDE90C23FFF7BEF8002840F0B0
:402E0000D180069BE31AB3426ADADDE90C0100222F4BFEF73FFE0022CDE90C01DDE902012B4BFEF737FECDE90201C4E703EBC1012246D1E900012B46FEF72CFE069BCDE95D
:402E40000C011D469C19DDE90201FFF7BDF80646FEF7BAFD02460B46DDE90201FEF766FC303605F8016BAC42CDE902014FF0000222D11A4BDDE90C01FEF75AFC02460B4642
:402E8000DDE90201FFF796F8002840F08B80DDE90C2300201149FEF749FC02460B46DDE90201FFF769F8D8B114F8013C621E302B40F0B7821446F7E7054BFEF7EBFDCDE9CF
:402EC0000201C0E7903D0000683E00000000F03F0000244000001C40000014400000E03FDDE90E34CDE90234139B002B7CDBBBF10E0F79DCAB4B03EBCB03D3E900671F9B82
:402F0000002B14DA059B002B11DC40F06C810022A54B30463946FEF7BDFDDDE90223FFF73FF8059D2E46002840F05F8165E1069CDDE9028932463B4640464946FEF7D4FE79
:402F4000FFF742F80546FEF73FFD32463B46FEF7A1FD0B46024649464046FEF7E7FB05F1300E069B04F801EBC3EB040E059B73452DD102460B46FEF7DBFB80468946024680
:402F80000B4630463946FEF7F7FF78B942464B4630463946FEF7E6FF002800F04482EB0704D440E2DDF820B000E01C4614F8012C631E392A07D1069A9A42F6D106993022ED
:402FC0000BF1010B0A701A7801321A702BE20022764BFEF75FFD0022002380468946FEF7C1FF0028A6D01EE20A9A002A2BD01E9A012A0ADC119A12B103F2334302E0129B98
:40300000C3F136033D46444613E0059B5D1EAF42BFBF0B9BEA1B9B180B93059BB6BF2F467D1B0025002BA7BF4446059BC3EB08040023079A01211A4450469844079200F022
:40304000F3FA064602E03D4644460A9E5CB1079B002B08DDA342A8BF2346079AC3EB0808E41AD31A0793002F1DDD0A9BABB18DB131462A46504600F071FB049A01460646B6
:40308000504600F0DAFA04990890504600F02DFA089B04937A1B06D000E03A460499504600F05CFB04900121504600F0BDFA0B9B05465BB31A460146504600F04FFB1E9B33
:4030C0000546012B18DC029B83B9039BC3F3130373B9039B23F000473F0D3F054FB1079B08F1010801330793012702E0002700E0029F0B9B73B100E000272B6905EB83036F
:40310000186900F044FAC0F1200004E01E9B012BD9DD0B9F0120079B184410F01F0008D0C0F12003042B02DDC0F11C0002E006D018461C30079B8044034404440793B8F187
:40314000000F05DD42460499504600F055FB0490079B002B05DD29461A46504600F04CFB0546109B23B32946049800F096FB00281EDA00230A220499504600F0CDF90A9B2F
:403180000BF1FF3B0490002B00F05F81314600230A22504600F0C0F9B9F1000F06463FDC3BE000BF903D00000000144000002440059B002B2BDC1E9B022B28DDDDF8149090
:4031C000B9F1000F11D129464B460522504600F0A3F901460546049800F05FFB00280CDC03E0354600E000252E461F9B069C6FEA030B09E03546DDF820B0069B069A5C1C07
:40320000312313700BF1010B05960026F7E00A9BDDF8149023B9069CB2E01E9B022BCFDC002C05DD31462246504600F0E5FA06469FB17168504600F023F90446326906F113
:403240000C01023292000C30FEF782FF01222146504600F0D1FA059000E00596029B069F03F00103079329460498FFF7D7FA3146044600F13008049800F00FFB059A029088
:403280002946504600F025FBC36802463BB901460A90049800F001FB0A9A034600E00123114650460A9300F020F90A9B53B91E9A42B9079A32B9B8F1390F2AD0029B002B02
:4032C0001CDC1DE0029A002A04DB1BD11E9ACAB9079ABAB9002B13DD01220499504600F08BFA2946049000F0D8FA002803DC07D118F0010F04D0B8F1390F0AD004F131088A
:403300007C1C0CE0002B07F101040BDDB8F1390F03D139233B70013756E008F1010887F800806CE0069B2746E31A4B4504F8018C3BD000230A220499504600F0EDF8059B4C
:4033400004909E424FF00A024FF000033146504604D100F0E1F80646059084E700F0DCF8002306460A220599504600F0D5F8059079E700230A220499504600F0CDF8049045
:4033800029460498FFF74AFA069B00F1300804F8018BE31A4B45ECDB069B0596B9F1010FACBF4B4401331F46002601220499504600F022FA2946049000F06FFA002803DCAE
:4033C00015D118F0010F12D03C4614F8013C621E392B09D1069B934204D10BF1010B3123069A02E01446F0E70133137007E03C4614F8013C621E302B01D11446F8E729464C
:40340000504600F072F8059B6BB12EB19E4203D03146504600F069F80599504600F065F801E0DDF820B00499504600F05EF80023209A23700BF101031360229B1BB11C6088
:4034400001E008480AE0069808E0B9F1000F3FF7E2AE1E9B022B7FF7DEAEB1E615B0BDE8F08F00BF723D0000004870474481FF1F024B0146186800F0E7BA00BF4081FF1F31
:4034800070B5456A04460E463DB91020FFF7F0FF6062456085600560C560656AEB6843B1636ADB6853F8260078B1026843F8262017E021220421204600F0B8FA636AE86092
:4034C000DB68002BECD1002070BD012101FA06F56A1D9200204600F0A9FA0028F3D04660856000230361C36070BD70B5446A06460D463CB91020FFF7BBFF7062446084603C
:403500000460C4603DB1736A6A68DB6853F82210296043F8225070BD2DE9F04106460C460D691F4601F1140E0023DEF80000013381B202FB0171000C0F0C02FB007089B2D1
:4035400001EB00419D424FEA10474EF8041BECDCD7B1A3689D4212DB616830460131FFF78FFF8046226904F10C01023292000C30FEF7EEFD21463046FFF7B7FF444604EBF7
:40358000850301355F6125612046BDE8F081030C1B0413B90004102300E0002310F07F4F04BF0002083310F0704F04BF0001043310F0404F04BF80000233002803DB420080
:4035C00003D5581C70471846704720207047036813F007020BD0D90722D49A074BBF5B089B08036003604CBF01200220704799B209B91B0C102213F0FF0F04BF1B0A08327F
:40360000190704BF1B090432990704BF9B080232D90702D45B0805D00132036010467047002070472020704710B50C460121FFF727FF01224461026110BD2DE9F74F1446B1
:403640000A69236988469A42BEBF0B46A0461C46D8F81070D4F81090D8F80830D8F8041007EB09069E42C8BF0131FFF709FF00F114052B4605EB860C0022634502D243F875
:40368000042BFAE704F1140208F1140102EB890301EB87070093009B0192934257D9B2F800B0BBF1000F23D08946AE464FF0000859F8044BBEF800A0A3B20BFB03A34FEAE6
:4036C000144ADEF8004043444FEA14480BFB0A84F24604EB13449BB243EA04434F454FEA14484AF8043B01D9D646E1E7CEF80480019B0432B3F802A0BAF1000F21D02C4679
:4037000089462B684FF00008B9F800E0B4F802B09BB20AFB0EBEA346F04443EA08434BF8043B59F8043BB4F804E01B0C0AFB03E34F4503EB18434FEA134801D95C46E3E7D3
:4037400063600435A7E75CF8043D13B9013E002EF9DC066103B0BDE8F08F00002DE9F843154612F0030206460F4607D0214C013A002354F82220FFF7CFFE0746AD1036D087
:40378000746A3CB91020FFF773FE7062446084600460C460D6F82480D8F808404CB940F271213046FFF740FF04460023C8F8080003604FF00008EB070AD5394622463046B2
:4037C000FFF73BFF814639463046FFF78EFE4F466D100CD0206808B10446ECE7224621463046FFF72AFF2060C0F80080F4E73846BDE8F883583E00002DE9F0470C460746F8
:40380000914626694FEA621A56444968A368751CAB4202DA01315B00FAE73846FFF730FE002380461A4600F11401534503DA41F823200133F9E72AEAEA73206901EB8303ED
:4038400019F01F0904F1140101EB800E14D0C9F1200C002208689A4600FA09F0024343F8042B51F8042B8E4522FA0CF2F2D8CAF8042042B1B51C06E0043B51F8042B8E456C
:4038800043F8042FF9D8013D3846C8F810502146FFF72BFE4046BDE8F08703690A6910B59B1A11D192001430143183180A4453F8044D52F8041D8C4202D007D3012010BD17
:4038C0009842F4D3002010BD184610BD4FF0FF3010BD2DE9F8430C460746114620461546FFF7DBFF061E08D131463846FFF7C8FD012303614661BDE8F883BCBF23462C46AA
:4039000038466168BABF1D4601260026FFF7B8FD2B69C660266905F1140904F1140101EB860709EB830800F114054FF0000C51F8042B59F8044B93B29C44A3B2240CC3EB49
:403940000C03C4EB124202EB23429BB24FEA224CC84543EA02428E4645F8042BE7D8BE450ED25EF8041B8AB26244131403EB114392B242EA03424FEA234C45F8042BEEE731
:4039800055F8043D0BB9013EFAE70661BDE8F8832DE9F3411C4601219046089E099DFFF76FFDC4F31302C4F30A5407460CB142F480120192B8F1000F19D002A840F8088D5E
:4039C000FFF705FE009B48B1019AC0F1200102FA01F10B43C2407B61019200E07B61019B002B14BF02210121BB61396107E001A8FFF7EDFD019B01217B613961203034B1F6
:403A0000A4F2334404443460C0F1350009E0A0F2324007EB810330601869FFF7B8FDC0EB41102860384602B0BDE8F08138B502FB01F4214600F008F8054618B122460021FB
:403A4000FEF791FB284638BD70B5CD1C25F0030508350C2D38BF0C25002D064601DBA94202D90C23336046E000F05CF8234B1C681A462146A1B10B685B1B0ED40B2B03D96A
:403A80000B60CC18CD501EE08C420BBF63684B681360636018BF0C4615E00C464968E9E7174C23681BB9304600F02CF820602946304600F027F8431C18D0C41C24F003045D
:403AC000A0420DD12560304600F02DF804F10B00231D20F00700C31A0ED05A42E25070BD211A304600F00EF80130EBD10C233360304600F018F8002070BD00BFA481FF1FCE
:403B0000A081FF1F38B5064C0023054608462360FCF7DCFB431C02D1236803B12B6038BDE881FF1F704770474FEA410C7FEA6C5C02D150EA013C0AD14FEA430C7FEA6C5C83
:403B400002D152EA033C02D14FF0000070474FF00100704700000000005100401000205100405000C0510040100000000140001000140140000800400140000A004C01406E
:403B80000002005001402000FB21F93FFB2109407CD91240FB2119407A6A1F407CD92240BBFD2540FB2129403A462C407A6A2F405C4731407CD932409C6B3440BBFD35401F
:403BC000DB8F3740FB2139401BB43A403A463C405AD83D407A6A3F404C7E40405C4741406C1042407CD942408CA243409C6B4440AC344540BBFD4540CBC64640DB8F4740CF
:403C0000EB584840FB21494083F9A200444E6E00FC291500D1572700DD34F50062DBC0003C999500419043006351FE00BBDEAB00B761C5003A6E2400D24D42004906E000BD
:403C400009EA2E001C92D100EB1DFE0029B11C00E83EA700F535820044BB2E009CE98400B4267000417E5F00D6913900538339009CF439008B5F840028F9BD00F81F3B007B
:403C8000DEFF97000F980500112FEF000A5A8B006D1F6D00CF7E360009CB2700464FB7009E663F002DEA5F00BA277500E5EBC7003D7BF100F739070092528A00FB6BEA00BF
:403CC0001FB15F00085D8D00300356007BFC4600F0AB6B0020BCCF0036F49A00E3A91D005E619100081BE60085996500A0145F008D40680080D8FF0027734D0006063100A0
:403D0000CA561500C9A873007BE260006B8CC0000200000003000000040000000600000000000040FB21F93F000000002D44743E000000809846F83C0000006051CC783B6E
:403D400000000080831BF0390000004020257A38000000802282E336000000001DF369354300494E4600696E66004E414E006E616E003000496E66696E697479004E614EEC
:403D800000504F534958002E0000000000000000000000000000F03F000000000000244000000000000059400000000000408F40000000000088C34000000000006AF840DA
:403DC0000000000080842E4100000000D01263410000000084D797410000000065CDCD41000000205FA00242000000E876483742000000A2941A6D42000040E59C30A24201
:403E00000000901EC4BCD64200003426F56B0C430080E03779C3414300A0D8855734764300C84E676DC1AB43003D9160E458E143408CB5781DAF154450EFE2D6E41A4B44D2
:403E400092D54D06CFF08044F64AE1C7022DB544B49DD9794378EA4405000000190000007D000000000000000080E03779C34143176E05B5B5B89346F5F93FE9034F384D05
:403E8000321D30F94877825A3CBF737FDD4F1575F8B500BFF8BC08BC9E4670474D00000049030000F8B500BFF8BC08BC9E46704729000000C83E0000C880FF1FB800000068
:403EC000700000000000000000000000F081FF1F0000E02EC05D00001800000000366E010000000000000000000000000000000000000000000000000000000000000000DB
:403F0000603D0000000000000000000000000000000000000000000000000000000000000000000000000000000000000000000000000000000000000000000000000000E4
:403F4000E080FF1F873D0000883D0000883D0000883D0000883D0000883D0000883D0000883D0000883D0000883D0000FFFFFFFFFFFFFFFFFFFFFFFFFFFF00000000000020
:403F80000000000000000000000000000000000000000000000000000000000000000000000000000000000000000000000000000000000000000000000000000000000001
:403FC00000000000000000000000000000000000000000000000000000000000000000000000000000000000000000000000000000000000000000000000000000000000C1
:404000000000000000000000000000000000000000000000000000000000000000000000000000000000000000000000000000000000000000000000000000000000000080
:404040000000000000000000000000000000000000000000000000000000000000000000000000000000000000000000000000000000000000000000000000000000000040
:020000040003F7
:0200000480007A
:400000000000000000000200000B0B0000000000000000000000000000000000000000000000000000000000000000000000000000000000000000000000000000000000A8
:400040000000000000000000000000000000000000000000000000000000000000000000000000000000000000000000000000000000000000000000000000000000000080
:400080000000000000000000000000000000000000000000000000000000000000000000000000000000000000000000000000000000000000000000000000000000000040
:4000C0000000000000000000000000000000000000000000000000000000000000000000000000000000000000000000000000000000000000000000000000000000000000
:4001000000000000000000000000000000000000000000000000000000000000000000000000000000000000000000000000000000000000000000000000000000000000BF
:0200000490006A
:0400000000004005B7
:0200000490105A
:04000000BC90ACAF55
:0200000490303A
:02000000145991
:0200000490402A
:4000000000000000000000000000000000000000000000000000000000000000000000000000000000000000000000000000000000000000000000000000000000000000C0
:400040000000000000000000000000000000000000000000000000000000000000000000000000000000000000000000000000000000000000000000000000000000000080
:400080000000000000000000000000000000000000000000000000000000000000000000000000000000000000000000000000000000000000000000000000000000000040
:4000C0000000000000000000000000000000000000000000000000000000000000000000000000000000000000000000000000000000000000000000000000000000000000
:0200000490501A
:0C00000000012E12306900012E2B44C2BA
:00000001FF