:400000000080002011000000850300008503000008B5044B1A6803F53F5302331A6000F0D1F900BFFA46004010B5054C237833B9044B13B10448AFF300800123237010BD9D
:400040004881FF1F00000000101B0000084B10B51BB108490848AFF300800848036803B910BD074B002BFBD0BDE81040184700BF000000004C81FF1F101B0000C880FF1FAC
:400080000000000038B500F0E7FE0021084600F0F1FE1D4800F086FE00F050FD62B640F6C41001F097F8044600F05CFD002000F069FD00F05FFD00F07DFD204401F01CF850
:4000C000124A82FB0032C117C1EB6212642303FB1203002B01DA4FF0FF330D4D0D49284601F0F2F80021012000F0C4FE0A4800F059FE0021012000F0BDFE284600F052FECB
:40010000642000F0BBF9CFE7141B00001F85EB516481FF1F241B0000381B0000FEE700BFF0B40022174611E050F82760F3B226F0FF0608E001EB420511F812406D78A555A1
:400140000132013BDBB2002BF4D101370C2FEBD9F0BC70470C4B1B78DBB203F007010B4A11701B09013213700C22094B1A70402203F6F3131A70802204331A704422A3F282
:400180008E231A70704700BFCF0100496E5800400D51004008B50A46002101F08CF808BD08B501F07DF808BD38B500242C4B1C80502202331A7004222A492B48FFF7F0FF3B
:4001C00002222A4B1A7008224FF040231A70032103F500731970264B1B78DBB225490B70254B1A8041F25122023B1A8019250CE0224B1B7803F0010343EA440404F00304DC
:400200004FF4F07001F010F8013D0DB1032CEFD115B90320FFF782FF194B4FF480721A8007221A70002217490A704820023108701A700222033B1A7004220A331A70124A1B
:40024000137843F001031370013A137843F001031370013A137843F08003137038BD00BF804000407C000048004100400043004008010049A146004022420040254200407A
:400280000440004006400040A243004038B572B62C4A137843F00403137000240CE02A4D630019194A0011462A44084691882858FFF770FF0134E4B2072CF0D923494FF053
:4002C0009040FFF72DFF0A22214B1A70214A137843F0020313701032137843F0020313701D4C237843F040032370A2F58632513A137843F010031370082218491848FFF795
:400300004FFF082217491848FFF74AFF082217491748FFF745FF174A137843F008031370154D61232B70FFF73FFF81232B700122124B1A70FFF70EFF0E2221461048FFF790
:400340002FFF38BDE84600404C1B0000340000488358004003500140A043004064000048025100406C000048125100407400004822510040224300400048004004000840B9
:40038000B043004008B500F05FFF03680C2B00D1FEE7FEE708B5094B1A681044084BC31A802B02DC054B186005E000F04DFF0C2303604FF0FF32104608BD00BFCC80FF1FF3
:4003C000A081FF1F08B5104E104D16E029686B68AC68002204E051F8040B43F8040B0432A242F8D1E868002203E0002143F8041B04328242F9D11035013E002EE6D100F060
:4004000029FFFFF73FFEFEE701000000741C000008B5104A104B1A60104A136843F40073136000230AE0032B03D80D4A52F8231000E00C490C4A42F8231001332F2BF2D9D2
:400440000A4B1A780A4B1A70074A0A4B1A60FFF71DFF08BD0004FA050CED00E014ED00E000000000850300000080FF1FBC760040C080FF1F08ED00E001BE704710B50446B2
:4004800005E0084B186800F0CFFEA4F50044B4F5004FF6D8034B586800FB04F000F0C4FE10BD00BFD080FF1F08B5034B1B7A00FB03F000F0B9FE08BDD080FF1F70B50446A4
:4004C0000E46074B1D681F2802D90020FFF7D4FF04F01F04103455F8240045F8246070BD08ED00E038B504460D46072902D90020FFF7C2FF1F2C02D90020FFF7BDFF04F0DF
:400500001F0000F1604000F564406D01EDB2057038BD00BF38B59DF81040651EEDB2032D51D8013809282ED8DFE800F0052D2D052D2D0F192D230F2B03D92548007840B2A5
:4005400022E02448007840B21EE00F2B03D92248007840B218E02148007840B214E00F2B03D91F48007840B20EE01E48007840B20AE00F2B03D91C48007840B204E01B4842
:40058000007840B200E0002001EB401101FB02F2D20B91B20D2B0BD8C3F10E0192B20A4191B2621E124800EB82020133937005E0631E0F4A02EB83030F229A70013C0C4B53
:4005C00023F8241038BD0020FFF756FF38BD00BF180100491C010049190100491D0100491A0100491E0100491B0100491F0100497081FF1FF8B5074600F01EFE06460D4DB1
:400600002B7843F003032B700B4C237843F0030323700A4B1F700320FFF746FF2B7803F0FC032B70237803F0FC032370304600F007FEF8BDF8460040F946004092580040AC
:40064000F8B504460022BB4B1A74012859D17822B94B1A70002502331D700A2701331F707F23B64A13700132157001321370B44B1D7001331D7001331D7001260A331E70E4
:40068000502203F527631A70272201331A702C2201331A7001331D70552203331A705A2201331A70052201331A70022202331A70122201331A70282201331A70EB22013374
:4006C0001A704420FFF796FF58229E4B1A7001331D7005331E7001331E7001331D7001331F704FF4FA22984B1A603146304600F0F7FB3146072000F077FC94491D20FFF72B
:40070000DDFE022C5AD138228B4B1A70042202331A70072201331A70002501331D7001331D703F2201331A7002331D7001331D7001331D7001260A331E70502203F527630F
:400740001A70272201331A702C2201331A7001331D70552203331A705A2201331A70052701331F7002331E70112201331A70192201331A70972201331A704420FFF73AFF04
:400780005822704B1A7001331D7005331F7001331E7001331D700A2201331A704FF4FA42694B1A603146384600F09AFB3146252000F01AFC66491D20FFF780FE032C5AD1E2
:4007C00038225D4B1A70042202331A70072201331A70002501331D7001331D703F2201331A7002331D7001331D7001331D7001260A331E70502203F527631A7027220133AA
:400800001A702C2201331A7001331D70552203331A705A2201331A70052701331F7002331E70112201331A70192201331A70972201331A704420FFF7DDFE5822414B1A7018
:4008400001331D7005331F7001331E7001331D700A2201331A704FF4FA423B4B1A603146384600F03DFB3146252000F0BDFB39491D20FFF723FE042C5AD138222E4B1A70F5
:40088000042202331A70072201331A70002401331C7001331C703F2201331A7002331C7001331C7001331C7001250A331D70502203F527631A70272201331A702C22013371
:4008C0001A7001331C70552203331A705A2201331A70052601331E7002331D70112201331A70192201331A70972201331A704420FFF780FE5822134B1A7001331C700533FB
:400900001E7001331D7001331C700A2201331A704FF4FA420C4B1A602946304600F0E0FA2946252000F060FB0B491D20FFF7C6FDF8BD00BF7081FF1F004E0040044E0040D3
:40094000084E0040945800409481FF1F210C0000250C0000290C00002D0C00002DE9F04182B0384E4FF0010886F80080364F00247C74102000F0A2FA102000F023FB0721B6
:400980001D20FFF7AFFD0425304B1D7001331C7007331C702E4A137843F0180313702D4B1C7003F2F5231C7001331C700A22A3F209331A7001331C7002331C705B220533B3
:4009C0001A705E2201331A7004331C701423224A1370CDF800804FF4004249F2DA012846FFF798FD0223009310234FF4004249F2DA012846FFF78EFD0323009310234FF4C9
:400A0000004249F2DA012846FFF784FD009510234FF4004249F2DA012846FFF77BFD3378013B07EB83039A780C4B1A703378013B37F823200A4B1A803078FFF701FE02B051
:400A4000BDE8F081E080FF1F7081FF1F96580040075B004093580040014E00400E4E00400C4E004070B500F0E7FB06462A4B1B782A4B1A7842F001021A701A7842F010022C
:400A80001A7010331A7842F001021A701A7842F010021A70224D2B7843F002032B70214C237843F0020323701F4A137843F0030313700320FFF7F8FC2B7803F0FD032B7012
:400AC000237803F0FD032370184A137843F0060313707A22164B1A70164A137843F0010313701032137843F0010313700F3A137843F0010313701032137843F00103137061
:400B00004FF000530C4A1360A2F5C0721360304600F096FB70BD00BFE080FF1FAA430040F8460040F9460040915800407758004082580040A143004080E200E008B5084BCB
:400B40009B7C4BB9064BDB7C13F0FF0F01D1FFF705FF0122024B9A74FFF784FF08BD00BF7081FF1F024A137843F0010313707047004E0040024A137803F0FE031370704770
:400B8000004E0040094B1B7C13F0FF0F03D0074B5B7CDBB203E0064B1B7803F00103012B01D00028EED01846704700BF7081FF1F014E0040154B1B7803F00303012B07D818
:400BC000134B1888023B1B889BB243EA004013E0022B0AD10E4B1888023B1B7843EA00430C4A107843EA002006E00B4B188883B2074A108843EA0040084B1B7C13F0FF0F9C
:400C000002D00022054B5A74704700BF144E0040124E0040114E0040104E00407081FF1F704700BF704700BF704700BF704700BF10B50B4C237803F09F032370237803F059
:400C4000F00323702378184340F0100020700120FFF72AFC237803F0EF03237010BD00BF2051004038B505460E4C237843F020032370237803F0BF0323700020FFF714FC7C
:400C8000237803F0F003237023781D4345F0100525700120FFF708FC237803F0EF03237038BD00BF2051004070B5354B1A7802F08002D2B21A7033490A7802F0F00242F0E6
:400CC0000F020A7001310A7802F0F0020A7001310A7802F0F0020A701A7802F0DF021A701A7842F040021A704FF4CA760020FFF7DBFB234D2B7843F010032B700120FFF74C
:400D0000D3FB214B1C78E4B22B7803F0EF032B700020FFF7C9FB04F00804E4B22B7843F010032B700120FFF7BFFB2B7803F0EF032B7014B90A20FFF7B7FB013E0CB1002E7B
:400D4000D4D10F4A137803F0BF031370137803F08003DBB213700232137803F0F00313700132137803F0F00343F00F0313700132137803F0F00343F00F03137070BD00BFB5
:400D800020510040225100402151004010B50446FFF78AFF2009FFF765FF04F00F00FFF761FF10BD38B505460078012404E0FFF7EDFF285D0134E4B20028F8D138BD00BF56
:400DC00010B50446FFF770FF2009FFF731FF04F00F00FFF72DFF10BD08B52820FFF74EFB0320FFF725FF0520FFF748FB0320FFF71FFF0F20FFF742FB0320FFF719FF012074
:400E0000FFF73CFB0220FFF713FF0520FFF736FB0620FFF7D5FF0E20FFF7D2FF2C20FFF7CFFF0820FFF7CCFF0120FFF7C9FF0C20FFF7C6FF0320FFF7C3FF0520FFF71EFB5C
:400E400008BD00BF08B50C20FFF7BAFF0122014B1A7008BD8881FF1F08B5054B5B7823B9FFF7BAFF0122024B5A70FFF7EBFF08BD8881FF1F08B5032819D8DFE800F0020767
:400E80000D1381F08000FFF79BFF08BDA1F14000C0B2FFF795FF08BDA1F16C00C0B2FFF78FFF08BDA1F12C00C0B2FFF789FF08BD014B188880B2704780400040034B1A7858
:400EC00000F0F80010431870704700BF82400040024B187800F00700704700BF8240004070B505460E46FFF7F3FF0446FFF7E0FFA84256D02B4B1B7803F0010294B900B193
:400F000085B938B9284B1D80284A137803F0BF03137070BD254A137843F040031370224B1D8070BD22B3002321490B7001240F310C7004310B700C390B7803F07F030B70C0
:400F40001A4B1B7813F0080F00D08DB9194B18800721013B1970164B1B7813F0010FFAD110490B7803F0FE030B700021104B19700C4B1B7813F0010F0DD00E4B1D800EB1AF
:400F8000032200E001220A4B1A70094B1B7813F0010FFAD170BD044B1D8002490B7813430B7070BDA243004080400040824000400140004002400040014B188880B2704781
:400FC00000410040034B1A7800F0F80010431870704700BF02410040024B187800F00700704700BF0241004070B505460E46FFF7F3FF0446FFF7E0FFA84256D02B4B1B7823
:4010000003F0010294B900B185B938B9284B1D80284A137803F0BF03137070BD254A137843F040031370224B1D8070BD22B3002321490B70012413310C7004390B70083936
:401040000B7803F07F030B701A4B1B7813F0080F00D08DB9194B18800721013B1970164B1B7813F0010FFAD110490B7803F0FE030B700021104B19700C4B1B7813F0010FCD
:401080000DD00E4B1D800EB1032200E001220A4B1A70094B1B7813F0010FFAD170BD044B1D8002490B7813430B7070BDA143004000410040024100400140004002400040C2
:4010C00030B4C517CB1700FB03F301FB0533A0FB01011944002871F1000307DA404261EB4101000E40EA0120404202E0000E40EA012030BC704700BF30B59FB00446782221
:401100003249684600F0CCF8002C1CDA03DA6442E402654200E0E502092400200CE004EB440293001EAA134453F8783C29461844FFF7C6FF013CE4B2002CF0D1C517C309CC
:4011400043EA456040E045F2A4039C421DDC002C03DA64426402654200E06502092400200CE004EB440293001EAA134453F8743C29461844FFF7A4FF013CE4B2002CF0D186
:40118000C11749084FEA30001EE0002C03DA64422402654200E02502092400200CE004EB440293001EAA134453F8703C29461844FFF786FF013CE4B2002CF0D1044B034469
:4011C000D917DB0943EA41601FB030BD7C1B0000B641E6FF70B58AB0064601AC114D0FCD0FC40FCD0FC42B682360002E03DA75426D026D4200E07502002008240AE00AABD2
:4012000003EB840353F8243C29461844FFF758FF013CE4B2002CF2D1C317400940EAC3600AB070BDF41B00000230800803D000BF01380046FCD17047EFF3108072B67047AE
:4012400080F31088704700BF014B1868704700BF4481FF1F0E4B70B51E460E4C0025E41AA410A54204D056F8253098470135F8E700F0EEFC084B094C1E46E41AA4100025A6
:40128000A54204D056F8253098470135F8E770BD5C1C00005C1C00005C1C0000641C000010B5431E0A44914204D011F8014B03F8014FF8E710BD03460244934202D003F82F
:4012C000011BFAE7704700000EB400B54FF402719CB0ADF814106FF00041049107914FF6FF711DAB02900690084853F8042BADF81610006802A9019300F064F8029B00223F
:401300001A701CB05DF804EB03B070474481FF1F2DE9F0478E6882469E420C46914698463ED88A8912F4906F3AD02568096902236F1A656905EB450595FBF3F57B1C434451
:401340009D4238BF1D4653050FD5294600F040FB064698B13A462169FFF7A2FFA38923F4906343F08003A38113E02A4600F08EFB064670B92169504600F0DEFA0C23CAF8EE
:401380000030A3894FF0FF3043F04003A381BDE8F08726613E44266046466561ED1BA560464528BF464649463246206800F0A8FAA36800209B1BA36023681E442660BDE8A4
:4013C000F08700002DE9F04F9DB003938B8980461C060D4616460DD50B695BB9402100F0F7FA2860286118B90C23C8F80030CDE040236B610023099320238DF82930DFF853
:401400009CB130238DF82A3037463C4614F8013B1BB9B7EB060910D003E0252BF9D02746F3E74B46324629464046FFF771FF013000F0A780099B4B4409933B78002B00F0F5
:40144000A08000234FF0FF3204930793059206938DF853301A930126052221784E4800F041FA671C049B38B14B4A3C46801A06FA00F018430490EFE7D90644BF20228DF8E1
:4014800053201A0744BF2B228DF8532022782A2A03D0079A00210A200BE0039A111D12680391002A10DA524243F00200079204900BE027463B780134303B092B03D800FB20
:4014C00002320121F5E701B107923B782E2B1ED17B782A2B0AD1039B02371A1D1B680392002BB8BF4FF0FF33059310E0002319460593781C0A2407463A780130303A092AE7
:4015000003D804FB01210123F5E703B1059103223978224800F0E6F940B14023CBEB000003FA00F0049B013718430490397806221B487E1C8DF8281000F0D4F988B1194BAC
:4015400033B9039B073323F007030833039314E003AB00932A46144B04A94046AFF3008007E003AB00932A460F4B04A9404600F093F8B0F1FF3F824603D0099B534409936F
:4015800042E7AB895B0601D4099801E04FF0FF301DB0BDE8F08F00BF1A1C0000201C0000241C000000000000111300002DE9F04791461F460A698B6806469342B8BF134642
:4015C000C9F8003091F843200C46DDF8208012B10133C9F800302368990642BFD9F800300233C9F80030256815F0060510D104F1190A07E00123524639463046C0470130A7
:401600001AD00135E368D9F800209B1A9D42F1DB94F843302268003318BF012392060FD5E118302081F843005A1C94F845102244023382F8431003E04FF0FF30BDE8F0878A
:4016400004F1430239463046C0470130F4D02268D9F80050E36802F00602042A08BF5D1B2269A3680CBF25EAE57500259342C4BF9B1AED184FF000091A344D4509D00123BC
:40168000224639463046C0470130D5D009F10109F3E70020BDE8F0872DE9F04317460A7E85B06E2A984606460C460C9B01F1430E00F0AE8011D8632A22D009D8002A00F0F4
:4016C000BB80582A40F0CA8081F84520834955E0642A1ED0692A1CD0C0E0732A00F0B08009D86F2A2ED0702A40F0B8800A6842F020020A603EE0752A24D0782A3AD0ADE0E8
:401700001A6801F14205111D1960136884F84230A8E021681A6811F0800F02D0111D196008E011F0400F02F10401196002D0B2F9003000E01368002B3CDA2D225B4284F8E8
:40174000432037E021681A6811F0800F02D0111D196007E011F0400F02F10401196001D0138800E01368227E5C496F2A14BF0A2208221BE078225A4984F845202268186842
:4017800012F0800F00F104051D6003D1550601D5038800E00368D00744BF42F0200222601BB9226822F0200222601022002084F8430001E049490A226568002DA56008DBF0
:4017C000206820F0040020602BB9002D7DD175460CE0002B79D07546B3FBF2F002FB1033CB5C05F8013D03460028F5D1082A0BD12368DA0708D5236962689A42DEBF3023B6
:4018000005F8013C05F1FF35C5EB0E0323612EE008681A6810F0800F496903D0101D1860136808E010F0400F02F104001860136801D0198000E0196000232361754616E08F
:401840001A68111D1960156800216268284600F049F808B1401B6060636804E004F1420584F8422001232361002384F84330CDF800803B4603AA21463046FFF797FE0130D5
:4018800002D14FF0FF3026E023692A4639463046C0470130F5D023689B0710D5002504F1190907E001234A4639463046C0470130E7D00135E368039A9B1A9D42F2DBE0685F
:4018C000039B9842B8BF184605E00B7804F1420584F842308AE705B0BDE8F0832B1C00003C1C000010B5C9B202449042034605D01C7801308C42F8D1184610BD002010BD42
:40190000884210B501EB020301D8421E0BE09842FBD28118D21AD34204D013F8014D01F8014DF8E710BD994204D011F8014B02F8014FF8E710BD000038B50546002944D033
:4019400051F8043C0C1F002BB8BFE41800F0D4F81E4A1368114613B96360146030E0A3420DD92268A018834201BF18685B681218226063600C6023E0A24203D813465A687F
:40198000002AF9D118681918A1420BD12168014458188242196013D110685268014419605A600DE002D90C232B6009E021686018824201BF106852680918216062605C6078
:4019C0002846BDE8384000F098B838BD9081FF1F70B5CD1C25F0030508350C2D38BF0C25002D064601DBA94202D90C23336046E000F082F8234B1C681A462146A1B10B6844
:401A00005B1B0ED40B2B03D90B60CC18CD501EE08C420BBF63684B681360636018BF0C4615E00C464968E9E7174C23681BB9304600F052F820602946304600F04DF8431C2A
:401A400018D0C41C24F00304A0420DD12560304600F053F804F10B00231D20F00700C31A0ED05A42E25070BD211A304600F034F80130EBD10C233360304600F03EF8002048
:401A800070BD00BF9081FF1F8C81FF1FF8B5074615460E4621B91146BDE8F840FFF798BF1AB9FFF749FF2846F8BD00F027F885420ED929463846FFF78BFF044650B13146BC
:401AC0002A46FFF7EDFB31463846FFF735FF01E03046F8BD2046F8BD38B5064C0023054608462360FEF756FC431C02D1236803B12B6038BD9881FF1F7047704751F8040C9E
:401B00000028BEBF091851F8043CC0180438704700000000456A656D706C6F205443204B0000000054656D703D256C642E2530323164204300000000202020202020202028
:401B4000202020202020202020202000305100404000C05100401000F0510040100000000140001000140140000800400140000A004C014000020050014020000000000099
:401B800000000000B641E6FF0D47280024820200B7446A0296B6F0FFEF41000089359BFAB9AC8BFF721FE5FF8444BC0BF657EAFC4B912401A7F66AF2BA327DF5562C78FA8E
:401BC000EB5B1E08831C06EC2EDC770E1FA01EFEA16642ECF8EEA8EA00000000CC36F7F7C9ADC210000000000000000009A688FA000000000000000027500600AC450100F9
:401C000079E6FDFF08A010004BBF67FF48C8980299994BFAF24E02054300232D302B2000686C4C00656667454647003031323334353637383941424344454600303132331F
:401C400034353637383961626364656600000000F8B500BFF8BC08BC9E4670474D00000011040000F8B500BFF8BC08BC9E46704729000000881C0000C880FF1F80000000B5
:401C8000580000000000000000000000A081FF1F0000E02EC05D00001800000000366E010100000000000000000000000000000000000000000000000000000000000000A4
:401CC00000000000181C00000000000000000000000000000000000000000000000000000000000000000000000000000000000000000000000000000000000000000000B0
:401D000000000000E480FF1F000000000000000000000000000000000000000000000000000000000000000000000000000000000000000000000000000000000000000021
:401D40000000000000000000000000000000000000000000000000000000000000000000000000000000000000000000000000000000000000000000000000000000000063
:401D80000000000000000000000000000000000000000000000000000000000000000000000000000000000000000000000000000000000000000000000000000000000023
:401DC00000000000000000000000000000000000000000000000000000000000000000000000000000000000000000000000000000000000000000000000000000000000E3
:401E000000000000000000000000000000000000000000000000000000000000000000000000000000000000000000000000000000000000000000000000000000000000A2
:020000040003F7
:0200000480007A
:4000000001090140040A0140010B014001150140011B0140024401400145014003460140034701400248014001490140014C0140024D0140B502B802BE01D804DF011D02C3
:40004000EC10EC107C01DE01940145089401D001A508B401EC082510C820B510A508B508EC0800000000000000000C00000B0B0000000000007F7F0000000000070018010E
:400080000000000000000000000000000000000000000000000000000000000000000000000000000000000000000000000000000000000000000000000000000000000040
:4000C0000000000000000000000000000000000000000000000000000000000000000000000000000000000000000000000000000000000000000000000000000000000000
:4001000000000000000000000000000000000000000000000000000000000000000000000000000000000000000000000000000000000000000000000000000000000000BF
:40014000000000000000000000000000000000000000000000000000000000000000000000000000000000000000000000000000000000000000000000000000000000007F
:0200000490006A
:0400000000004005B7
:0200000490105A
:04000000BC90ACAF55
:0200000490303A
:020000001C964C
:0200000490402A
:4000000000000000000000000000000000000000000000000000000000000000000000000000000000000000000000000000000000000000000000000000000000000000C0
:400040000000000000000000000000000000000000000000000000000000000000000000000000000000000000000000000000000000000000000000000000000000000080
:400080000000000000000000000000000000000000000000000000000000000000000000000000000000000000000000000000000000000000000000000000000000000040
:4000C0000000000000000000000000000000000000000000000000000000000000000000000000000000000000000000000000000000000000000000000000000000000000
:0200000490501A
:0C00000000012E12306900012E1C4CFF84
:00000001FF