:400000000080002011000000E9020000E902000008B5044B1A6803F53F5302331A6000F06BF900BFFA46004010B5054C237833B9044B13B10448AFF300800123237010BD3D
:400040004081FF1F0000000020080000084B10B51BB108490848AFF300800848036803B910BD074B002BFBD0BDE81040184700BF000000004481FF1F20080000C880FF1FC2
:400080000000000008B562B600F0BEF900F0EAFA0021084600F0F4FA0A4800F089FA0021012000F0EDFA084C208800F007FB207800F0B8F92368013323604FF47A7000F03F
:4000C0003DFBECE7240800005C81FF1FFEE700BFF0B40022174611E050F82760F3B226F0FF0608E001EB420511F812406D78A5550132013BDBB2002BF4D10137092FEBD912
:40010000F0BC7047064B1B78DBB203F00701054A11701B09013213704422034B1A707047CF0100496E5800407658004008B50A46002100F06CFB08BD38B53322244B1A808F
:40014000182202331A70022203F27E231A7008224FF040231A70032103F5007319701D4B1B78DBB21C490B701C4B1A8041F25122023B1A80002419250CE0194B1B7803F0B6
:40018000010343EA440404F003044FF4F07000F0F7FA013D0DB1032CEFD115B90320FFF795FF104B4FF480721A8007221A7000220D490A704820023108701A700222033B13
:4001C0001A700A4A137843F00103137038BD00BF8040004008010049A146004022420040254200400440004006400040A243004008B500F001FB08BD38B572B62B4A1378B2
:4002000043F00403137000240CE0294D630019194A0011462A44084691882858FFF786FF0134E4B2072CF0D922494FF09040FFF74FFF214A137843F0020313701032137872
:4002400043F0020313701D4C237843F040032370A2F58632513A137843F0100313700A2217491848FFF7C4FF082217491748FFF7BFFF082216491748FFF7BAFF164A1378C4
:4002800043F008031370154D61232B70FFF754FF81232B700122124B1A70FFF733FF0E2221461048FFF7A4FF38BD00BFE8460040340800002800004803500140A043004035
:4002C000D402004800510040E002004812510040E802004822510040224300400048004004000840B043004008B500F059FA03680C2B00D1FEE7FEE708B5104E104D16E046
:4003000029686B68AC68002204E051F8040B43F8040B0432A242F8D1E868002203E0002143F8041B04328242F9D11035013E002EE6D100F03BFAFFF7A5FEFEE70100000019
:400340008C08000008B5104A104B1A60104A136843F40073136000230AE0032B03D80D4A52F8231000E00C490C4A42F8231001332F2BF2D90A4B1A780A4B1A70074A0A4B64
:400380001A60FFF739FF08BD0004FA050CED00E014ED00E000000000E90200000080FF1FBC760040C080FF1F08ED00E07222074B1A702022013B1A7006225D3B1A704722BA
:4003C00010331A7000224F331A7070478164004010B500F0DDF904460A4A137843F020031370013A137843F0100313700232137843F01003137000F093F9204600F0CCF9EB
:4004000010BD00BF9164004008B5054B1B7823B9FFF7CCFF0122024B1A70FFF7D9FF08BD6081FF1F034B1B7813F0040FFAD1024B18707047626400404264004010B50B4CDC
:40044000237803F09F032370237803F0F00323702378184340F010002070012000F084F9237803F0EF03237010BD00BF2051004038B505460E4C237843F020032370237850
:4004800003F0BF032370002000F06EF9237803F0F003237023781D4345F010052570012000F062F9237803F0EF03237038BD00BF2051004070B5354B1A7802F08002D2B27C
:4004C0001A7033490A7802F0F00242F00F020A7001310A7802F0F0020A7001310A7802F0F0020A701A7802F0DF021A701A7842F040021A704FF4CA76002000F035F9234DFF
:400500002B7843F010032B70012000F02DF9214B1C78E4B22B7803F0EF032B70002000F023F904F00804E4B22B7843F010032B70012000F019F92B7803F0EF032B7014B9EE
:400540000A2000F011F9013E0CB1002ED4D10F4A137803F0BF031370137803F08003DBB213700232137803F0F00313700132137803F0F00343F00F0313700132137803F016
:40058000F00343F00F03137070BD00BF20510040225100402151004010B50446FFF78AFF2009FFF765FF04F00F00FFF761FF10BD38B505460078012404E0FFF7EDFF285D27
:4005C0000134E4B20028F8D138BD00BF10B50446FFF770FF2009FFF731FF04F00F00FFF72DFF10BD08B5282000F0A8F80320FFF725FF052000F0A2F80320FFF71FFF0F20EF
:4006000000F09CF80320FFF719FF012000F096F80220FFF713FF052000F090F80620FFF7D5FF0E20FFF7D2FF2C20FFF7CFFF0820FFF7CCFF0120FFF7C9FF0C20FFF7C6FFFB
:400640000320FFF7C3FF052000F078F808BD00BF08B50C20FFF7BAFF0122014B1A7008BD6281FF1F08B5054B5B7823B9FFF7BAFF0122024B5A70FFF7EBFF08BD6281FF1FF4
:4006800008B5032819D8DFE800F002070D1381F08000FFF79BFF08BDA1F14000C0B2FFF795FF08BDA1F16C00C0B2FFF78FFF08BDA1F12C00C0B2FFF789FF08BD10B584B083
:4006C00000238DF80E30092211E0144BA3FB0013DB081C4603EB83035900431ADBB2303304A9114401F80C3C2046013AD2B20928EBD80A4BA3FB0013DB0803EB8303590077
:40070000431ADBB2303304A9114401F80C3C01AB9818FFF74DFF04B010BD00BFCDCCCCCC054A137843F0010313701032137843F001031370704700BFA243004010B5044655
:4007400005E0084B186800F01BF8A4F50044B4F5004FF6D8034B586800FB04F000F010F810BD00BFCC80FF1F08B5034B1B7A00FB03F000F005F808BDCC80FF1F0000000086
:400780000230800803D000BF01380046FCD17047EFF3108072B6704780F31088704700BF014B1868704700BF3C81FF1F0E4B70B51E460E4C0025E41AA410A54204D056F8DF
:4007C000253098470135F8E700F04EF8084B094C1E46E41AA4100025A54204D056F8253098470135F8E770BD7408000074080000740800007C08000010B5431E0A449142D9
:4008000004D011F8014B03F8014FF8E710BD03460244934202D003F8011BFAE770470000000000004461746F20456E766961646F00000000305100404000C05100401000E3
:40084000F0510040100000000140001000140140000800400140000A004C0140000200500140200043000000F8B500BFF8BC08BC9E4670474D00000045030000F8B500BFAB
:40088000F8BC08BC9E46704729000000A0080000C880FF1F780000002800000000000000000000000000E02EC05D00001800000000366E0100000000000000000000000066
:4008C000000000000000000000000000000000000000000064080000000000000000000000000000000000000000000000000000000000000000000000000000000000008C
:400900000000000000000000000000000000000000000000DC80FF1F000000000000000000000000000000000000000000000000000000000000000000000000000000003D
:400940000000000000000000000000000000000000000000000000000000000000000000000000000000000000000000000000000000000000000000000000000000000077
:400980000000000000000000000000000000000000000000000000000000000000000000000000000000000000000000000000000000000000000000000000000000000037
:4009C00000000000000000000000000000000000000000000000000000000000000000000000000000000000000000000000000000000000000000000000000000000000F7
:400A000000000000000000000000000000000000000000000000000000000000000000000000000000000000000000000000000000000000000000000000000000000000B6
:020000040003F7
:0200000480007A
:4000000002520040036400405F000140390101406B0201403D030140060501400441014004420140025001400110040880388172820F0202040806040A020C080E04100199
:40004000140C1701180C2301240128013004320234083501360138023E143F104021410342054404450C470E481149FF4AFF4BFF4C624DA04EF04F41500C541858045904CE
:400080005A045B045F016640670269106A306B106D106E106F1280228110840C8527867387188833893C8B028D1C8E738F219380947F9508987399189A0C9C119F04A0087F
:4000C000A13FA404A504A780A80CAB40AC0FAE70AF23B04CB1C0B40FB51FB630B738BA2ABB20BF01D602D712D804D904DB04DF0100A202A1040805A209280A400D280F0214
:40010000100811041601171A180119891A041C881D281E012304244826A029012DA02F683208350237593C883E023F20404141284220481152085A015E04614063046C08E6
:400140006D246E406F047602771A7A207B10C0FFC2EEC4F6CAF1CCF2CEF0D00FD208D641D80C004001100220050C06150813090C0A0C0C130E04100A1108121413041420D1
:4001800016C018031A141E082080222024E02504270928E029023010310132E03302340F3510370C3A203E013F1440324101450C46B047E0482949FF4AFF4BFF4EF04F44D9
:4001C000500C5401580459045A045B045F0166C06A406B028410858086AC87138C0C8E71930C94DC952C962297439A039C099ED09F08A010A171A240A30EA414A971AA2095
:40020000AB06B0E0B1C0B30FB41FB530B922BA02BB08BF10C002C604C9FFCA07CBFFCC40CD20CEF0CF05D008D804D904DA04DF01E040E1A8E240E32000440448051209081A
:400240000A070C010E110F0810A0120416081705184019211A041C041D101E501F08211822012604274929112A212D202F20308031083201370138083C013D243E0A4110B6
:4002800046254F0850845204542056025C215E405F0891049B049F41A110A729AD48AE20AF40C0F5C2F7C47ECA65CC8BCEE2D074D6F0AA04AC01AD0AAF21B420B704060254
:4002C0006308C080D840AB04AE02EC10EE20000108010000100008101000100000000000000B0B0000000000007F7F0000000000000000000000000000000000000000006C
:4003000000000000000000000000000000000000000000000000000000000000000000000000000000000000000000000000000000000000000000000000000000000000BD
:40034000000000000000000000000000000000000000000000000000000000000000000000000000000000000000000000000000000000000000000000000000000000007D
:40038000000000000000000000000000000000000000000000000000000000000000000000000000000000000000000000000000000000000000000000000000000000003D
:4003C00000000000000000000000000000000000000000000000000000000000000000000000000000000000000000000000000000000000000000000000000000000000FD
:0200000490006A
:0400000000004005B7
:0200000490105A
:04000000BC90ACAF55
:0200000490303A
:02000000F745C2
:0200000490402A
:4000000000000000000000000000000000000000000000000000000000000000000000000000000000000000000000000000000000000000000000000000000000000000C0
:400040000000000000000000000000000000000000000000000000000000000000000000000000000000000000000000000000000000000000000000000000000000000080
:400080000000000000000000000000000000000000000000000000000000000000000000000000000000000000000000000000000000000000000000000000000000000040
:4000C0000000000000000000000000000000000000000000000000000000000000000000000000000000000000000000000000000000000000000000000000000000000000
:0200000490501A
:0C00000000012E12306900012E1627AE00
:00000001FF