:400000000080002011000000E1020000E102000008B5044B1A6803F53F5302331A6000F07FF900BFFA46004010B5054C237833B9044B13B10448AFF300800123237010BD39
:400040003881FF1F00000000D00D0000084B10B51BB108490848AFF300800848036803B910BD074B002BFBD0BDE81040184700BF000000003C81FF1FD00D0000C880FF1F68
:400080000000000030B5A1B062B600F0D1F900F0F3F90028FBD000F0D9F9044600F0F8F922460B49684600F06FFA684600F0FCF9612CECD110AC074D0FCD0FC495E803009D
:4000C00044F8040B217010A800F0EEF9DFE700BFD40D0000E40D0000FEE700BFF0B40022174611E050F82760F3B226F0FF0608E001EB420511F812406D78A5550132013B33
:40010000DBB2002BF4D10137092FEBD9F0BC7047064B1B78DBB203F00701054A11701B09013213704422034B1A707047CF0100496E5800407658004008B50A46002100F055
:400140001AFA08BD38B53322244B1A80182202331A70022203F27E231A7008224FF040231A70032103F5007319701D4B1B78DBB21C490B701C4B1A8041F25122023B1A80CA
:40018000002419250CE0194B1B7803F0010343EA440404F003044FF4F07000F0A5F9013D0DB1032CEFD115B90320FFF795FF104B4FF480721A8007221A7000220D490A702D
:4001C0004820023108701A700222033B1A700A4A137843F00103137038BD00BF8040004008010049A146004022420040254200400440004006400040A243004008B500F089
:40020000AFF908BD38B572B6284A137843F00403137000240CE0264D630019194A0011462A44084691882858FFF786FF0134E4B2072CF0D91F494FF09040FFF74FFF1E4A0F
:40024000137843F0020313701032137843F0020313701A4C237843F040032370A2F58632513A137843F0100313700A2214491548FFF7C4FF082214491448FFF7BFFF144AE4
:40028000137843F008031370124D61232B70FFF759FF81232B7001220F4B1A70FFF738FF0E2221460D48FFF7A9FF38BDE8460040FC0D00002800004803500140A043004096
:4002C000D802004800510040E402004812510040224300400048004004000840B043004008B500F011F903680C2B00D1FEE7FEE708B5094B1A681044084BC31A802B02DC3A
:40030000054B186005E000F0FFF80C2303604FF0FF32104608BD00BFCC80FF1F6881FF1F08B5104E104D16E029686B68AC68002204E051F8040B43F8040B0432A242F8D16B
:40034000E868002203E0002143F8041B04328242F9D11035013E002EE6D100F0DBF8FFF791FEFEE701000000880E000008B5104A104B1A60104A136843F4007313600023BB
:400380000AE0032B03D80D4A52F8231000E00C490C4A42F8231001332F2BF2D90A4B1A780A4B1A70074A0A4B1A60FFF72BFF08BD0004FA050CED00E014ED00E0000000009D
:4003C000E10200000080FF1FBC760040C080FF1F08ED00E07222074B1A702022013B1A7006225D3B1A70472210331A7000224F331A7070478164004010B500F07DF8044661
:400400000A4A137843F020031370013A137843F0100313700232137843F01003137000F055F8204600F06CF810BD00BF9164004008B5054B1B7823B9FFF7CCFF0122024B88
:400440001A70FFF7D9FF08BD5481FF1F084B1B78DBB213F0200F06D0064A1078C0B213F01E0F02D17047002070470020704700BF6064004040640040044B1B7813F0200F84
:4004800001D0012070470020704700BF60640040034B1B7813F0040FFAD1024B18707047626400404264004038B5074B1B782BB938BDFFF7EDFF0134A4B201E00546002457
:4004C000285D0028F5D138BD5481FF1F054A137843F0010313701032137843F001031370704700BFA24300400230800803D000BF01380046FCD17047EFF3108072B670474B
:4005000080F31088704700BF014B1868704700BF3081FF1F0E4B70B51E460E4C0025E41AA410A54204D056F8253098470135F8E700F098FC084B094C1E46E41AA41000255D
:40054000A54204D056F8253098470135F8E770BD700E0000700E0000700E0000780E000010B5431E0A44914204D011F8014B03F8014FF8E710BD03460244934202D003F864
:40058000011BFAE7704700000EB400B54FF402719CB0ADF814106FF00041049107914FF6FF711DAB02900690084853F8042BADF81610006802A9019300F064F8029B00228C
:4005C0001A701CB05DF804EB03B070473081FF1F2DE9F0478E6882469E420C46914698463ED88A8912F4906F3AD02568096902236F1A656905EB450595FBF3F57B1C4344B3
:400600009D4238BF1D4653050FD5294600F040FB064698B13A462169FFF7A2FFA38923F4906343F08003A38113E02A4600F08EFB064670B92169504600F0DEFA0C23CAF83B
:400640000030A3894FF0FF3043F04003A381BDE8F08726613E44266046466561ED1BA560464528BF464649463246206800F0A8FAA36800209B1BA36023681E442660BDE8F1
:40068000F08700002DE9F04F9DB003938B8980461C060D4616460DD50B695BB9402100F0F7FA2860286118B90C23C8F80030CDE040236B610023099320238DF82930DFF8A0
:4006C0009CB130238DF82A3037463C4614F8013B1BB9B7EB060910D003E0252BF9D02746F3E74B46324629464046FFF771FF013000F0A780099B4B4409933B78002B00F043
:40070000A08000234FF0FF3204930793059206938DF853301A930126052221784E4800F041FA671C049B38B14B4A3C46801A06FA00F018430490EFE7D90644BF20228DF82E
:4007400053201A0744BF2B228DF8532022782A2A03D0079A00210A200BE0039A111D12680391002A10DA524243F00200079204900BE027463B780134303B092B03D800FB6D
:4007800002320121F5E701B107923B782E2B1ED17B782A2B0AD1039B02371A1D1B680392002BB8BF4FF0FF33059310E0002319460593781C0A2407463A780130303A092A34
:4007C00003D804FB01210123F5E703B1059103223978224800F0E6F940B14023CBEB000003FA00F0049B013718430490397806221B487E1C8DF8281000F0D4F988B1194BFA
:4008000033B9039B073323F007030833039314E003AB00932A46144B04A94046AFF3008007E003AB00932A460F4B04A9404600F093F8B0F1FF3F824603D0099B53440993BC
:4008400042E7AB895B0601D4099801E04FF0FF301DB0BDE8F08F00BF2E0E0000340E0000380E000000000000D10500002DE9F04791461F460A698B6806469342B8BF1346CB
:40088000C9F8003091F843200C46DDF8208012B10133C9F800302368990642BFD9F800300233C9F80030256815F0060510D104F1190A07E00123524639463046C0470130F4
:4008C0001AD00135E368D9F800209B1A9D42F1DB94F843302268003318BF012392060FD5E118302081F843005A1C94F845102244023382F8431003E04FF0FF30BDE8F087D8
:4009000004F1430239463046C0470130F4D02268D9F80050E36802F00602042A08BF5D1B2269A3680CBF25EAE57500259342C4BF9B1AED184FF000091A344D4509D0012309
:40094000224639463046C0470130D5D009F10109F3E70020BDE8F0872DE9F04317460A7E85B06E2A984606460C460C9B01F1430E00F0AE8011D8632A22D009D8002A00F041
:40098000BB80582A40F0CA8081F84520834955E0642A1ED0692A1CD0C0E0732A00F0B08009D86F2A2ED0702A40F0B8800A6842F020020A603EE0752A24D0782A3AD0ADE035
:4009C0001A6801F14205111D1960136884F84230A8E021681A6811F0800F02D0111D196008E011F0400F02F10401196002D0B2F9003000E01368002B3CDA2D225B4284F836
:400A0000432037E021681A6811F0800F02D0111D196007E011F0400F02F10401196001D0138800E01368227E5C496F2A14BF0A2208221BE078225A4984F84520226818688F
:400A400012F0800F00F104051D6003D1550601D5038800E00368D00744BF42F0200222601BB9226822F0200222601022002084F8430001E049490A226568002DA56008DB3D
:400A8000206820F0040020602BB9002D7DD175460CE0002B79D07546B3FBF2F002FB1033CB5C05F8013D03460028F5D1082A0BD12368DA0708D5236962689A42DEBF302303
:400AC00005F8013C05F1FF35C5EB0E0323612EE008681A6810F0800F496903D0101D1860136808E010F0400F02F104001860136801D0198000E0196000232361754616E0DD
:400B00001A68111D1960156800216268284600F049F808B1401B6060636804E004F1420584F8422001232361002384F84330CDF800803B4603AA21463046FFF797FE013022
:400B400002D14FF0FF3026E023692A4639463046C0470130F5D023689B0710D5002504F1190907E001234A4639463046C0470130E7D00135E368039A9B1A9D42F2DBE068AC
:400B8000039B9842B8BF184605E00B7804F1420584F842308AE705B0BDE8F0833F0E0000500E000010B5C9B202449042034605D01C7801308C42F8D1184610BD002010BD83
:400BC000884210B501EB020301D8421E0BE09842FBD28118D21AD34204D013F8014D01F8014DF8E710BD994204D011F8014B02F8014FF8E710BD000038B50546002944D081
:400C000051F8043C0C1F002BB8BFE41800F0D4F81E4A1368114613B96360146030E0A3420DD92268A018834201BF18685B681218226063600C6023E0A24203D813465A68CC
:400C4000002AF9D118681918A1420BD12168014458188242196013D110685268014419605A600DE002D90C232B6009E021686018824201BF106852680918216062605C60C5
:400C80002846BDE8384000F098B838BD5C81FF1F70B5CD1C25F0030508350C2D38BF0C25002D064601DBA94202D90C23336046E000F082F8234B1C681A462146A1B10B68C5
:400CC0005B1B0ED40B2B03D90B60CC18CD501EE08C420BBF63684B681360636018BF0C4615E00C464968E9E7174C23681BB9304600F052F820602946304600F04DF8431C78
:400D000018D0C41C24F00304A0420DD12560304600F053F804F10B00231D20F00700C31A0ED05A42E25070BD211A304600F034F80130EBD10C233360304600F03EF8002095
:400D400070BD00BF5C81FF1F5881FF1FF8B5074615460E4621B91146BDE8F840FFF798BF1AB9FFF749FF2846F8BD00F027F885420ED929463846FFF78BFF044650B1314671
:400D80002A46FFF7EDFB31463846FFF735FF01E03046F8BD2046F8BD38B5064C0023054608462360FFF7A4FA431C02D1236803B12B6038BD6081FF1F7047704751F8040CD6
:400DC0000028BEBF091851F8043CC0180438704700000000526563696269646F3A2025630D0A0000486F6C6120646573646520616C756D6E6F730D0A00000000205100402F
:400E00005000C05100401000F0510040100000000140001000140140000800400140000A004C014000020050014020004300232D302B2000686C4C00656667454647003095
:400E4000313233343536373839414243444546003031323334353637383961626364656600000000F8B500BFF8BC08BC9E4670474D0000006D030000F8B500BFF8BC08BC7E
:400E80009E46704729000000980E0000C880FF1F7000000030000000000000006881FF1F0000000000000000000000000000000000000000000000000000000000000000BB
:400EC0002C0E0000000000000000000000000000000000000000000000000000000000000000000000000000000000000000000000000000000000000000000000000000B8
:400F0000D080FF1F00000000000000000000000000000000000000000000000000000000000000000000000000000000000000000000000000000000000000000000000043
:400F40000000000000000000000000000000000000000000000000000000000000000000000000000000000000000000000000000000000000000000000000000000000071
:400F80000000000000000000000000000000000000000000000000000000000000000000000000000000000000000000000000000000000000000000000000000000000031
:400FC00000000000000000000000000000000000000000000000000000000000000000000000000000000000000000000000000000000000000000000000000000000000F1
:4010000000000000000000000000000000000000000000000000000000000000000000000000000000000000000000000000000000000000000000000000000000000000B0
:020000040003F7
:0200000480007A
:4000000002520040036400405F000140390101406B02014040030140060501400441014004420140025001400002040180388172820F0202040806040A020C080E041001AC
:40004000140C1701180C2301240128013004320234083501360138023E143F104021410342054404450C470E481149FF4AFF4BFF4C624DA04EF04F41500C541858045904CE
:400080005A045B045F016640670269106A306B106D106E106F1280118110840C8527867387188833893C8B028D1C8E738F219380947F9508987399189A0C9C229F04A0087F
:4000C000A13FA404A504A780A80CAB40AC0FAE70AF23B04CB1C0B40FB51FB630B738BA2ABB20BF01D602D712D804D904DB04DF0100A202A1040805A209280A400D280E0215
:40010000100811041601171A180119891A041C881D281E012304244826A029012DA02F683208360137593C883E023F20404141284220481152085A015E04614063046C08E6
:400140006D246E406F047602771A7A207B10C0FFC2EEC4F6CAF1CCF2CEF0D00FD208D641D80C004001100220050C06150813090C0A0C0C800E2011081304142016C0180397
:400180001A141C131E04220824E02504270928E029022C0A2E143010310132E03302340F3510370C3A203E013F1440324101450C46B047E0482949FF4AFF4BFF4EF04F44DF
:4001C000500C5401580459045A045B045F0166C06A406B028410858086AC87138C0C8E71930C94DC952C962297439A039C099ED09F08A010A171A240A30EA414A971AA2095
:40020000AB06B0E0B1C0B30FB41FB530B922BA02BB08BF10C002C604C9FFCA07CBFFCC40CD20CEF0CF05D008D804D904DA04DF01E040E1A8E240E3200004020104080512A8
:40024000070109080A060E200F0A10A01204140115021608170419211A041B011C041D101E601F0821192201275929112A212D202F20308031083201370138083C013D244D
:400280003E0A411046254F0850845204542056025C215E405F0891049B049D029F41A110A728AD48AE20AF40C0F5C2E7C4FECA65CC8BCEE2D074D6F0AB10AC01AD0AAF2038
:4002C000B420B70403805620C010D440AA20AF80EA20EC1000010801020001020200020000000000000B0B000000000000000000000000000000000000000000000000006A
:4003000000000000000000000000000000000000000000000000000000000000000000000000000000000000000000000000000000000000000000000000000000000000BD
:40034000000000000000000000000000000000000000000000000000000000000000000000000000000000000000000000000000000000000000000000000000000000007D
:40038000000000000000000000000000000000000000000000000000000000000000000000000000000000000000000000000000000000000000000000000000000000003D
:4003C00000000000000000000000000000000000000000000000000000000000000000000000000000000000000000000000000000000000000000000000000000000000FD
:0200000490006A
:0400000000004005B7
:0200000490105A
:04000000BC90ACAF55
:0200000490303A
:020000000C9062
:0200000490402A
:4000000000000000000000000000000000000000000000000000000000000000000000000000000000000000000000000000000000000000000000000000000000000000C0
:400040000000000000000000000000000000000000000000000000000000000000000000000000000000000000000000000000000000000000000000000000000000000080
:400080000000000000000000000000000000000000000000000000000000000000000000000000000000000000000000000000000000000000000000000000000000000040
:4000C0000000000000000000000000000000000000000000000000000000000000000000000000000000000000000000000000000000000000000000000000000000000000
:0200000490501A
:0C00000000012E12306900012E183CF99E
:00000001FF