:400000000080002011000000850400008504000008B5044B1A6803F53F5302331A6000F051FA00BFFA46004010B5054C237833B9044B13B10448AFF300800123237010BD1A
:400040005081FF1F00000000A83B0000084B10B51BB108490848AFF300800848036803B910BD074B002BFBD0BDE81040184700BF000000005481FF1FA83B0000C880FF1F2C
:400080000000000010B50021084600F003FF264800F0E6FE00F080FD00F0F8FD62B6002000F010FE00F08CFD002000F099FD00F08FFD00F0ADFD04B2012000F003FE00F063
:4000C0007FFD002000F08CFD00F082FD00F0A0FD01B2204600F0FCFE00F00EFF134A82FB0032C117C1EB62126FF0630303FB0203002B01DA4FF0FF330D4C0E49204603F0A3
:400100002FF90021012000F0C5FE0B4800F0A8FE0021012000F0BEFE204600F0A1FE642001F054F8BBE700BFB03B00001F85EB516C81FF1FC43B0000D83B0000FEE700BF28
:40014000F0B40022174611E050F82760F3B226F0FF0608E001EB420511F812406D78A5550132013BDBB2002BF4D101370C2FEBD9F0BC70470A4B1B78DBB203F00701094A3E
:4001800011701B09013213701022074B1A70202203F687131A704422A3F21E231A707047CF0100496E5800400D51004008B50A46002103F0CCF808BD08B503F0BDF808BD69
:4001C00038B500242C4B1C80502202331A7004222A492B48FFF7F0FF02222A4B1A7008224FF040231A70032103F500731970264B1B78DBB225490B70254B1A8041F25122FE
:40020000023B1A8019250CE0224B1B7803F0010343EA440404F003044FF4F07001F024F8013D0DB1032CEFD115B90320FFF786FF194B4FF480721A8007221A7000221749E7
:400240000A704820023108701A700222033B1A7004220A331A70124A137843F001031370013A137843F001031370013A137843F08003137038BD00BF804000407C000048F6
:40028000004100400043004008010049A146004022420040254200400440004006400040A2430040012814D810B44000C0B2094B53F820101A18147C0A7822430A70013099
:4002C000C0B253F820201844017C13780B43137010BC7047EC3B0000012816D810B44000C0B20A4B53F820101A18147C0A7822EA04020A700130C0B253F820201844017CEE
:40030000137823EA0103137010BC7047EC3B0000012818D810B44000C0B20B4B03EB800251691A1892F824400A7822430A700130C0B203EB80025269184490F824101378F3
:400340000B43137010BC7047EC3B000001281AD810B44000C0B20C4B03EB800251691A1892F824400A7822EA04020A700130C0B203EB80025269184490F82410137823EA44
:400380000103137010BC7047EC3B000038B572B62C4A137843F00403137000240BE02A4863001A19510001440A46898D906AFFF7FDFE0134E4B2072CF1D924494FF09040F7
:4003C000FFF7BEFE0A22224B1A70224A137843F0020313701032137843F0020313701E4C237843F040032370A2F58632513A137843F010031370082218491948FFF7DCFEF6
:40040000082218491848FFF7D7FE082217491848FFF7D2FE174A137843F008031370164D61232B70FFF7CCFE81232B700122134B1A70FFF79FFE0E2221461148FFF7BCFEEA
:4004400038BD00BFE8460040EC3B0000340000488358004003500140A043004064000048025100406C00004812510040740000482251004022430040004800400400084067
:40048000B043004008B502F02BFF03680C2B00D1FEE7FEE708B5094B1A681044084BC31A802B02DC054B186005E002F019FF0C2303604FF0FF32104608BD00BFCC80FF1F56
:4004C000A081FF1F08B5104E104D16E029686B68AC68002204E051F8040B43F8040B0432A242F8D1E868002203E0002143F8041B04328242F9D11035013E002EE6D102F05D
:40050000F5FEFFF7BFFDFEE701000000BC3C000008B5104A104B1A60104A136843F40073136000230AE0032B03D80D4A52F8231000E00C490C4A42F8231001332F2BF2D91F
:400540000A4B1A780A4B1A70074A0A4B1A60FFF71DFF08BD0004FA050CED00E014ED00E000000000850400000080FF1FBC760040C080FF1F08ED00E038B59DF81040651EE0
:40058000EDB2032D51D8013809282ED8DFE800F0052D2D052D2D0F192D230F2B03D92548007840B222E02448007840B21EE00F2B03D92248007840B218E02148007840B26E
:4005C00014E00F2B03D91F48007840B20EE01E48007840B20AE00F2B03D91C48007840B204E01B48007840B200E0002001EB401101FB02F2D20B91B20D2B0BD8C3F10E01B8
:4006000092B20A4191B2621E124800EB82020133937005E0631E0F4A02EB83030F229A70013C0C4B23F8241038BD002000F0CCFD38BD00BF180100491C010049190100496B
:400640001D0100491A0100491E0100491B0100491F0100497881FF1FF8B5074600F00CFE06460D4D2B7843F003032B700B4C237843F0030323700A4B1F70032000F0BCFDE3
:400680002B7803F0FC032B70237803F0FC032370304600F0F5FDF8BDF8460040F946004092580040F8B504460022BB4B1A7401285AD13822B94B1A70042202331A700722BF
:4006C00001331A70002501331D7001331D703F2201331A7002331D7001331D7001331D7001260A331E70502203F527631A70272201331A702C2201331A7001331D70552277
:4007000003331A705A2201331A70052701331F7002331E70112201331A70192201331A70972201331A704420FFF796FF58229C4B1A7001331D7005331F7001331E70013354
:400740001D700A2201331A704FF4FA42954B1A603146384600F048FC3146252000F0C8FC91491D2000F052FD022C5AD138228B4B1A70042202331A70072201331A70002536
:4007800001331D7001331D703F2201331A7002331D7001331D7001331D7001260A331E70502203F527631A70272201331A702C2201331A7001331D70552203331A705A225D
:4007C00001331A70052701331F7002331E70112201331A70192201331A70972201331A704420FFF739FF58226D4B1A7001331D7005331F7001331E7001331D700A2201336F
:400800001A704FF4FA42674B1A603146384600F0EBFB3146252000F06BFC64491D2000F0F5FC032C5AD138225C4B1A70042202331A70072201331A70002501331D7001330F
:400840001D703F2201331A7002331D7001331D7001331D7001260A331E70502203F527631A70272201331A702C2201331A7001331D70552203331A705A2201331A700527A7
:4008800001331F7002331E70112201331A70192201331A70972201331A704420FFF7DCFE58223F4B1A7001331D7005331F7001331E7001331D700A2201331A704FF4FA421B
:4008C000384B1A603146384600F08EFB3146252000F00EFC36491D2000F098FC042C5AD138222E4B1A70042202331A70072201331A70002401331C7001331C703F220133DA
:400900001A7002331C7001331C7001331C7001250A331D70502203F527631A70272201331A702C2201331A7001331C70552203331A705A2201331A70052601331E70023318
:400940001D70112201331A70192201331A70972201331A704420FFF77FFE5822104B1A7001331C7005331E7001331D7001331C700A2201331A704FF4FA420A4B1A602946A5
:40098000304600F031FB2946252000F0B1FB09491D2000F03BFCF8BD7881FF1F004E0040945800409881FF1F7D0C0000810C0000850C0000890C00002DE9F04182B0394EA6
:4009C0004FF0010886F80080374F00247C74102000F0F8FA102000F079FB07211D2000F029FC0425314B1D7001331C7007331C702F4A137843F0180313702E4B1C7003F270
:400A0000F5231C7001331C700A22A3F209331A7001331C7002331C705B2205331A705E2201331A7004331C701422A3F68C231A70CDF8008010234FF4004249F2DA01284681
:400A4000FFF79AFD0223009310234FF4004249F2DA012846FFF790FD0323009310234FF4004249F2DA012846FFF786FD009510234FF4004249F2DA012846FFF77DFD337818
:400A8000013B07EB83039A780B4B1A703378013B37F82320094B1A803078FFF703FE02B0BDE8F081D080FF1F7881FF1F96580040075B0040935800400E4E00400C4E00402C
:400AC00070B500F0D9FB06462A4B1B782A4B1A7842F001021A701A7842F010021A7010331A7842F001021A701A7842F010021A70224D2B7843F002032B70214C237843F07F
:400B0000020323701F4A137843F003031370032000F072FB2B7803F0FD032B70237803F0FD032370184A137843F0060313707A22164B1A70164A137843F001031370103281
:400B4000137843F0010313700F3A137843F0010313701032137843F0010313704FF000530C4A1360A2F5C0721360304600F088FB70BD00BFD080FF1FAA430040F846004096
:400B8000F9460040915800407758004082580040A143004080E200E008B5084B9B7C4BB9064BDB7C13F0FF0F01D1FFF705FF0122024B9A74FFF784FF08BD00BF7881FF1FBC
:400BC000024A137843F0010313707047004E0040024A137803F0FE0313707047004E0040094B1B7C13F0FF0F03D0074B5B7CDBB203E0064B1B7803F00103012B01D0002824
:400C0000EED01846704700BF7881FF1F014E0040154B1B7803F00303012B07D8134B1888023B1B889BB243EA004013E0022B0AD10E4B1888023B1B7843EA00430C4A1078DB
:400C400043EA002006E00B4B188883B2074A108843EA0040084B1B7C13F0FF0F02D00022054B5A74704700BF144E0040124E0040114E0040104E00407881FF1F704700BF31
:400C8000704700BF704700BF704700BF10B5002407E02046FFF720FB2046FFF757FB0134E4B2012CF5D9FF22014B1A7010BD00BFD180FF1F10B50446FFF70EFB2046FFF7BB
:400CC00045FB10BD10B50446074B1878FF2801D0FFF7F0FF2046FFF7E5FA2046FFF718FB014B1C7010BD00BFD180FF1F10B50B4C237803F09F032370237803F0F0032370A9
:400D00002378184340F010002070012000F074FA237803F0EF03237010BD00BF2051004038B505460E4C237843F020032370237803F0BF032370002000F05EFA237803F02F
:400D4000F003237023781D4345F010052570012000F052FA237803F0EF03237038BD00BF2051004070B5354B1A7802F08002D2B21A7033490A7802F0F00242F00F020A70E6
:400D800001310A7802F0F0020A7001310A7802F0F0020A701A7802F0DF021A701A7842F040021A704FF4CA76002000F025FA234D2B7843F010032B70012000F01DFA214B56
:400DC0001C78E4B22B7803F0EF032B70002000F013FA04F00804E4B22B7843F010032B70012000F009FA2B7803F0EF032B7014B90A2000F001FA013E0CB1002ED4D10F4A2E
:400E0000137803F0BF031370137803F08003DBB213700232137803F0F00313700132137803F0F00343F00F0313700132137803F0F00343F00F03137070BD00BF2051004041
:400E4000225100402151004010B50446FFF78AFF2009FFF765FF04F00F00FFF761FF10BD38B505460078012404E0FFF7EDFF285D0134E4B20028F8D138BD00BF10B5044637
:400E8000FFF770FF2009FFF731FF04F00F00FFF72DFF10BD08B5032819D8DFE800F002070D1381F08000FFF7E9FF08BDA1F14000C0B2FFF7E3FF08BDA1F16C00C0B2FFF7F8
:400EC000DDFF08BDA1F12C00C0B2FFF7D7FF08BD42F2107303FB01F1002805DA4342C3F34E035B421BB201E0C0F34E03194491FBF0F0704700000000F8B501F055FE00F0A6
:400F0000C3F902F077F901F071FE06460F461EA3D3E9002301F0BEFE1DA3D3E9002301F007FD04460D4600221F4B3046394600F02BFA19A3D3E9002301F0ACFE02460B46AF
:400F40002046294601F0F4FC02F054F901F04EFE02460B460020154901F0C6FF10A3D3E9002301F0E3FC0022114B01F093FE0022104B01F0DDFC02F03DF902F08BF900B279
:400F8000F8BD00BFAFF300806943AA9AB34D303FD8FD850B29994D3F4D33E44425658B3E6666666666127140000008400000F03F000059400000E03F014B188880B27047C9
:400FC00080400040034B1A7800F0F80010431870704700BF82400040024B187800F00700704700BF8240004070B505460E46FFF7F3FF0446FFF7E0FFA84256D02B4B1B78A6
:4010000003F0010294B900B185B938B9284B1D80284A137803F0BF03137070BD254A137843F040031370224B1D8070BD22B3002321490B7001240F310C7004310B700C393E
:401040000B7803F07F030B701A4B1B7813F0080F00D08DB9194B18800721013B1970164B1B7813F0010FFAD110490B7803F0FE030B700021104B19700C4B1B7813F0010FCD
:401080000DD00E4B1D800EB1032200E001220A4B1A70094B1B7813F0010FFAD170BD044B1D8002490B7813430B7070BDA243004080400040824000400140004002400040C3
:4010C000014B188880B2704700410040034B1A7800F0F80010431870704700BF02410040024B187800F00700704700BF0241004070B505460E46FFF7F3FF0446FFF7E0FF66
:40110000A84256D02B4B1B7803F0010294B900B185B938B9284B1D80284A137803F0BF03137070BD254A137843F040031370224B1D8070BD22B3002321490B700124133191
:401140000C7004390B7008390B7803F07F030B701A4B1B7813F0080F00D08DB9194B18800721013B1970164B1B7813F0010FFAD110490B7803F0FE030B700021104B197054
:401180000C4B1B7813F0010F0DD00E4B1D800EB1032200E001220A4B1A70094B1B7813F0010FFAD170BD044B1D8002490B7813430B7070BDA14300400041004002410040C7
:4011C000014000400240004001BE704710B5044605E0084B186800F047F8A4F50044B4F5004FF6D8034B586800FB04F000F03CF810BD00BFD480FF1F08B5034B1B7A00FB23
:4012000003F000F031F808BDD480FF1F70B504460E46074B1D681F2802D90020FFF7D4FF04F01F04103455F8240045F8246070BD08ED00E038B504460D46072902D9002082
:40124000FFF7C2FF1F2C02D90020FFF7BDFF04F01F0000F1604000F564406D01EDB2057038BD00BF000000000230800803D000BF01380046FCD17047EFF3108072B67047AC
:4012800080F31088704700BF2DE9F0418AB004460D4600F011FA374B064693F900800F46B8F1FF3F0DD022462B462046294601F08BFF30B9002200232046294601F07AFF0B
:4012C00020B1304639460AB0BDE8F0812A4B0890CDE90245CDE904450193B8F1000F19D1264F4FF060462046294600220023CDE9066701F037FF002834D0022300936846C9
:4013000001F0FEF9A8B1089BC3B9DDE906010AB0BDE8F0811A4F00262046294600220023CDE9066701F01EFF68B1022398450093E5D101F0D5FF22230360E4E701F0D0FF7A
:40134000089B0360E1E70123B8F1020F00930BD101F0C6FF212303600A4801F0D3F9CDE90601D0E701230093684601F0C9F90028F2D1EDE7E480FF1F443C0000FFFFEFC7E5
:401380000000F0FFD43B00002DE9F04F8DB006460F4614461D4600F083FBDFF81093CDE9000199F90080B8F1FF3F46D022462B462046294601F008FF834600283DD1324674
:4013C0003B463046394601F0FFFE8246002874D1304639460022002301F0C4FE002833D0002200232046294601F0BCFE8346B8B1A94A012300200021CDF828A0CDE904673F
:40140000CDE90645CDE9080103920293B8F1000F6CD0A24B0022104619460DB0BDE8F08F2046294601F066F938B1002200232046294601F0A1FE00286AD1DDE900231046CF
:4014400019460DB0BDE8F08FDDE9000101F052F9804600287DD0DDE900014FF0000A4FF0000B52465B4601F07DFE0028E5D03046394601F03FF90028DFD02046294601F057
:4014800039F90028D9D099F90030834804210022022BCDE90467CDE90645CDE908AB039002910A9204D002A801F02AF9002847D101F016FF2223036042E00022002320468E
:4014C000294601F04FFE0028B7D0744B724800220121B8F1020FCDF828B0CDE90467CDE90645CDE9082303900291A8D002A801F007F900287ED00A9B43B301F0F1FEDDE989
:4015000008230A990160104619460DB0BDE8F08F614999F900300122CDF828B0CDE90467CDE9064503910292002B68D05C490020022BCDE9080166D101F0D2FE21230360BD
:401540000A9B1BB101F0CCFE0A9B0360DDE9082375E73046394601F0CDF800283FF47BAF2046294601F0C6F800283FF474AFDDE900231046194601F027FE00286FD1464B0B
:4015800099F90080039303230A90CDE90467CDE906450293B8F1000F3BD1DFF814B14FF0604A0022002330463946CDE908AB01F0E3FD00283FF477AF00223A4B2046294652
:4015C00001F068FB04460D4601F0A2F802460B462046294601F0C6FD00283DD1324B4FF06042CDE9082399F90080B8F1020F7FF45AAF5DE701F074FE212303607BE70023BD
:401600000024CDE9083402A801F07AF8002897D192E7DFF8A0B04FF0000A0022002330463946CDE908AB01F0A7FD0028DDD000221C4B2046294601F02DFB04460D4601F0FC
:4016400067F802460B462046294601F08BFD18B9134B0022CDE9082399F90080C5E70E4A99F900900123CDF82880CDE90467CDE9064503920293B9F1000FC0D0002200234F
:401680001046194601F030FCB9F1020FCDE908013FF452AFB7E700BF483C00000000F03F0000F0FF0000E03FFFFFEFC7E480FF1FFFFFEF470000F07F2DE9F04FB1F5801F19
:4016C00085B006460F460B465ADA024621F00044224300F0F7800029C0F279810022D64B01F0D8FA0B460F46D44906468B426FF0350249DCC3F3130505F5152404F66474E1
:4017000004F4801E8EF07F5181F440111B15A3F2FF3341EA05079C1830460022C84B394604EB1E5401F002F9AB1CC3F31303022B82468B464FF000022FDC002301F012FDDE
:40174000002800F0C880002C00F04A81204601F03BFAA5A3D3E9002306460F4601F09AFAA3A3D3E9002304460D463046394601F091FA02460B462046294601F0D9F809E0FD
:40178000AE4900228B42B5DD32463B463046394601F0CEF805B0BDE8F08F4FF0804301F0C7F802460B465046594601F09DFB064620460F4601F008FA3246CDE900013B4680
:4017C00030463946CDE9026701F064FA02460B468046894601F05EFA87A3D3E9002306460F4601F057FA86A3D3E9002301F0A0F832463B4601F04EFA83A3D3E9002301F06A
:4018000097F832463B4601F045FA81A3D3E9002301F08EF842464B4601F03CFA7EA3D3E90023804689463046394601F033FA7CA3D3E9002301F07CF832463B4601F02AFA1D
:4018400079A3D3E9002301F073F832463B4601F021FA0B4602464946404601F069F8A5F5C223C5F5D725A3F27A4351351D43002D8046894656DD0022724B5046594601F0A5
:4018800009FA52465B4601F005FA06460F46002C68D132463B464046494601F049F8DDE9022301F0F7F902460B463046394601F03DF802460B465046594601F037F805B093
:4018C000BDE8F08F0022002300205F4901F00CFB05B0BDE8F08F56A3D3E900235046594601F0D8F902460B460020564901F01EF8524606460F465B465046594601F0CAF9F5
:4019000002460B463046394601F0C4F906460F46002C40F09B8002460B465046594601F005F837E7002C00F0A5802FA3D3E90023DDE9000101F0AEF942464B4604460D4672
:401940005046594600F0F2FFDDE9022301F0A2F927A3D3E9002306460F46DDE9000101F099F921E020A3D3E90023DDE9000101F091F932463B4604460D464046494600F0C6
:40198000D7FFDDE9022301F085F919A3D3E9002380468946DDE9000101F07CF902460B464046494600F0C4FF02460B463046394600F0BCFF52465B4600F0B8FF02460B4687
:4019C0002046294600F0B2FF05B0BDE8F08F02460B4600F0ABFF0022002301F085FAD9E600200021D6E600BF0000E0FE422EE63F763C7935EF39EA3D44523EDF12F1C23F5C
:401A0000DE03CB966446C73F599322942449D23F935555555555E53F9FC678D0099AC33FAF788E1DC571CC3F04FA97999999D93F555555555555D53F00005043FFFFEF7F46
:401A40000000F03F0000E03F000050C3204601F0BBF80FA3D3E900238046894601F01AF90DA3D3E9002304460D464046494601F011F999E702460B465046594600F056FF02
:401A8000DDE9022301F006F913E700BFAFF300800000E0FE422EE63F763C7935EF39EA3D2DE9F04F23F0004858EA020993B03CD0714C21F00046A64283460D460CDD06F10A
:401AC000404606F5801656EA0B0038D183466B49584613B0BDE8F08F9A4696462BD0A045EDDC654CA04578D0002D0F468146CDE9002376DB0024BEF1000F27D15E4B984563
:401B000000F08B805D4B984552D0BAF1804F00F0C9835B4B9A4519D1002D17DB4846394613B0BDE8F04F00F01DBDCB465846534913B0BDE8F08F0028C1D1B045D1DD514819
:401B400013B0BDE8F04F00F0DDBD00244846394600F0CCFDBBF1000F1CD0ED0F013D54EA050370D0484B984540F3948003F10473984540F30D84454B9E4270DDBAF1000FA9
:401B800070DD3BA3D3E900231046194601F082F883469DE726B1394B25F040429A42DCD1BAF1000FC0F2B783002D08DB83468FE7BAF1000FC0F25E84CB46394688E706F1FA
:401BC000404606F5801656EA040300F08384012CECD101F1004183467AE7BEF1000F83D06DE72B4B98452CDCA3F15473984581DD4FEA2853A3F2FF33142B40F35384C3F17B
:401C000034032EFA03F202FA03F39E457FF472AF02F00102C2F102046DE706F1404303F5801353EA0B0300F03A83184B9E4240F36783BAF1000F15DBDDE900349B4621469C
:401C400046E7022457E74A4648463B46394600F06DFE02460B4601F047F9834638E7BAF1000F8EDB4FF0000B594631E7AFF300809C7500883CE4377E0000F07F0000F03F56
:401C80000000E03FD43B00000000E041FFFFEF3FFFFF3F43B6F5801F4FF0000205DAD04B00F0F8FF0E466FF03402DFF844E33315C6F31306A3F2FF3346F07F57764503EB40
:401CC000020A47F4401740F3C983C64B00229E4240F304840023CDE90823CDE90C23C24B0022CDE906230AF1010AA7F5801700263946DDE90623CDE90A0100F017FEDDE9A9
:401D0000062380468946DDE90A0100F011FE02460B460020B44901F0E7F80A4601461346CDE90E1202464946404600F0B3FF8C4683467B1043F0005303F500239919002031
:401D4000CDE904BC06460F464FF0000B6146584632463B46CDE910BCCDE9020100F09AFF02460B464046494600F0E0FDDDE90623804689463046394600F0D8FD02460B46AE
:401D8000DDE90A0100F0D2FDDDE9022300F082FF02460B464046494600F0C8FDDDE90E2300F078FFDDE90478CDE906013A4643463846414600F06EFF77A3D3E900230646C7
:401DC0000F4600F067FF76A3D3E9002300F0B0FD32463B4600F05EFF73A3D3E9002300F0A7FD32463B4600F055FF71A3D3E9002300F09EFD32463B4600F04CFF6EA3D3E918
:401E0000002300F095FD32463B4600F043FF6CA3D3E9002300F08CFD3246804689463B463046394600F036FF02460B464046494600F030FFDDE9022306460F46DDE904019F
:401E400000F076FDDDE9062300F024FF32463B4600F06EFDDDE902678046894632463B463046394600F016FF0022604BCDE90A0100F05EFD42464B4600F05AFDDDE910BC27
:401E80000F46DDE902015A463B46CDE90EBC5E4600F000FF0022CDE90201544B3046394600F044FDDDE90A2300F040FD02460B464046494600F03AFDDDE9042300F0EAFE76
:401EC000324680468946DDE906013B4600F0E2FE02460B464046494600F02AFD8046894602460B46DDE9020100F022FDDDE90EBC35A3D3E900235846CDE906BC5E460F4696
:401F000000F0C8FEDDE90223CDE904013046394600F00CFD02460B464046494600F006FD2BA3D3E9002300F0B5FE2BA3D3E90023804689463046394600F0ACFE02460B46FC
:401F40004046494600F0F4FCDDE90C2300F0F0FC80465046894600F037FE06460F46DDE9040142464B4600F0E3FCDDE9082300F0DFFC32463B4600F0DBFCDDE906BC32467B
:401F800058463B46DA468B4600F0D0FCDDE9082330E000BFAFF30080EF4E454A287ECA3F65DBC9934A86CD3F01411DA96074D13F4D268F515555D53FFFAB6FDBB66DDB3F52
:401FC000033333333333E33F000000E009C7EE3FFD033ADC09C7EE3FF5015B14E02F3EBE0000404379B60B000000F03F000008408E98030000F09AFCDDE9042300F096FC0B
:4020000002460B464046494600F090FC80468946DDE90012013C54EA050314BFD64CD74C0023CDE904340B461446CDE9023400230293DDE9024508462B461146224600F093
:4020400075FC52465B4600F025FEDDE9002306460F464046494600F01DFE02460B463046394600F065FC06460F4622462B4650465946CDE9006700F00DFE0B4602468046F4
:4020800089463046394600F053FCBD4B064699420D460C4640F30E8101F13F4303F5E003034340F0F081A0A3D3E90023DDE9000100F03EFC424682468B464B4630462946A7
:4020C00000F034FC02460B465046594601F072F8002840F0D8812F463B154FF48012A3F2FE3342FA03F32344C3F30A52A54EA2F2FF321641C3F3130B0020C2F1140523EAFF
:4021000006014BF4801B02460B46002C4BFA05FB40464946B8BFCBF1000B00F007FC02460B4680468946DDE9000100F001FC4FEA0B5A00247EA3D3E9002320460D4600F021
:40214000A9FD424606460F464B462046294600F0EDFB02460B46DDE9000100F0E7FB76A3D3E9002300F096FD75A3D3E90023804689462046294600F08DFD02460B464046AB
:40218000494600F0D5FB8046894602460B463046394600F0CDFB32463B4604460D4600F0C5FB02460B464046494600F0BFFB2246804689462B462046294600F06BFD62A3B7
:4021C000D3E9002306460F4600F064FD60A3D3E9002300F0ABFB32463B4600F05BFD5EA3D3E9002300F0A4FB32463B4600F052FD5BA3D3E9002300F099FB32463B4600F064
:4022000049FD59A3D3E9002300F092FB32463B4600F040FD02460B462046294600F086FB06460F4602460B462046294600F032FD0022CDE900014FF080433046394600F00D
:4022400075FB02460B46DDE9000100F04DFE424606460F464B462046294600F01BFD42464B4600F065FB02460B463046394600F05DFB22462B4600F059FB02460B460020A7
:402280003D4900F053FB8A44BAF5801FC0F237815146DDE9042300F0FDFC834618E4F346354915E44A4648463B46394600F0F2FC83460DE4344B21F000479F4240F30181CF
:4022C000324B0B4403430CD142464B4600F02EFB02460B46DDE9000100F058FF00283FF4FBAE23A3D3E90023DDE9040100F0D2FC1FA3D3E9002300F0CDFC8346FFF7E8BB28
:40230000BAF1000FBFF6AEACDDE900349B4604F10041FFF7DDBB02460B460020164900F0E3FD41E4AFF30080FE822B654715973C00000000432EE63FEF39FAFE422EE63F7C
:40234000396CA80C615C20BED0A4BE726937663EF16BD2C541BDBB3E2CDE25AF6A56113F93BDBE166CC1663F3E5555555555C53F59F3F8C21F6EA5010000F03F0000F0BFB1
:40238000FFFF8F40FFFF0F00FFCB904000346F3F6F4B9E427FF763AC6E4B9E423FF7EEAB00226C4B00F0C2FA5BA3D3E9002306460F4600F06FFC5AA3D3E900238046894671
:4023C0003046394600F066FC002282468B46624B3046394600F05EFC02460B4652A1D1E9000100F0A3FA32463B4600F053FC02460B460020594900F099FA3246CDE90201D4
:402400003B463046394600F045FC02460B46DDE9020100F03FFC46A3D3E9002300F03AFC02460B465046594600F080FA02460B4606460F464046494600F07AFA42464B4676
:40244000002082468B4600F071FA02460B463046394600F06BFA80468946D9E500220023CDE90823CDE90C233A4B00220026CDE906233DE44A463B460020364900F034FD69
:402480008346FFF725BB2CA3D3E90023DDE9040100F000FC28A3D3E9002300F0FBFB8346FFF716BBBEF1000F7FF44FABC3F1140348FA03F202FA03F3984524D07446FFF758
:4024C00021BB264B9F423FF707AEDDE902349A469B462EE602460B46FFF7B9BB204B4FF48026CDE9062316A3D3E90023CDE9082315A3D3E90023CDE90C23FFF7F9BB5A467D
:4025000000F096F9C5E602F00102C2F10204FFF7F9BA00BFAFF30080000000604715F73F44DF5DF80BAE543E555555555555D53FFE822B654715F73F9C7500883CE4377E62
:402540000000004003B8E23F06D0CF43EBFD4C3EFEFFEF3F0000F03F0000D03F0000E03F0000F83F2DE9F0415F4E0C46B6460E407645054600F0988000290B46024674DD75
:402580005FEA215E7FD0AEF2FF3EC3F313031EF0010F43F4801363D100273E4603EBD2710B444FEA6E0E520016204FF4001174189C424FEAD2754FEA420202DC1B1B66188A
:4025C0000F44013805EB43034FEA5101EFD1844620244FF0004109E020D003EBD275013C4FEA51012B444FEA420220D09E4201EB0C05F1DA002D05EB010C09DBB04695420B
:40260000A3EB060300D9013B4646521B0844E4E7BCF1000FF2DB06F10108F0E7954217D8002D05EB010C49DB98460023ECE7134310D140087B1003F17F5303F50013FA07BA
:4026400003EB0E57394648BF40F00040BDE8F0813346C2E7411C35D000F001031844E8E75B0003EBD273520096E721F000460643ECD079BB8E46D30AAEF1150E5205002B76
:40268000F9D0DD0221D4002100E001465B00DC0201F10100F9D5C0F1200422FA04F42343C1EB0E0E82406EE702460B4600F0F2FA2A46234600F03CF9BDE8F081BCF1000FC8
:4026C000A9DAB1E701372046B4E720244FF0FF310020E2E702460B4600F028F902460B4600F002FCB2E700BF0000F07F21F00041704700BF41F0004101F58010C00F7047AC
:402700000020704700200149704700BF0000F87FF0B5C1F30A5EAEF2FF36132E83B002460B460C464FEAD17507462EDC002E49DB3D49314103EA010010432BD049080B407E
:4027400053EA02070CD04FF48023132E24EA010143FA06F444EA01040CBF4FF000470027324B214603EBC505D5E90045384622462B4600F0DDF8CDE90001DDE9000122467D
:402780002B4600F0D3F803B0F0BD332E06DDB6F5806F45D01046194603B0F0BDAEF2134E4FF0FF3121FA0EF10842F3D049080842D6D04FF0804320EA010143FA0EFE4EEA1E
:4027C0000107CDE721F0004101431946E4D0C3F3130343EA000CCCF1000343EA0C0C134B640C4FEA1C3C0CF4002C03EBC5036404D3E900674CEA040132463B4600F098F8EA
:40280000CDE90001DDE9000132463B4600F08EF8024621F0004141EAC57310461946BBE700F086F8B8E700BFFFFF0F00503C0000F8B5C1F30A5604460D460B46174606BB25
:4028400021F00043034325D000222F4B00F022FA2E4A044697420D460B462ADBC1F30A56363E40F2FE723E44964228DC002E12DD23F0FF4323F4E00343EA0655204629468C
:40288000F8BD40F2FF729642EBD102460B4600F04FF8F8BDF8BD16F1350F1DDA4CF250339F420CDC14A1D1E9000122462B4600F031F811A3D3E9002300F0ECF9F8BD22463F
:4028C0000FA1D1E900012B4600F024F80CA3D3E9002300F0DFF9F8BD23F0FF4323F4E003363643EA0655204629460022084B00F0D1F9F8BDAFF3008059F3F8C21F6EA5018E
:402900009C7500883CE4377E00005043B03CFFFF0000903C03F0004321F0004242EA0301704700BF81F0004102E000BF83F0004330B54FEA41044FEA430594EA050F08BF6B
:4029400090EA020F1FBF54EA000C55EA020C7FEA645C7FEA655C00F0E2804FEA5454D4EB5555B8BF6D420CDD2C4480EA020281EA030382EA000083EA010180EA020281EA56
:402980000303362D88BF30BD11F0004F4FEA01314FF4801C4CEA113102D0404261EB410113F0004F4FEA03334CEA133302D0524263EB430394EA050F00F0A780A4F101040C
:4029C000D5F1200E0DDB02FA0EFC22FA05F2801841F1000103FA0EF2801843FA05F359410EE0A5F120050EF1200E012A03FA0EFC28BF4CF0020C43FA05F3C01851EBE371DD
:402A000001F0004507D54FF0000EDCF1000C7EEB00006EEB0101B1F5801F1BD3B1F5001F0CD349085FEA30004FEA3C0C04F101044FEA445212F5800F80F09A80BCF1004F93
:402A400008BF5FEA500C50F1000041EB045141EA050130BD5FEA4C0C404141EB010111F4801FA4F10104E9D191F0000F04BF01460020B1FA81F308BF2033A3F10B03B3F189
:402A800020020CDA0C3208DD02F1140CC2F10C0201FA0CF021FA02F10CE002F11402D8BFC2F1200C01FA02F120FA0CFCDCBF41EA0C019040E41AA2BF01EB0451294330BDFB
:402AC0006FEA04041F3C1CDA0C340EDC04F11404C4F1200220FA04F001FA02F340EA030021FA04F345EA030130BDC4F10C04C4F1200220FA02F001FA04F340EA0300294683
:402B000030BD21FA04F0294630BD94F0000F83F4801306BF81F480110134013D4EE77FEA645C18BF7FEA655C29D094EA050F08BF90EA020F05D054EA000C04BF194610468F
:402B400030BD91EA030F1EBF0021002030BD5FEA545C05D14000494128BF41F0004130BD14F580043CBF01F5801130BD01F0004545F0FE4141F470014FF0000030BD7FEA10
:402B8000645C1ABF194610467FEA655C1CBF0B46024650EA013406BF52EA033591EA030F41F4002130BD00BF90F0000F04BF0021704730B54FF4806404F132044FF000054D
:402BC0004FF0000150E700BF90F0000F04BF0021704730B54FF4806404F1320410F0004548BF40424FF000013EE700BF42004FEAE2014FEA31014FEA02701FBF12F07F4336
:402C000093F07F4F81F06051704792F0000F14BF93F07F4F704730B54FF4607401F0004521F0004120E700BF50EA010208BF704730B54FF000050AE050EA010208BF70472B
:402C400030B511F0004502D5404261EB41014FF4806404F132045FEA915C3FF4DCAE4FF003025FEADC0C18BF03325FEADC0C18BF033202EBDC02C2F1200300FA03FC20FA8B
:402C800002F001FA03FE40EA0E0021FA02F11444C1E600BF70B54FF0FF0C4CF4E06C1CEA11541DBF1CEA135594EA0C0F95EA0C0F00F0DEF82C4481EA030621EA4C5123EAE0
:402CC0004C5350EA013518BF52EA033541F4801143F4801338D0A0FB02CE4FF00005E1FB02E506F00042E0FB03E54FF00006E1FB03569CF0000F18BF4EF0010EA4F1FF04A4
:402D0000B6F5007F64F5407404D25FEA4E0E6D4146EB060642EAC62141EA55514FEAC52040EA5E504FEACE2EB4F1FD0C88BFBCF5E06F1ED8BEF1004F08BF5FEA500E50F14F
:402D4000000041EB045170BD06F0004646EA010140EA020081EA0301B4EB5C04C2BFD4EB0C0541EA045170BD41F480114FF0000E013C00F3AB8014F1360FDEBF002001F039
:402D8000004170BDC4F10004203C35DA0C341BDC04F11404C4F1200500FA05F320FA04F001FA05F240EA020001F0004221F0004110EBD37021FA04F642EB06015EEA430EA0
:402DC00008BF20EAD37070BDC4F10C04C4F1200500FA04F320FA05F001FA04F240EA020001F0004110EBD37041F100015EEA430E08BF20EAD37070BDC4F1200500FA05F28E
:402E00004EEA020E20FA04F301FA05F243EA020321FA04F001F0004121FA04F220EA020000EBD3705EEA430E08BF20EAD37070BD94F0000F0FD101F00046400041EB010197
:402E400011F4801F08BF013CF7D041EA060195F0000F18BF704703F00046520043EB030313F4801F08BF013DF7D043EA0603704794EA0C0F0CEA135518BF95EA0C0F0CD02D
:402E800050EA410618BF52EA4306D1D181EA030101F000414FF0000070BD50EA410606BF1046194652EA430619D094EA0C0F02D150EA013613D195EA0C0F05D152EA033677
:402EC0001CBF104619460AD181EA030101F0004141F0FE4141F470014FF0000070BD41F0FE4141F4780170BD70B54FF0FF0C4CF4E06C1CEA11541DBF1CEA135594EA0C0FB0
:402F000095EA0C0F00F0A7F8A4EB050481EA030E52EA03354FEA013100F088804FEA03334FF0805545EA131343EA12634FEA022245EA111545EA10654FEA00260EF000410F
:402F40009D4208BF964244F1FD0404F5407402D25B084FEA3202B61A65EB03055B084FEA32024FF480104FF4002CB6EB020E75EB030E22BFB61A754640EA0C005B084FEAB2
:402F80003202B6EB020E75EB030E22BFB61A754640EA5C005B084FEA3202B6EB020E75EB030E22BFB61A754640EA9C005B084FEA3202B6EB020E75EB030E22BFB61A754647
:402FC00040EADC0055EA060E18D04FEA051545EA16754FEA06164FEAC30343EA52734FEAC2025FEA1C1CC0D111F4801F0BD141EA00014FF000004FF0004CB6E711F4801F77
:4030000004BF01430020B4F1FD0C88BFBCF5E06F3FF6AFAEB5EB030C04BFB6EB020C5FEA500C50F1000041EB045170BD0EF0004E4EEA113114EB5C04C2BFD4EB0C0541EA8C
:40304000045170BD41F480114FF0000E013C90E645EA060E8DE60CEA135594EA0C0F08BF95EA0C0F3FF43BAF94EA0C0F0AD150EA01347FF434AF95EA0C0F7FF425AF10466D
:4030800019462CE795EA0C0F06D152EA03353FF4FDAE1046194622E750EA410618BF52EA43067FF4C5AE50EA41047FF40DAF52EA43057FF4EBAE12E74FF0FF3C06E000BF04
:4030C0004FF0010C02E000BF4FF0010C4DF804CD4FEA410C7FEA6C5C4FEA430C18BF7FEA6C5C1BD001B050EA410C0CBF52EA430C91EA030F02BF90EA020F0020704710F110
:40310000000F91EA030F58BF994208BF90422CBFD8176FEAE37040F0010070474FEA410C7FEA6C5C02D150EA013C07D14FEA430C7FEA6C5CD6D152EA033CD3D05DF8040B3F
:40314000704700BF8446104662468C461946634600E000BF01B5FFF7B7FF002848BF10F1000F01BD4DF808EDFFF7F4FF0CBF012000205DF808FB00BF4DF808EDFFF7EAFFDA
:4031800034BF012000205DF808FB00BF4DF808EDFFF7E0FF94BF012000205DF808FB00BF4DF808EDFFF7CEFF94BF012000205DF808FB00BF4DF808EDFFF7C4FF34BF01205B
:4031C00000205DF808FB00BF4FEA410C7FEA6C5C02D150EA013C0AD14FEA430C7FEA6C5C02D152EA033C02D14FF0000070474FF0010070474FEA4102B2F1E04324BFB3F528
:40320000001CDCF1FE5C0DD901F0004C4FEAC0024CEA5070B2F1004F40EB830008BF20F00100704711F0804F21D113F13872BCBF01F00040704741F480114FEA5252C2F1DF
:403240001802C2F1200C10FA0CF320FA02F018BF40F001004FEAC1234FEAD32303FA0CFC40EA0C0023FA02F34FEA4303CCE77FEA625307D150EA01331EBF4FF0FE4040F47B
:403280004000704701F0004040F0FE4040F40000704700BF4FEA4002B2F1FE4F0FD34FF09E03B3EB12620DD94FEA002343F0004310F0004F23FA02F018BF404270474FF02A
:4032C0000000704712F1610F01D1420205D110F0004008BF6FF0004070474FF000007047014B1868704700BF4881FF1F0E4B70B51E460E4C0025E41AA410A54204D056F820
:40330000253098470135F8E700F0C6FC084B094C1E46E41AA4100025A54204D056F8253098470135F8E770BDA43C0000A43C0000A43C0000AC3C000010B5431E0A44914261
:4033400004D011F8014B03F8014FF8E710BD03460244934202D003F8011BFAE7704700000EB400B54FF402719CB0ADF814106FF00041049107914FF6FF711DAB0290069094
:40338000084853F8042BADF81610006802A9019300F064F8029B00221A701CB05DF804EB03B070474881FF1F2DE9F0478E6882469E420C46914698463ED88A8912F4906FBB
:4033C0003AD02568096902236F1A656905EB450595FBF3F57B1C43449D4238BF1D4653050FD5294600F040FB064698B13A462169FFF7A2FFA38923F4906343F08003A38123
:4034000013E02A4600F08EFB064670B92169504600F0DEFA0C23CAF80030A3894FF0FF3043F04003A381BDE8F08726613E44266046466561ED1BA560464528BF4646494667
:403440003246206800F0A8FAA36800209B1BA36023681E442660BDE8F08700002DE9F04F9DB003938B8980461C060D4616460DD50B695BB9402100F0F7FA2860286118B9D6
:403480000C23C8F80030CDE040236B610023099320238DF82930DFF89CB130238DF82A3037463C4614F8013B1BB9B7EB060910D003E0252BF9D02746F3E74B463246294674
:4034C0004046FFF771FF013000F0A780099B4B4409933B78002B00F0A08000234FF0FF3204930793059206938DF853301A930126052221784E4800F041FA671C049B38B17F
:403500004B4A3C46801A06FA00F018430490EFE7D90644BF20228DF853201A0744BF2B228DF8532022782A2A03D0079A00210A200BE0039A111D12680391002A10DA524287
:4035400043F00200079204900BE027463B780134303B092B03D800FB02320121F5E701B107923B782E2B1ED17B782A2B0AD1039B02371A1D1B680392002BB8BF4FF0FF3360
:40358000059310E0002319460593781C0A2407463A780130303A092A03D804FB01210123F5E703B1059103223978224800F0E6F940B14023CBEB000003FA00F0049B0137B7
:4035C00018430490397806221B487E1C8DF8281000F0D4F988B1194B33B9039B073323F007030833039314E003AB00932A46144B04A94046AFF3008007E003AB00932A464C
:403600000F4B04A9404600F093F8B0F1FF3F824603D0099B5344099342E7AB895B0601D4099801E04FF0FF301DB0BDE8F08F00BF623C0000683C00006C3C00000000000014
:40364000A93300002DE9F04791461F460A698B6806469342B8BF1346C9F8003091F843200C46DDF8208012B10133C9F800302368990642BFD9F800300233C9F80030256823
:4036800015F0060510D104F1190A07E00123524639463046C04701301AD00135E368D9F800209B1A9D42F1DB94F843302268003318BF012392060FD5E118302081F843003D
:4036C0005A1C94F845102244023382F8431003E04FF0FF30BDE8F08704F1430239463046C0470130F4D02268D9F80050E36802F00602042A08BF5D1B2269A3680CBF25EAA6
:40370000E57500259342C4BF9B1AED184FF000091A344D4509D00123224639463046C0470130D5D009F10109F3E70020BDE8F0872DE9F04317460A7E85B06E2A984606465A
:403740000C460C9B01F1430E00F0AE8011D8632A22D009D8002A00F0BB80582A40F0CA8081F84520834955E0642A1ED0692A1CD0C0E0732A00F0B08009D86F2A2ED0702A0C
:4037800040F0B8800A6842F020020A603EE0752A24D0782A3AD0ADE01A6801F14205111D1960136884F84230A8E021681A6811F0800F02D0111D196008E011F0400F02F1F5
:4037C0000401196002D0B2F9003000E01368002B3CDA2D225B4284F8432037E021681A6811F0800F02D0111D196007E011F0400F02F10401196001D0138800E01368227EFD
:403800005C496F2A14BF0A2208221BE078225A4984F845202268186812F0800F00F104051D6003D1550601D5038800E00368D00744BF42F0200222601BB9226822F02002D9
:4038400022601022002084F8430001E049490A226568002DA56008DB206820F0040020602BB9002D7DD175460CE0002B79D07546B3FBF2F002FB1033CB5C05F8013D034668
:403880000028F5D1082A0BD12368DA0708D5236962689A42DEBF302305F8013C05F1FF35C5EB0E0323612EE008681A6810F0800F496903D0101D1860136808E010F0400F8D
:4038C00002F104001860136801D0198000E0196000232361754616E01A68111D1960156800216268284600F049F808B1401B6060636804E004F1420584F84220012323614E
:40390000002384F84330CDF800803B4603AA21463046FFF797FE013002D14FF0FF3026E023692A4639463046C0470130F5D023689B0710D5002504F1190907E001234A464B
:4039400039463046C0470130E7D00135E368039A9B1A9D42F2DBE068039B9842B8BF184605E00B7804F1420584F842308AE705B0BDE8F083733C0000843C000010B5C9B2D0
:4039800002449042034605D01C7801308C42F8D1184610BD002010BD884210B501EB020301D8421E0BE09842FBD28118D21AD34204D013F8014D01F8014DF8E710BD99427D
:4039C00004D011F8014B02F8014FF8E710BD000038B50546002944D051F8043C0C1F002BB8BFE41800F0D4F81E4A1368114613B96360146030E0A3420DD92268A018834206
:403A000001BF18685B681218226063600C6023E0A24203D813465A68002AF9D118681918A1420BD12168014458188242196013D110685268014419605A600DE002D90C2367
:403A40002B6009E021686018824201BF106852680918216062605C602846BDE8384000F098B838BD9481FF1F70B5CD1C25F0030508350C2D38BF0C25002D064601DBA942FF
:403A800002D90C23336046E000F082F8234B1C681A462146A1B10B685B1B0ED40B2B03D90B60CC18CD501EE08C420BBF63684B681360636018BF0C4615E00C464968E9E74A
:403AC000174C23681BB9304600F052F820602946304600F04DF8431C18D0C41C24F00304A0420DD12560304600F053F804F10B00231D20F00700C31A0ED05A42E25070BD75
:403B0000211A304600F034F80130EBD10C233360304600F03EF8002070BD00BF9481FF1F9081FF1FF8B5074615460E4621B91146BDE8F840FFF798BF1AB9FFF749FF28467C
:403B4000F8BD00F027F885420ED929463846FFF78BFF044650B131462A46FFF7EDFB31463846FFF735FF01E03046F8BD2046F8BD38B5064C0023054608462360FCF78AFC19
:403B8000431C02D1236803B12B6038BD9C81FF1F7047704751F8040C0028BEBF091851F8043CC018043870470000000000000000456A656D706C6F205465726D6973746FB5
:403BC0007200000054656D703D256C642E253032316420430000000020202020202020202020202020202020202000000D510040005B0040005B00402443004004401000CF
:403C0000945A0040045B00400D510040045B004010200880305100404000C05100401000F0510040100000000140001000140140000800400140000A004C014000020050B7
:403C4000014020006C6F6700706F770000000000000000000000304300000000000030C34300232D302B2000686C4C006566674546470030313233343536373839414243E0
:403C8000444546003031323334353637383961626364656600000000F8B500BFF8BC08BC9E4670474D00000011050000F8B500BFF8BC08BC9E46704729000000D03C00003D
:403CC000C880FF1F88000000500000000000000000000000A081FF1F01FF00000000E02EC05D00001800000000366E0101000000000000000000000000000000000000005E
:403D000000000000000000000000000000000000603C00000000000000000000000000000000000000000000000000000000000000000000000000000000000000000000E7
:403D400000000000000000000000000000000000E880FF1F0000000000000000000000000000000000000000000000000000000000000000000000000000000000000000BD
:403D80000000000000000000000000000000000000000000000000000000000000000000000000000000000000000000000000000000000000000000000000000000000003
:403DC00000000000000000000000000000000000000000000000000000000000000000000000000000000000000000000000000000000000000000000000000000000000C3
:403E00000000000000000000000000000000000000000000000000000000000000000000000000000000000000000000000000000000000000000000000000000000000082
:403E40000000000000000000000000000000000000000000000000000000000000000000000000000000000000000000000000000000000000000000000000000000000042
:020000040003F7
:0200000480007A
:4000000001090140040A0140010B014001150140011B0140024401400145014003460140034701400248014001490140014C0140024D0140B502B802BE01D804DF011D02C3
:40004000EC10EC107C01DE01940145089401D001A508B401EC082510C820B510A508B508EC0800000000000000001C00000B0B0000000000007F7F000000000025001801E0
:400080000000000000000000000000000000000000000000000000000000000000000000000000000000000000000000000000000000000000000000000000000000000040
:4000C0000000000000000000000000000000000000000000000000000000000000000000000000000000000000000000000000000000000000000000000000000000000000
:4001000000000000000000000000000000000000000000000000000000000000000000000000000000000000000000000000000000000000000000000000000000000000BF
:40014000000000000000000000000000000000000000000000000000000000000000000000000000000000000000000000000000000000000000000000000000000000007F
:0200000490006A
:0400000000004005B7
:0200000490105A
:04000000BC90ACAF55
:0200000490303A
:0200000085C3B6
:0200000490402A
:4000000000000000000000000000000000000000000000000000000000000000000000000000000000000000000000000000000000000000000000000000000000000000C0
:400040000000000000000000000000000000000000000000000000000000000000000000000000000000000000000000000000000000000000000000000000000000000080
:400080000000000000000000000000000000000000000000000000000000000000000000000000000000000000000000000000000000000000000000000000000000000040
:4000C0000000000000000000000000000000000000000000000000000000000000000000000000000000000000000000000000000000000000000000000000000000000000
:0200000490501A
:0C00000000012E12306900012E29B62CE0
:00000001FF