:400000000080002011000000C9030000C903000008B5044B1A6803F53F5302331A6000F0F3F900BFFA46004010B5054C237833B9044B13B10448AFF300800123237010BDF3
:400040008081FF1F000000008C350000084B10B51BB108490848AFF300800848036803B910BD074B002BFBD0BDE81040184700BF000000008481FF1F8C350000C880FF1F10
:40008000000000000000000030B585B062B600F0CBFA00F0D7FA00F011FC00F023FD002000F0D8FA00F0E8FA84B2204600F08AFE00221B4B00F0ECFE17A3D3E9002301F0D7
:4000C00011F801F0F7F805460021084600F004FC144800F099FB0521002000F0FDFB204600F018FCC4F3C70000F0B2FC284600F07BFE02460B460C49684601F0DBFD00217C
:40010000012000F0E9FB684600F07EFB4FF4FA7000F03EFCC3E700BF0000000000FEAF400000144090350000A0350000FEE700BFF0B40022174611E050F82760F3B226F056
:40014000FF0608E001EB420511F812406D78A5550132013BDBB2002BF4D10137102FEBD9F0BC704708B50A46002101F02AF908BDF8B5164B1B78DBB2154E3478E4B2154F5D
:400180003D78EDB203F00701134A11701B090132137044F00303337045F003033B702023A2F20272137040220C490A7002310A7002210B4A1170033213700A2000F0FEFB05
:4001C0003D7034704422074B1A70F8BDCF010049F8460040F94600406E58004001590040205B00407658004008B501F0DFF808BD38B540F2BF322D4B1A80182202331A70D3
:4002000004222B492B48FFF7EFFF02222A4B1A7008224FF040231A70032103F500731970264B1B78DBB226490B70264B1A8041F25122023B1A80002419250CE0224B1B78EB
:4002400003F0010343EA440404F003044FF4F07000F056FC013D0DB1032CEFD115B90320FFF764FF194B4FF480721A8007221A70002217490A704820023108701A7002225A
:40028000033B1A7004220A331A70124A137843F001031370013A137843F001031370013A137843F08003137038BD00BF804000400401004800410040004300400801004912
:4002C000A146004022420040254200400440004006400040A243004038B572B62B4A137843F00403137000240CE0294D630019194A0011462A44084691882858FFF732FF53
:400300000134E4B2082CF0D922494FF09040FFF70FFF214A137843F0020313701032137843F0020313701D4C237843F040032370A2F58632513A137843F0100313700822D9
:4003400017491848FFF750FF082217491748FFF74BFF082216491748FFF746FF164A137843F008031370154D61232B70FFF740FF81232B700122124B1A70FFF7F9FE0E2264
:4003800021461048FFF730FF38BD00BFE8460040B03500004400004803500140A0430040EC00004812510040F400004822510040FC000048625100402243004000480040E5
:4003C00004000840B043004008B500F0C3FF03680C2B00D1FEE7FEE708B5094B1A681044084BC31AB3F5006F02DC054B186005E000F0B0FF0C2303604FF0FF32104608BD5D
:40040000CC80FF1FB881FF1F08B5104E104D16E029686B68AC68002204E051F8040B43F8040B0432A242F8D1E868002203E0002143F8041B04328242F9D11035013E002E44
:40044000E6D100F08DFFFFF71FFEFEE7010000007037000008B5104A104B1A60104A136843F40073136000230AE0032B03D80D4A52F8231000E00C490C4A42F823100133B5
:400480002F2BF2D90A4B1A780A4B1A70074A0A4B1A60FFF721FF08BD0004FA050CED00E014ED00E000000000C90300000080FF1FBC760040C080FF1F08ED00E008B50A289B
:4004C0000FD00C2802D0082806D102E04FF4805209E04FF4807206E0002000F057FA002201E04FF480620021094B198042F2107303FB02F303F6C413064A82FB0302DB1740
:40050000C3EBE223044A1360044B198008BD00BFAE81FF1FAD8BDB68A881FF1FAC81FF1F10B500F0F5FA04461E4A137843F0010313701032137843F0010313701A3A137880
:4005400043F0010313701032137843F00103137002F5AA521232137843F0030313701822114B1A70013B1A7842F040021A701A7802F0FC021A70C822053B1A700222A3F554
:4005800097530C3B1A70094A137843F0080313700A2000F013FA0122054B1A60204600F0BBFA10BDAB43004006590040275B004080E200E010B504460A280DD00C2802D000
:4005C000082804D101E0C22207E0422205E0002000F0DCF9C22200E08222034B1A702046FFF76CFF10BD00BF0259004008B5102000F0C2F90721002000F0FEF907490020B7
:4006000000F0E6F9064A137843F0060313700C20FFF7D0FF0022034B1A8008BD9106000001590040B081FF1F08B5054B1B7823B9FFF7DCFF0122024B1A70FFF771FF08BD9F
:400640009C81FF1F024A137843F00103137070470059004010B5074B1B7813F0010401D10028F8D024B1012000F0A8F9014B1B78204610BD01590040034B188880B2034B49
:400680001B88C01A00B27047A05B0040AC81FF1F704700BF10B50B4C237803F09F032370237803F0F00323702378184340F010002070012000F082F9237803F0EF03237000
:4006C00010BD00BF2051004038B505460E4C237843F020032370237803F0BF032370002000F06CF9237803F0F003237023781D4345F010052570012000F060F9237803F069
:40070000EF03237038BD00BF2051004070B5354B1A7802F08002D2B21A7033490A7802F0F00242F00F020A7001310A7802F0F0020A7001310A7802F0F0020A701A7802F0CF
:40074000DF021A701A7842F040021A704FF4CA76002000F033F9234D2B7843F010032B70012000F02BF9214B1C78E4B22B7803F0EF032B70002000F021F904F00804E4B21D
:400780002B7843F010032B70012000F017F92B7803F0EF032B7014B90A2000F00FF9013E0CB1002ED4D10F4A137803F0BF031370137803F08003DBB213700232137803F0D4
:4007C000F00313700132137803F0F00343F00F0313700132137803F0F00343F00F03137070BD00BF20510040225100402151004010B50446FFF78AFF2009FFF765FF04F0A4
:400800000F00FFF761FF10BD38B505460078012404E0FFF7EDFF285D0134E4B20028F8D138BD00BF10B50446FFF770FF2009FFF731FF04F00F00FFF72DFF10BD08B528203C
:4008400000F0A6F80320FFF725FF052000F0A0F80320FFF71FFF0F2000F09AF80320FFF719FF012000F094F80220FFF713FF052000F08EF80620FFF7D5FF0E20FFF7D2FFA0
:400880002C20FFF7CFFF0820FFF7CCFF0120FFF7C9FF0C20FFF7C6FF0320FFF7C3FF052000F076F808BD00BF08B50C20FFF7BAFF0122014B1A7008BD9D81FF1F08B5054BF8
:4008C0005B7823B9FFF7BAFF0122024B5A70FFF7EBFF08BD9D81FF1F08B5032819D8DFE800F002070D1381F08000FFF79BFF08BDA1F14000C0B2FFF795FF08BDA1F16C00EF
:40090000C0B2FFF78FFF08BDA1F12C00C0B2FFF789FF08BD10B584B000238DF80E30092211E0144BA3FB0013DB081C4603EB83035900431ADBB2303304A9114401F80C3CDC
:400940002046013AD2B20928EBD80A4BA3FB0013DB0803EB83035900431ADBB2303304A9114401F80C3C01AB9818FFF74DFF04B010BD00BFCDCCCCCC034B1A7800F0F80041
:4009800010431870704700BF0241004001BE704710B5044605E0084B186800F0B1F8A4F50044B4F5004FF6D8034B586800FB04F000F0A6F810BD00BFD080FF1F08B5034B5A
:4009C0001B7A00FB03F000F09BF808BDD080FF1F70B504460E46074B1D681F2802D90020FFF7D4FF04F01F04103455F8240045F8246070BD08ED00E038B504460D460729D0
:400A000002D90020FFF7C2FF1F2C02D90020FFF7BDFF04F01F0000F1604000F564406D01EDB2057038BD00BF024A137843F08003137070477E640040014B1870704700BF66
:400A40000E640040014B1870704700BF4E640040014B1870704700BF2E640040014B1870704700BF8E640040014B1878704700BF6E640040014B1878704700BF5E64004038
:400A800008B501E0FFF7F6FFFFF7EEFF10F0100FF8D108BD10B5114A137803F0C00343F0090313700E4C237843F001032370FF20FFF7C2FFFF20FFF7C5FF7F20FFF7C8FF30
:400AC0000020FFF7CBFF00F023F8237843F01003237000F021F8FFF7D3FF10BD7E6400409E64004008B5054B1B7823B9FFF7D2FF0122024B1A70FFF797FF08BD9F81FF1FC9
:400B00000230800803D000BF01380046FCD17047EFF3108072B6704780F31088704700BF81F0004102E000BF83F0004330B54FEA41044FEA430594EA050F08BF90EA020FC3
:400B40001FBF54EA000C55EA020C7FEA645C7FEA655C00F0E2804FEA5454D4EB5555B8BF6D420CDD2C4480EA020281EA030382EA000083EA010180EA020281EA0303362D96
:400B800088BF30BD11F0004F4FEA01314FF4801C4CEA113102D0404261EB410113F0004F4FEA03334CEA133302D0524263EB430394EA050F00F0A780A4F10104D5F1200E9F
:400BC0000DDB02FA0EFC22FA05F2801841F1000103FA0EF2801843FA05F359410EE0A5F120050EF1200E012A03FA0EFC28BF4CF0020C43FA05F3C01851EBE37101F00045B9
:400C000007D54FF0000EDCF1000C7EEB00006EEB0101B1F5801F1BD3B1F5001F0CD349085FEA30004FEA3C0C04F101044FEA445212F5800F80F09A80BCF1004F08BF5FEAD7
:400C4000500C50F1000041EB045141EA050130BD5FEA4C0C404141EB010111F4801FA4F10104E9D191F0000F04BF01460020B1FA81F308BF2033A3F10B03B3F120020CDAAF
:400C80000C3208DD02F1140CC2F10C0201FA0CF021FA02F10CE002F11402D8BFC2F1200C01FA02F120FA0CFCDCBF41EA0C019040E41AA2BF01EB0451294330BD6FEA0404C0
:400CC0001F3C1CDA0C340EDC04F11404C4F1200220FA04F001FA02F340EA030021FA04F345EA030130BDC4F10C04C4F1200220FA02F001FA04F340EA0300294630BD21FAFA
:400D000004F0294630BD94F0000F83F4801306BF81F480110134013D4EE77FEA645C18BF7FEA655C29D094EA050F08BF90EA020F05D054EA000C04BF1946104630BD91EA4D
:400D4000030F1EBF0021002030BD5FEA545C05D14000494128BF41F0004130BD14F580043CBF01F5801130BD01F0004545F0FE4141F470014FF0000030BD7FEA645C1ABFFD
:400D8000194610467FEA655C1CBF0B46024650EA013406BF52EA033591EA030F41F4002130BD00BF90F0000F04BF0021704730B54FF4806404F132044FF000054FF00001C4
:400DC00050E700BF90F0000F04BF0021704730B54FF4806404F1320410F0004548BF40424FF000013EE700BF42004FEAE2014FEA31014FEA02701FBF12F07F4393F07F4F43
:400E000081F06051704792F0000F14BF93F07F4F704730B54FF4607401F0004521F0004120E700BF50EA010208BF704730B54FF000050AE050EA010208BF704730B511F0B4
:400E4000004502D5404261EB41014FF4806404F132045FEA915C3FF4DCAE4FF003025FEADC0C18BF03325FEADC0C18BF033202EBDC02C2F1200300FA03FC20FA02F001FAA2
:400E800003FE40EA0E0021FA02F11444C1E600BF70B54FF0FF0C4CF4E06C1CEA11541DBF1CEA135594EA0C0F95EA0C0F00F0DEF82C4481EA030621EA4C5123EA4C5350EA12
:400EC000013518BF52EA033541F4801143F4801338D0A0FB02CE4FF00005E1FB02E506F00042E0FB03E54FF00006E1FB03569CF0000F18BF4EF0010EA4F1FF04B6F5007F71
:400F000064F5407404D25FEA4E0E6D4146EB060642EAC62141EA55514FEAC52040EA5E504FEACE2EB4F1FD0C88BFBCF5E06F1ED8BEF1004F08BF5FEA500E50F1000041EB6B
:400F4000045170BD06F0004646EA010140EA020081EA0301B4EB5C04C2BFD4EB0C0541EA045170BD41F480114FF0000E013C00F3AB8014F1360FDEBF002001F0004170BD15
:400F8000C4F10004203C35DA0C341BDC04F11404C4F1200500FA05F320FA04F001FA05F240EA020001F0004221F0004110EBD37021FA04F642EB06015EEA430E08BF20EA5B
:400FC000D37070BDC4F10C04C4F1200500FA04F320FA05F001FA04F240EA020001F0004110EBD37041F100015EEA430E08BF20EAD37070BDC4F1200500FA05F24EEA020E35
:4010000020FA04F301FA05F243EA020321FA04F001F0004121FA04F220EA020000EBD3705EEA430E08BF20EAD37070BD94F0000F0FD101F00046400041EB010111F4801F59
:4010400008BF013CF7D041EA060195F0000F18BF704703F00046520043EB030313F4801F08BF013DF7D043EA0603704794EA0C0F0CEA135518BF95EA0C0F0CD050EA41066E
:4010800018BF52EA4306D1D181EA030101F000414FF0000070BD50EA410606BF1046194652EA430619D094EA0C0F02D150EA013613D195EA0C0F05D152EA03361CBF1046E5
:4010C00019460AD181EA030101F0004141F0FE4141F470014FF0000070BD41F0FE4141F4780170BD70B54FF0FF0C4CF4E06C1CEA11541DBF1CEA135594EA0C0F95EA0C0F65
:4011000000F0A7F8A4EB050481EA030E52EA03354FEA013100F088804FEA03334FF0805545EA131343EA12634FEA022245EA111545EA10654FEA00260EF000419D4208BF21
:40114000964244F1FD0404F5407402D25B084FEA3202B61A65EB03055B084FEA32024FF480104FF4002CB6EB020E75EB030E22BFB61A754640EA0C005B084FEA3202B6EBA1
:40118000020E75EB030E22BFB61A754640EA5C005B084FEA3202B6EB020E75EB030E22BFB61A754640EA9C005B084FEA3202B6EB020E75EB030E22BFB61A754640EADC0034
:4011C00055EA060E18D04FEA051545EA16754FEA06164FEAC30343EA52734FEAC2025FEA1C1CC0D111F4801F0BD141EA00014FF000004FF0004CB6E711F4801F04BF014394
:401200000020B4F1FD0C88BFBCF5E06F3FF6AFAEB5EB030C04BFB6EB020C5FEA500C50F1000041EB045170BD0EF0004E4EEA113114EB5C04C2BFD4EB0C0541EA045170BD2F
:4012400041F480114FF0000E013C90E645EA060E8DE60CEA135594EA0C0F08BF95EA0C0F3FF43BAF94EA0C0F0AD150EA01347FF434AF95EA0C0F7FF425AF104619462CE79B
:4012800095EA0C0F06D152EA03353FF4FDAE1046194622E750EA410618BF52EA43067FF4C5AE50EA41047FF40DAF52EA43057FF4EBAE12E74FEA4102B2F1E04324BFB3F5E6
:4012C000001CDCF1FE5C0DD901F0004C4FEAC0024CEA5070B2F1004F40EB830008BF20F00100704711F0804F21D113F13872BCBF01F00040704741F480114FEA5252C2F13F
:401300001802C2F1200C10FA0CF320FA02F018BF40F001004FEAC1234FEAD32303FA0CFC40EA0C0023FA02F34FEA4303CCE77FEA625307D150EA01331EBF4FF0FE4040F4DA
:401340004000704701F0004040F0FE4040F40000704700BF014B1868704700BF4081FF1F0E4B70B51E460E4C0025E41AA410A54204D056F8253098470135F8E702F0E6F9D6
:40138000084B094C1E46E41AA4100025A54204D056F8253098470135F8E770BD5837000058370000583700006037000010B5431E0A44914204D011F8014B03F8014FF8E7ED
:4013C00010BD03460244934202D003F8011BFAE770472DE9F04788B0149F002B1E461299B8BF03F1004327F02007B6BF1E4600232D23462F1446109DDDF84CA00B7003D006
:40140000452F03D1013501E0032300E0022307AA049206AA03928DE828042246334600F003FD472F804602D1119BDB0728D5462F08EB050911D198F80030302B0AD100221A
:4014400000232046314602F031F818B9C5F10105CAF80050DAF800309944002200232046314602F023F808B9302202E0CDF81C9006E0079B994503D9591C07911A70F8E786
:401480004046079B159AC8EB0303136008B0BDE8F087034673B50029B8BF494203F8022BB4BF2D222B22092942701ADD0DF1070216460A2591FBF5F405FB1411092C01F154
:4014C000300102F8011D2146F4DC3031541E02F8011CB4421A460AD214F8012B03F8012BF7E71A463024214402F8024B5970101A02B070BD2DE9F04F91B00C46DDF868803C
:4015000016461F46054601F027FA03681846099300F0F4FB00230E93D8F800300A90073323F0070303F1080294F81890D4F800B0C8F80020D3E90023C4E91223D4F84CA08D
:40154000D4F848802AF000430B934FF0FF32A74B40460B9901F0DCFFA0B94FF0FF32A34B40460B9901F0B6FF60B9002200234046514601F0A5FF10B12D2384F843309C4B06
:401580009C4A0AE0424653464046514601F0C0FF002800F09281984B984AB9F1470F8CBF90469846032323612BF0040323604FF0000A3DE0B9F1670F00F08A81B9F1470FAE
:4015C00000F0868123600193636800210DF13302059002920093424653460691CDF81090CDF80CE02846FFF7F4FE09F0DF03472B804600F08481B9F1650F0D9900F28D8112
:4016000001394A4604F150000D91FFF742FF0E9A82468318012A236100F37C812268D10700F178819DF8333013B12D2384F84330009733460FAA2146284600F09FF901307E
:4016400002D14FF0FF3096E123685A0501D4236965E0B9F1650F40F2D580D4E912010022002301F023FF78B30123654A31462846B8470130E5D00E9B0D9A9A420BDB2368F0
:40168000D80708D423689B0740F111814FF0000804F1190906E10A9B099A31462846B8470130CED04FF0000804F11A090E9B013B9845E7DA01234A4631462846B847013094
:4016C000BFD008F10108F1E70D9B002B29DC01234B4A31462846B8470130B2D00D9B23B90E9B13B92368D907CCD50A9B099A31462846B8470130A4D04FF0000904F11A0A22
:401700000D9B5B42994509DA0123524631462846B847013095D009F10109F1E70E9B4246A7E00E9AA36D9A42A8BF1A46002A914606DC4FF0000A29EAE97904F11A0B11E0D2
:401740001346314642462846B8470130F1D178E701235A4631462846B84701303FF471AF0AF1010AA36DC9EB03029245F0DB08EB03090D9A0E9B9A420FDB2368DA070CD454
:401780000E9B0D9A9844C9EB08089B1A9845A8BF9846B8F1000F08DC0FE00A9B099A31462846B8470130EBD14BE743464A4631462846B84701303FF444AF4FF0000928EADE
:4017C000E87804F11A0A09E00123524631462846B84701303FF435AF09F101090D9A0E9B9B1AC8EB03039945EEDB4BE7FFFFEF7FE8350000EC350000F0350000F43500000C
:40180000F83500000E9A012A01DCDB0738D50123424631462846B84701303FF412AF0A9B099A31462846B84701303FF40AAFD4E912010022002301F039FE20B14FF0000889
:4018400004F11A090EE00E9B08F10102013B19E001234A4631462846B84701303FF4F1AE08F101080E9B013B9845F1DB534604F1500231462846B84701307FF403AFE0E67D
:401880004246012331462846B8470130EED1D8E601234A4631462846B84701303FF4D1AE08F10108E3680F9A9B1A9845F0DBE0680F9B9842B8BF18465DE062680EA8531C4F
:4018C0000DF1340E4BF480637FF474AE062201E012B90122626075E6002106910DF133018DE80C00236005904246CDF81090CDF80CE0029153462846FFF76BFD80460D9B56
:40190000D81C02DB626893421DDDA9F102095FFA89F970E60133236184E6B9F1660F14D10029636807DD216113B92268D2071DD501330B4419E013B92268D00701D5023312
:4019400013E0012311E04FF067090D9B0E9A934205DB22682361D10708D5013305E0002BD4BFC3F102030123134423610D9B4FF0000AA36556E611B0BDE8F08F2DE9F047F2
:4019800091461F460A698B6806469342B8BF1346C9F8003091F843200C46DDF8208012B10133C9F800302368990642BFD9F800300233C9F80030256815F0060510D104F143
:4019C000190A07E00123524639463046C04701301AD00135E368D9F800209B1A9D42F1DB94F843302268003318BF012392060FD5E118302081F843005A1C94F84510224443
:401A0000023382F8431003E04FF0FF30BDE8F08704F1430239463046C0470130F4D02268D9F80050E36802F00602042A08BF5D1B2269A3680CBF25EAE57500259342C4BF68
:401A40009B1AED184FF000091A344D4509D00123224639463046C0470130D5D009F10109F3E70020BDE8F0872DE9F04317460A7E85B06E2A984606460C460C9B01F1430ED2
:401A800000F0AE8011D8632A22D009D8002A00F0BB80582A40F0CA8081F84520834955E0642A1ED0692A1CD0C0E0732A00F0B08009D86F2A2ED0702A40F0B8800A6842F019
:401AC00020020A603EE0752A24D0782A3AD0ADE01A6801F14205111D1960136884F84230A8E021681A6811F0800F02D0111D196008E011F0400F02F10401196002D0B2F9E3
:401B0000003000E01368002B3CDA2D225B4284F8432037E021681A6811F0800F02D0111D196007E011F0400F02F10401196001D0138800E01368227E5C496F2A14BF0A2297
:401B400008221BE078225A4984F845202268186812F0800F00F104051D6003D1550601D5038800E00368D00744BF42F0200222601BB9226822F0200222601022002084F8A3
:401B8000430001E049490A226568002DA56008DB206820F0040020602BB9002D7DD175460CE0002B79D07546B3FBF2F002FB1033CB5C05F8013D03460028F5D1082A0BD199
:401BC0002368DA0708D5236962689A42DEBF302305F8013C05F1FF35C5EB0E0323612EE008681A6810F0800F496903D0101D1860136808E010F0400F02F10400186013687C
:401C000001D0198000E0196000232361754616E01A68111D1960156800216268284600F0A7FE08B1401B6060636804E004F1420584F8422001232361002384F84330CDF8D9
:401C400000803B4603AA21463046FFF797FE013002D14FF0FF3026E023692A4639463046C0470130F5D023689B0710D5002504F1190907E001234A4639463046C0470130D2
:401C8000E7D00135E368039A9B1A9D42F2DBE068039B9842B8BF184605E00B7804F1420584F842308AE705B0BDE8F083FA3500000B3600000EB400B54FF402719CB0ADF8FB
:401CC00014106FF00041049107914FF6FF711DAB02900690084853F8042BADF81610006802A9019301F03AFA029B00221A701CB05DF804EB03B070474081FF1F034613F8F7
:401D0000012B002AFBD1181A013870472DE9F74F03690C6980469C427FDC013C01F114074FEA840E00F1140606EB0E0357F82450019356F824300135B3FBF5F507EB0E0931
:401D4000C5B34FF0000A3846B446D34650F8043B9AB205FB02A21B0C4FEA124A05FB03A392B2C2EB0B0BBCF800204FEA134A5A441FFA83FBDCF800308145CBEB134303EBCE
:401D8000224392B242EA03424FEA234B4CF8042BDCD256F80E306BB9019B043B9E421A4602D3C8F8104005E01268043B002AF8D1013CF3E7404600F0F6FF00282BDB3046DA
:401DC00001354FF0000E57F8042B036891B2C1EB0E0E120C99B27144C2EB134303EB214389B24FEA234EB94541EA034340F8043BE9D256F8242006EB840362B9043B9E422F
:401E00001A4602D3C8F8104005E01268043B002AF8D1013CF3E7284600E0002003B0BDE8F08F0000000000002DE9F04F456A95B08246219CCDE9022345B9102000F090FD1C
:401E4000CAF82400456085600560C560DAF82430196859B15A68012393404A608B60504600F0C9FDDAF8243000221A60039BA04A002BBDBF01232360039B0023BCBF23F036
:401E800000430393DDF80C80A8BF236028F000431B0D1B0593421DD142F20F73209A1360029B43B9934A944BC8F31300002814BF1846104600E09048229B002B00F0468588
:401EC000C37813B100F1080300E0C31C229A136000F03CBDDDE90245002200232046294601F0E4FA074658B1209A01231360229B002B00F01E8581481860013800F026BDAB
:401F000012AB019313AB009322462B46504600F0C5FFC8F30A56049056B1C5F3130343F07F51204641F44011A6F2FF3611971DE0139B129E1E4406F23243202B0ADD029AFC
:401F400006F21240C3F1400322FA00F008FA03F3184304E0C3F12000029B03FA00F0FEF721FF0123A1F1F871013E11930022644BFEF7DAFD58A3D3E90023FEF789FF58A379
:401F8000D3E90023FEF7D2FD044630460D46FEF719FF55A3D3E90023FEF77AFF02460B4620462946FEF7C2FD04460D4601F0C6FA0022834600232046294601F081FA58B151
:401FC0005846FEF7FFFE02460B462046294601F06DFA08B90BF1FF3BBBF1160F0DD8DDE90223484901EBCB01D1E9000101F086FA30B10BF1FF3B002300E00123109300E0BD
:402000001090129B9E1B731E079343BFC3F10008002307934FF00008BBF1000F06DB079BCDF82CB05B440793002705E00023CBEB0808CBF100070B931E9B092B28D8052B22
:40204000C4BF043B1E931E9BC8BF0025A3F10203D8BF0125032B20D8DFE803F0060E0204012302E0012308E000230A931F9B002B1DDD9946059321E000230A931F9B0BEB9F
:40208000030909F10103012B0593B8BF012315E0012500231E930A9501E001230A934FF0FF390022CDF8149012231F9206E04FF001094B46CDF81490CDF87C90DAF824406F
:4020C00000226260042101F114029A421CD86268490001326260F6E761436F63A787D23FB3C8608B288AC63FFB799F501344D33F0000F07F1C36000025360000F935000032
:402100000000F83F383600006168504600F03EFCDAF8243020601B680693059B0E2B00F25B81002D00F05881DDE90234BBF1000FCDE90E3430DD9F4A0BF00F034FEA2B15E7
:4021400002EBC303E80618CBCDE908340CD5DDE90E01994B05F00F05D3E90823FEF7C2FF0324CDE9020100E00224934E6DB1E90708D5DDE90801D6E90023FEF789FECDE914
:40218000080101346D100836F0E7DDE90823DDE90201FEF7A7FF20E0CBF1000505B3DDE90E01844B05F00F0203EBC203D3E90023FEF76EFECDE902017F4E2D1100230224D7
:4021C00055B1EA0705D5D6E90023FEF761FE013401236D100836F3E71BB1CDE9020100E00224109BE3B1DDE902560022734B2846314601F065F998B1059B8BB1B9F1000F10
:4022000040F3E6800BF1FF330893314600226C4B2846FEF73DFE0134CDE902014E4602E0059ECDF820B02046FEF7CCFDDDE90223FEF72EFE634B0022FEF778FCA1F15073F4
:4022400004460C931D46D6B9DDE9020100225E4BFEF76AFC22460C9BCDE9020101F04EF9002840F03F820C99224601F10043DDE9020101F025F9002840F02B82A8E00A9A30
:402280004C4B711E002A49D003EBC103D3E9002300204E49FEF726FF22462B46FEF744FCCDE90C01069CDDE9020101F047F90546FEF788FD02460B46DDE90201FEF734FC9A
:4022C000DDE90C23303504F8015BCDE9020101F0F7F8002840F01D83DDE9022300203749FEF722FCDDE90C2301F0EAF8002840F0D180069BE31AB3426ADADDE90C010022C0
:402300002F4BFEF7C5FD0022CDE90C01DDE902012B4BFEF7BDFDCDE90201C4E703EBC1012246D1E900012B46FEF7B2FD069BCDE90C011D469C19DDE9020101F0FFF80646D4
:40234000FEF740FD02460B46DDE90201FEF7ECFB303605F8016BAC42CDE902014FF0000222D11A4BDDE90C01FEF7E0FB02460B46DDE9020101F0C2F8002840F08B80DDE905
:402380000C2300201149FEF7CFFB02460B46DDE9020101F095F8D8B114F8013C621E302B40F0B7821446F7E7054BFEF771FDCDE90201C0E738360000103700000000F03F90
:4023C0000000244000001C40000014400000E03FDDE90E34CDE90234139B002B7CDBBBF10E0F79DCAB4B03EBCB03D3E900671F9B002B14DA059B002B11DC40F06C810022C9
:40240000A54B30463946FEF743FDDDE9022301F06BF8059D2E46002840F05F8165E1069CDDE9028932463B4640464946FEF75AFE01F084F80546FEF7C5FC32463B46FEF705
:4024400027FD0B46024649464046FEF76DFB05F1300E069B04F801EBC3EB040E059B73452DD102460B46FEF761FB8046894602460B463046394601F023F878B942464B46F7
:402480003046394601F012F8002800F04482EB0704D440E2DDF820B000E01C4614F8012C631E392A07D1069A9A42F6D1069930220BF1010B0A701A7801321A702BE2002252
:4024C000764BFEF7E5FC002200238046894600F0EDFF0028A6D01EE20A9A002A2BD01E9A012A0ADC119A12B103F2334302E0129BC3F136033D46444613E0059B5D1EAF42FE
:40250000BFBF0B9BEA1B9B180B93059BB6BF2F467D1B0025002BA7BF4446059BC3EB08040023079A01211A4450469844079200F001FB064602E03D4644460A9E5CB1079B98
:40254000002B08DDA342A8BF2346079AC3EB0808E41AD31A0793002F1DDD0A9BABB18DB131462A46504600F07FFB049A01460646504600F0E8FA04990890504600F03BFADA
:40258000089B04937A1B06D000E03A460499504600F06AFB04900121504600F0CBFA0B9B05465BB31A460146504600F05DFB1E9B0546012B18DC029B83B9039BC3F31303A2
:4025C00073B9039B23F000473F0D3F054FB1079B08F1010801330793012702E0002700E0029F0B9B73B100E000272B6905EB8303186900F052FAC0F1200004E01E9B012BD1
:40260000D9DD0B9F0120079B184410F01F0008D0C0F12003042B02DDC0F11C0002E006D018461C30079B8044034404440793B8F1000F05DD42460499504600F063FB04904D
:40264000079B002B05DD29461A46504600F05AFB0546109B23B32946049800F0A4FB00281EDA00230A220499504600F0DBF90A9B0BF1FF3B0490002B00F05F813146002331
:402680000A22504600F0CEF9B9F1000F06463FDC3BE000BF383600000000144000002440059B002B2BDC1E9B022B28DDDDF81490B9F1000F11D129464B460522504600F003
:4026C000B1F901460546049800F06DFB00280CDC03E0354600E000252E461F9B069C6FEA030B09E03546DDF820B0069B069A5C1C312313700BF1010B05960026F7E00A9B22
:40270000DDF8149023B9069CB2E01E9B022BCFDC002C05DD31462246504600F0F3FA06469FB17168504600F031F90446326906F10C01023292000C30FEF738FE012221465A
:40274000504600F0DFFA059000E00596029B069F03F00103079329460498FFF7D7FA3146044600F13008049800F01DFB059A02902946504600F033FBC36802463BB90146B5
:402780000A90049800F00FFB0A9A034600E00123114650460A9300F02EF90A9B53B91E9A42B9079A32B9B8F1390F2AD0029B002B1CDC1DE0029A002A04DB1BD11E9ACAB9F3
:4027C000079ABAB9002B13DD01220499504600F099FA2946049000F0E6FA002803DC07D118F0010F04D0B8F1390F0AD004F131087C1C0CE0002B07F101040BDDB8F1390FB5
:4028000003D139233B70013756E008F1010887F800806CE0069B2746E31A4B4504F8018C3BD000230A220499504600F0FBF8059B04909E424FF00A024FF0000331465046C0
:4028400004D100F0EFF80646059084E700F0EAF8002306460A220599504600F0E3F8059079E700230A220499504600F0DBF8049029460498FFF74AFA069B00F1300804F81B
:40288000018BE31A4B45ECDB069B0596B9F1010FACBF4B4401331F46002601220499504600F030FA2946049000F07DFA002803DC15D118F0010F12D03C4614F8013C621E7D
:4028C000392B09D1069B934204D10BF1010B3123069A02E01446F0E70133137007E03C4614F8013C621E302B01D11446F8E72946504600F080F8059B6BB12EB19E4203D036
:402900003146504600F077F80599504600F073F801E0DDF820B00499504600F06CF80023209A23700BF101031360229B1BB11C6001E008480AE0069808E0B9F1000F3FF717
:40294000E2AE1E9B022B7FF7DEAEB1E615B0BDE8F08F00BFF8350000004870474481FF1F024B0146186800F041BB00BF4081FF1F10B5C9B202449042034605D01C780130B8
:402980008C42F8D1184610BD002010BD70B5456A04460E463DB91020FFF7E2FF6062456085600560C560656AEB6843B1636ADB6853F8260078B1026843F8262017E021223E
:4029C0000421204600F0B8FA636AE860DB68002BECD1002070BD012101FA06F56A1D9200204600F0A9FA0028F3D04660856000230361C36070BD70B5446A06460D463CB93F
:402A00001020FFF7ADFF7062446084600460C4603DB1736A6A68DB6853F82210296043F8225070BD2DE9F04106460C460D691F4601F1140E0023DEF80000013381B202FBF1
:402A40000171000C0F0C02FB007089B201EB00419D424FEA10474EF8041BECDCD7B1A3689D4212DB616830460131FFF78FFF8046226904F10C01023292000C30FEF796FC1C
:402A800021463046FFF7B7FF444604EB850301355F6125612046BDE8F081030C1B0413B90004102300E0002310F07F4F04BF0002083310F0704F04BF0001043310F0404F49
:402AC00004BF80000233002803DB420003D5581C70471846704720207047036813F007020BD0D90722D49A074BBF5B089B08036003604CBF01200220704799B209B91B0C2F
:402B0000102213F0FF0F04BF1B0A0832190704BF1B090432990704BF9B080232D90702D45B0805D00132036010467047002070472020704710B50C460121FFF727FF0122E2
:402B40004461026110BD2DE9F74F14460A69236988469A42BEBF0B46A0461C46D8F81070D4F81090D8F80830D8F8041007EB09069E42C8BF0131FFF709FF00F114052B4650
:402B800005EB860C0022634502D243F8042BFAE704F1140208F1140102EB890301EB87070093009B0192934257D9B2F800B0BBF1000F23D08946AE464FF0000859F8044B26
:402BC000BEF800A0A3B20BFB03A34FEA144ADEF8004043444FEA14480BFB0A84F24604EB13449BB243EA04434F454FEA14484AF8043B01D9D646E1E7CEF80480019B04325E
:402C0000B3F802A0BAF1000F21D02C4689462B684FF00008B9F800E0B4F802B09BB20AFB0EBEA346F04443EA08434BF8043B59F8043BB4F804E01B0C0AFB03E34F4503EBA9
:402C400018434FEA134801D95C46E3E763600435A7E75CF8043D13B9013E002EF9DC066103B0BDE8F08F00002DE9F843154612F0030206460F4607D0214C013A002354F872
:402C80002220FFF7CFFE0746AD1036D0746A3CB91020FFF765FE7062446084600460C460D6F82480D8F808404CB940F271213046FFF740FF04460023C8F8080003604FF0EC
:402CC0000008EB070AD5394622463046FFF73BFF814639463046FFF78EFE4F466D100CD0206808B10446ECE7224621463046FFF72AFF2060C0F80080F4E73846BDE8F8834F
:402D0000003700002DE9F0470C460746914626694FEA621A56444968A368751CAB4202DA01315B00FAE73846FFF730FE002380461A4600F11401534503DA41F82320013321
:402D4000F9E72AEAEA73206901EB830319F01F0904F1140101EB800E14D0C9F1200C002208689A4600FA09F0024343F8042B51F8042B8E4522FA0CF2F2D8CAF8042042B16C
:402D8000B51C06E0043B51F8042B8E4543F8042FF9D8013D3846C8F810502146FFF72BFE4046BDE8F08703690A6910B59B1A11D192001430143183180A4453F8044D52F86A
:402DC000041D8C4202D007D3012010BD9842F4D3002010BD184610BD4FF0FF3010BD2DE9F8430C460746114620461546FFF7DBFF061E08D131463846FFF7C8FD0123036149
:402E00004661BDE8F883BCBF23462C4638466168BABF1D4601260026FFF7B8FD2B69C660266905F1140904F1140101EB860709EB830800F114054FF0000C51F8042B59F8DE
:402E4000044B93B29C44A3B2240CC3EB0C03C4EB124202EB23429BB24FEA224CC84543EA02428E4645F8042BE7D8BE450ED25EF8041B8AB26244131403EB114392B242EAC3
:402E800003424FEA234C45F8042BEEE755F8043D0BB9013EFAE70661BDE8F8832DE9F3411C4601219046089E099DFFF76FFDC4F31302C4F30A5407460CB142F48012019253
:402EC000B8F1000F19D002A840F8088DFFF705FE009B48B1019AC0F1200102FA01F10B43C2407B61019200E07B61019B002B14BF02210121BB61396107E001A8FFF7EDFD52
:402F0000019B01217B613961203034B1A4F2334404443460C0F1350009E0A0F2324007EB810330601869FFF7B8FDC0EB41102860384602B0BDE8F08138B502FB01F421462A
:402F400000F054F8054618B122460021FEF739FA284638BD38B50546002944D051F8043C0C1F002BB8BFE41800F017FA1E4A1368114613B96360146030E0A3420DD9226883
:402F8000A018834201BF18685B681218226063600C6023E0A24203D813465A68002AF9D118681918A1420BD12168014458188242196013D110685268014419605A600DE07F
:402FC00002D90C232B6009E021686018824201BF106852680918216062605C602846BDE8384000F0DBB938BDA481FF1F70B5CD1C25F0030508350C2D38BF0C25002D0646F3
:4030000001DBA94202D90C23336046E000F0C5F9234B1C681A462146A1B10B685B1B0ED40B2B03D90B60CC18CD501EE08C420BBF63684B681360636018BF0C4615E00C464A
:403040004968E9E7174C23681BB9304600F07AF920602946304600F075F9431C18D0C41C24F00304A0420DD12560304600F096F904F10B00231D20F00700C31A0ED05A4247
:40308000E25070BD211A304600F05CF90130EBD10C233360304600F081F9002070BD00BFA481FF1FA081FF1F2DE9F0478E6882469E420C46914698463ED88A8912F4906F7E
:4030C0003AD02568096902236F1A656905EB450595FBF3F57B1C43449D4238BF1D4653050FD52946FFF782FF064698B13A462169FEF75CF9A38923F4906343F08003A38127
:4031000013E02A4600F04BF9064670B921695046FFF720FF0C23CAF80030A3894FF0FF3043F04003A381BDE8F08726613E44266046466561ED1BA560464528BF4646494662
:403140003246206800F00EF9A36800209B1BA36023681E442660BDE8F08700002DE9F04F9DB003938B8980461C060D4616460DD50B695BB94021FFF739FF2860286118B927
:403180000C23C8F80030CDE040236B610023099320238DF82930DFF89CB130238DF82A3037463C4614F8013B1BB9B7EB060910D003E0252BF9D02746F3E74B463246294677
:4031C0004046FFF771FF013000F0A780099B4B4409933B78002B00F0A08000234FF0FF3204930793059206938DF853301A930126052221784E48FFF7BBFB671C049B38B101
:403200004B4A3C46801A06FA00F018430490EFE7D90644BF20228DF853201A0744BF2B228DF8532022782A2A03D0079A00210A200BE0039A111D12680391002A10DA52428A
:4032400043F00200079204900BE027463B780134303B092B03D800FB02320121F5E701B107923B782E2B1ED17B782A2B0AD1039B02371A1D1B680392002BB8BF4FF0FF3363
:40328000059310E0002319460593781C0A2407463A780130303A092A03D804FB01210123F5E703B10591032239782248FFF760FB40B14023CBEB000003FA00F0049B013738
:4032C00018430490397806221B487E1C8DF82810FFF74EFB88B1194B33B9039B073323F007030833039314E003AB00932A46144B04A94046FEF7FEF807E003AB00932A4604
:403300000F4B04A94046FEF7AFFBB0F1FF3F824603D0099B5344099342E7AB895B0601D4099801E04FF0FF301DB0BDE8F08F00BF383700003E37000042370000F514000077
:40334000A930000038B5064C0023054608462360FDF742F8431C02D1236803B12B6038BDB481FF1F884210B501EB020301D8421E0BE09842FBD28118D21AD34204D013F8C0
:40338000014D01F8014DF8E710BD994204D011F8014B02F8014FF8E710BD70477047F8B5074615460E4621B91146BDE8F840FFF71DBE1AB9FFF7CEFD2846F8BD00F015F828
:4033C00085420ED929463846FFF710FE044650B131462A46FDF7EAFF31463846FFF7BAFD01E03046F8BD2046F8BD51F8040C0028BEBF091851F8043CC018043870470000E3
:403400004FF0FF3C06E000BF4FF0010C02E000BF4FF0010C4DF804CD4FEA410C7FEA6C5C4FEA430C18BF7FEA6C5C1BD001B050EA410C0CBF52EA430C91EA030F02BF90EA96
:40344000020F0020704710F1000F91EA030F58BF994208BF90422CBFD8176FEAE37040F0010070474FEA410C7FEA6C5C02D150EA013C07D14FEA430C7FEA6C5CD6D152EA59
:40348000033CD3D05DF8040B704700BF8446104662468C461946634600E000BF01B5FFF7B7FF002848BF10F1000F01BD4DF808EDFFF7F4FF0CBF012000205DF808FB00BF6A
:4034C0004DF808EDFFF7EAFF34BF012000205DF808FB00BF4DF808EDFFF7E0FF94BF012000205DF808FB00BF4DF808EDFFF7CEFF94BF012000205DF808FB00BF4DF808EDCC
:40350000FFF7C4FF34BF012000205DF808FB00BF4FEA410C7FEA6C5C02D150EA013C0AD14FEA430C7FEA6C5C02D152EA033C02D14FF0000070474FF0010070474FEA410268
:4035400012F5001215D211D56FF47873B3EB625212D94FEAC12343F0004343EA505311F0004F23FA02F018BF404270474FF00000704750EA013005D111F0004008BF6FF06A
:40358000004070474FF00000704700BF000000004144433A202020202020202020000000563A20252E3266205620202020200000005100401000305100403000C0510040A9
:4035C0001000F0510040100000000140001000140140000800400140000A004C014000020050014020004300494E4600696E66004E414E006E616E003000303132333435DB
:4036000036373839414243444546003031323334353637383961626364656600496E66696E697479004E614E00504F534958002E0000000000000000000000000000F03F7E
:40364000000000000000244000000000000059400000000000408F40000000000088C34000000000006AF8400000000080842E4100000000D01263410000000084D79741E5
:403680000000000065CDCD41000000205FA00242000000E876483742000000A2941A6D42000040E59C30A2420000901EC4BCD64200003426F56B0C430080E03779C34143CE
:4036C00000A0D8855734764300C84E676DC1AB43003D9160E458E143408CB5781DAF154450EFE2D6E41A4B4492D54D06CFF08044F64AE1C7022DB544B49DD9794378EA44E7
:4037000005000000190000007D000000000000000080E03779C34143176E05B5B5B89346F5F93FE9034F384D321D30F94877825A3CBF737FDD4F1575232D302B2000686CD0
:403740004C0065666745464700000000F8B500BFF8BC08BC9E4670474D00000055040000F8B500BFF8BC08BC9E4670472900000080370000C880FF1FB8000000380000001F
:4037800000000000B881FF1F0000E02EC05D00001800000000366E010000000000000000000000000000000000000000000000000000000000000000E635000000000000AF
:4037C0000000000000000000000000000000000000000000000000000000000000000000000000000000000000000000000000000000000000000000E080FF1F2F360000E6
:403800003D3700003D3700003D3700003D3700003D3700003D3700003D3700003D3700003D370000FFFFFFFFFFFFFFFFFFFFFFFFFFFF000000000000000000000000000082
:403840000000000000000000000000000000000000000000000000000000000000000000000000000000000000000000000000000000000000000000000000000000000048
:403880000000000000000000000000000000000000000000000000000000000000000000000000000000000000000000000000000000000000000000000000000000000008
:4038C00000000000000000000000000000000000000000000000000000000000000000000000000000000000000000000000000000000000000000000000000000000000C8
:403900000000000000000000000000000000000000000000000000000000000000000000000000000000000000000000000000000000000000000000000000000000000087
:020000040003F7
:0200000480007A
:4000000001520040016400400107014001090140010D0140270E0140180F014002400140014101400142014002430140024401400245014002460140014701400250014003
:400040000151014030088E0DEE04EE04B4400301120814011A0426072B01300432023301340836013F044060410445D14720482349FF4AFF4BFF4DA04F04501852805405CB
:40008000580459045A045B045F01604062C06440654066C068C06AC06CC06EC009020A141020188019601A142204292038024101482049215001510159415A087102C20E56
:4000C000C404CA04CE01D001D204D60B3320CC10A720A720AB20EE205420D402B420EC081B04C608AB0400010E010003000B0B0000000000007F7F00000000000008080098
:40010000080020000E001801000000000000000000000000000000000000000000000000000000000000000000000000000000000000000000000000000000000000000070
:40014000000000000000000000000000000000000000000000000000000000000000000000000000000000000000000000000000000000000000000000000000000000007F
:40018000000000000000000000000000000000000000000000000000000000000000000000000000000000000000000000000000000000000000000000000000000000003F
:4001C00000000000000000000000000000000000000000000000000000000000000000000000000000000000000000000000000000000000000000000000000000000000FF
:4002000000000000000000000000000000000000000000000000000000000000000000000000000000000000000000000000000000000000000000000000000000000000BE
:0200000490006A
:0400000000004005B7
:0200000490105A
:04000000BC90ACAF55
:0200000490303A
:02000000F98C79
:0200000490402A
:4000000000000000000000000000000000000000000000000000000000000000000000000000000000000000000000000000000000000000000000000000000000000000C0
:400040000000000000000000000000000000000000000000000000000000000000000000000000000000000000000000000000000000000000000000000000000000000080
:400080000000000000000000000000000000000000000000000000000000000000000000000000000000000000000000000000000000000000000000000000000000000040
:4000C0000000000000000000000000000000000000000000000000000000000000000000000000000000000000000000000000000000000000000000000000000000000000
:0200000490501A
:0C00000000012E12306900012E2829F5A5
:00000001FF