:400000000080002011000000D5040000D504000008B5044B1A6803F53F5302331A6000F079FA00BFFA46004010B5054C237833B9044B13B10448AFF300800123237010BD52
:400040004881FF1F00000000D0210000084B10B51BB108490848AFF300800848036803B910BD074B002BFBD0BDE81040184700BF000000004C81FF1FD0210000C880FF1F20
:400080000000000008B5002000F0BAFA00F020FE002000F025FE00F03BFE08BD08B5002000F090FE7D2000F0ABFA00F011FE002000F016FE00F02CFE08BD00BF10B501205C
:4000C00000F080FE7D2000F09BFA002000F008FE00F01EFE0446FFF7D5FF201A01F04AFA0446FFF7DBFF01F045FA0146204601F049FB064901F092FA01F0E0FB04464FF47A
:400100007A7001F01FF9204610BD00BF0050C34710B584B062B600F0DFFF0021084600F0E9FF174800F07EFF00F09CFA00F0BCFD00F02CFE0021084600F0DCFFFFF7BEFF58
:4001400000F06CFE0F4A82FB0032C117C1EB62126FF0630303FB0203002B00DA5B42002400940194029403940749684601F00CFC2146012000F0BEFF684600F053FFD9E765
:40018000D42100001F85EB51E0210000FEE700BFF0B40022174611E050F82760F3B226F0FF0608E001EB420511F812406D78A5550132013BDBB2002BF4D101370C2FEBD9AA
:4001C000F0BC70470A4B1B78DBB203F00701094A11701B09013213700222074B1A70102203F677131A704422A3F20D231A707047CF0100496E5800400C51004008B50A460A
:40020000002101F0B8FB08BD08B501F0A9FB08BD38B500242C4B1C80502202331A7004222A492B48FFF7F0FF02222A4B1A7008224FF040231A70032103F500731970264BD5
:400240001B78DBB225490B70254B1A8041F25122023B1A8019250CE0224B1B7803F0010343EA440404F003044FF4F07001F0B8F8013D0DB1032CEFD115B90320FFF786FFC2
:40028000194B4FF480721A8007221A70002217490A704820023108701A700222033B1A7004220A331A70124A137843F001031370013A137843F001031370013A137843F0CC
:4002C0008003137038BD00BF804000407C000048004100400043004008010049A146004022420040254200400440004006400040A2430040012814D810B44000C0B2094BAA
:4003000053F820101A18147C0A7822430A700130C0B253F820201844017C13780B43137010BC7047F4210000012816D810B44000C0B20A4B53F820101A18147C0A7822EA77
:4003400004020A700130C0B253F820201844017C137823EA0103137010BC7047F4210000012818D810B44000C0B20B4B03EB800251691A1892F824400A7822430A7001307E
:40038000C0B203EB80025269184490F8241013780B43137010BC7047F421000001281AD810B44000C0B20C4B03EB800251691A1892F824400A7822EA04020A700130C0B2B1
:4003C00003EB80025269184490F82410137823EA0103137010BC7047F421000038B572B62C4A137843F00403137000240BE02A4863001A19510001440A46898D906AFFF72D
:40040000FDFE0134E4B2072CF1D924494FF09040FFF7BEFE0A22224B1A70224A137843F0020313701032137843F0020313701E4C237843F040032370A2F58632513A1378FB
:4004400043F010031370082218491948FFF7DCFE082218491848FFF7D7FE082217491848FFF7D2FE174A137843F008031370164D61232B70FFF7CCFE81232B700122134BE2
:400480001A70FFF79FFE0E2221461148FFF7BCFE38BD00BFE8460040F4210000340000488358004003500140A043004064000048025100406C0000481251004074000048A8
:4004C00022510040224300400048004004000840B043004008B501F017FA03680C2B00D1FEE7FEE708B5094B1A681044084BC31A802B02DC054B186005E001F005FA0C2335
:4005000003604FF0FF32104608BD00BFCC80FF1F9881FF1F08B5104E104D16E029686B68AC68002204E051F8040B43F8040B0432A242F8D1E868002203E0002143F8041B2C
:4005400004328242F9D11035013E002EE6D101F0E1F9FFF7DDFDFEE701000000C022000008B5104A104B1A60104A136843F40073136000230AE0032B03D80D4A52F8231023
:4005800000E00C490C4A42F8231001332F2BF2D90A4B1A780A4B1A70074A0A4B1A60FFF71DFF08BD0004FA050CED00E014ED00E000000000D50400000080FF1FBC76004087
:4005C000C080FF1F08ED00E0054A137843F0010313701032137843F001031370704700BFA8430040054B1A7802F0FD021A701A7800F0020010431870704700BF2058004022
:40060000014B1870704700BF805B0040094B1B7803F00C035B08084A127812F0040F00D0013303F1924393F82031DBB2034A1370704700BF2058004021580040084600409D
:4006400008B51822064B1A70013300221A701A78D2B21A700220FFF7C5FFFFF7D7FF08BD2058004008B5074B1B7823B9FFF7E8FF0122044B1A70FFF7A7FF7820FFF7C0FFC3
:4006800008BD00BF6481FF1F38B59DF81040651EEDB2032D51D8013809282ED8DFE800F0052D2D052D2D0F192D230F2B03D92548007840B222E02448007840B21EE00F2B0C
:4006C00003D92248007840B218E02148007840B214E00F2B03D91F48007840B20EE01E48007840B20AE00F2B03D91C48007840B204E01B48007840B200E0002001EB40112A
:4007000001FB02F2D20B91B20D2B0BD8C3F10E0192B20A4191B2621E124800EB82020133937005E0631E0F4A02EB83030F229A70013C0C4B23F8241038BD002000F000FE26
:4007400038BD00BF180100491C010049190100491D0100491A0100491E0100491B0100491F0100496881FF1FF8B5074600F040FE06460D4D2B7843F003032B700B4C23785B
:4007800043F0030323700A4B1F70032000F0F0FD2B7803F0FC032B70237803F0FC032370304600F029FEF8BDF8460040F946004092580040F8B504460022BB4B1A740128FA
:4007C0005AD13822B94B1A70042202331A70072201331A70002501331D7001331D703F2201331A7002331D7001331D7001331D7001260A331E70502203F527631A70272257
:4008000001331A702C2201331A7001331D70552203331A705A2201331A70052701331F7002331E70112201331A70192201331A70972201331A704420FFF796FF58229C4B59
:400840001A7001331D7005331F7001331E7001331D700A2201331A704FF4FA42954B1A603146384600F07CFC3146252000F0FCFC91491D2000F086FD022C5AD138228B4B0C
:400880001A70042202331A70072201331A70002501331D7001331D703F2201331A7002331D7001331D7001331D7001260A331E70502203F527631A70272201331A702C2213
:4008C00001331A7001331D70552203331A705A2201331A70052701331F7002331E70112201331A70192201331A70972201331A704420FFF739FF58226D4B1A7001331D70E6
:4009000005331F7001331E7001331D700A2201331A704FF4FA42674B1A603146384600F01FFC3146252000F09FFC64491D2000F029FD032C5AD138225C4B1A700422023351
:400940001A70072201331A70002501331D7001331D703F2201331A7002331D7001331D7001331D7001260A331E70502203F527631A70272201331A702C2201331A70013345
:400980001D70552203331A705A2201331A70052701331F7002331E70112201331A70192201331A70972201331A704420FFF7DCFE58223F4B1A7001331D7005331F700133A8
:4009C0001E7001331D700A2201331A704FF4FA42384B1A603146384600F0C2FB3146252000F042FC36491D2000F0CCFC042C5AD138222E4B1A70042202331A700722013348
:400A00001A70002401331C7001331C703F2201331A7002331C7001331C7001331C7001250A331D70502203F527631A70272201331A702C2201331A7001331C70552203333A
:400A40001A705A2201331A70052601331E7002331D70112201331A70192201331A70972201331A704420FFF77FFE5822104B1A7001331C7005331E7001331D7001331C7065
:400A80000A2201331A704FF4FA420A4B1A602946304600F065FB2946252000F0E5FB09491D2000F06FFCF8BD6881FF1F004E0040945800408C81FF1F7D0D0000810D0000A2
:400AC000850D0000890D00002DE9F04182B0394E4FF0010886F80080374F00247C74102000F02CFB102000F0ADFB07211D2000F05DFC0425314B1D7001331C7007331C7079
:400B00002F4A137843F0180313702E4B1C7003F2F5231C7001331C700A22A3F209331A7001331C7002331C705B2205331A705E2201331A7004331C701422A3F68C231A7032
:400B4000CDF8008010234FF4004249F2DA012846FFF79AFD0223009310234FF4004249F2DA012846FFF790FD0323009310234FF4004249F2DA012846FFF786FD00951023BA
:400B80004FF4004249F2DA012846FFF77DFD3378013B07EB83039A780B4B1A703378013B37F82320094B1A803078FFF703FE02B0BDE8F081D080FF1F6881FF1F965800401A
:400BC000075B0040935800400E4E00400C4E004070B500F00DFC06462A4B1B782A4B1A7842F001021A701A7842F010021A7010331A7842F001021A701A7842F010021A7066
:400C0000224D2B7843F002032B70214C237843F0020323701F4A137843F003031370032000F0A6FB2B7803F0FD032B70237803F0FD032370184A137843F0060313707A22FE
:400C4000164B1A70164A137843F0010313701032137843F0010313700F3A137843F0010313701032137843F0010313704FF000530C4A1360A2F5C0721360304600F0BCFB94
:400C800070BD00BFD080FF1FAA430040F8460040F9460040915800407758004082580040A143004080E200E008B5084B9B7C4BB9064BDB7C13F0FF0F01D1FFF705FF012225
:400CC000024B9A74FFF784FF08BD00BF6881FF1F024A137843F0010313707047004E0040094B1B7C13F0FF0F03D0074B5B7CDBB203E0064B1B7803F00103012B01D0002857
:400D0000EED01846704700BF6881FF1F014E0040154B1B7803F00303012B07D8134B1888023B1B889BB243EA004013E0022B0AD10E4B1888023B1B7843EA00430C4A1078EA
:400D400043EA002006E00B4B188883B2074A108843EA0040084B1B7C13F0FF0F02D00022054B5A74704700BF144E0040124E0040114E0040104E00406881FF1F704700BF40
:400D8000704700BF704700BF704700BF10B5002407E02046FFF7C8FA2046FFF7FFFA0134E4B2012CF5D9FF22014B1A7010BD00BFD180FF1F10B50446FFF7B6FA2046FFF7C5
:400DC000EDFA10BD10B50446074B1878FF2801D0FFF7F0FF2046FFF78DFA2046FFF7C0FA014B1C7010BD00BFD180FF1F30B40B46C517A0FB010103FB0511002871F1000356
:400E000007DA404261EB4101000E40EA0120404202E0000E40EA012030BC704730B587B004461F4B93E8070006AD05E907000C3393E807008DE807001A4B9C4217D9650138
:400E4000002002240AE006AB03EB840353F80C3C29461844FFF7CAFF013CE4B2002CF2D1114B0344D917DB0A43EA415016E06501002002240AE006AB03EB840353F8183CB6
:400E800029461844FFF7B2FF013CE4B2002CF2D1064B0344D917DB0A43EA415007B030BD4C220000A0860100153E01FD605B00FD10B50B4C237803F09F032370237803F024
:400EC000F00323702378184340F010002070012000F04EFA237803F0EF03237010BD00BF2051004038B505460E4C237843F020032370237803F0BF032370002000F038FAC2
:400F0000237803F0F003237023781D4345F010052570012000F02CFA237803F0EF03237038BD00BF2051004070B5354B1A7802F08002D2B21A7033490A7802F0F00242F047
:400F40000F020A7001310A7802F0F0020A7001310A7802F0F0020A701A7802F0DF021A701A7842F040021A704FF4CA76002000F0FFF9234D2B7843F010032B70012000F0B3
:400F8000F7F9214B1C78E4B22B7803F0EF032B70002000F0EDF904F00804E4B22B7843F010032B70012000F0E3F92B7803F0EF032B7014B90A2000F0DBF9013E0CB1002E83
:400FC000D4D10F4A137803F0BF031370137803F08003DBB213700232137803F0F00313700132137803F0F00343F00F0313700132137803F0F00343F00F03137070BD00BF33
:4010000020510040225100402151004010B50446FFF78AFF2009FFF765FF04F00F00FFF761FF10BD38B505460078012404E0FFF7EDFF285D0134E4B20028F8D138BD00BFD3
:4010400010B50446FFF770FF2009FFF731FF04F00F00FFF72DFF10BD08B5282000F072F90320FFF725FF052000F06CF90320FFF71FFF0F2000F066F90320FFF719FF01209D
:4010800000F060F90220FFF713FF052000F05AF90620FFF7D5FF0E20FFF7D2FF2C20FFF7CFFF0820FFF7CCFF0120FFF7C9FF0C20FFF7C6FF0320FFF7C3FF052000F042F986
:4010C00008BD00BF08B50C20FFF7BAFF0122014B1A7008BD8081FF1F08B5054B5B7823B9FFF7BAFF0122024B5A70FFF7EBFF08BD8081FF1F08B5032819D8DFE800F00207F5
:401100000D1381F08000FFF79BFF08BDA1F14000C0B2FFF795FF08BDA1F16C00C0B2FFF78FFF08BDA1F12C00C0B2FFF789FF08BD014B188880B2704780400040034B1A78D5
:4011400000F0F80010431870704700BF82400040024B187800F00700704700BF8240004070B505460E46FFF7F3FF0446FFF7E0FFA84256D02B4B1B7803F0010294B900B110
:4011800085B938B9284B1D80284A137803F0BF03137070BD254A137843F040031370224B1D8070BD22B3002321490B7001240F310C7004310B700C390B7803F07F030B703E
:4011C0001A4B1B7813F0080F00D08DB9194B18800721013B1970164B1B7813F0010FFAD110490B7803F0FE030B700021104B19700C4B1B7813F0010F0DD00E4B1D800EB12D
:40120000032200E001220A4B1A70094B1B7813F0010FFAD170BD044B1D8002490B7813430B7070BDA243004080400040824000400140004002400040014B188880B27047FE
:4012400000410040034B1A7800F0F80010431870704700BF02410040024B187800F00700704700BF0241004070B505460E46FFF7F3FF0446FFF7E0FFA84256D02B4B1B78A0
:4012800003F0010294B900B185B938B9284B1D80284A137803F0BF03137070BD254A137843F040031370224B1D8070BD22B3002321490B70012413310C7004390B700839B4
:4012C0000B7803F07F030B701A4B1B7813F0080F00D08DB9194B18800721013B1970164B1B7813F0010FFAD110490B7803F0FE030B700021104B19700C4B1B7813F0010F4B
:401300000DD00E4B1D800EB1032200E001220A4B1A70094B1B7813F0010FFAD170BD044B1D8002490B7813430B7070BDA1430040004100400241004001400040024000403F
:4013400001BE704710B5044605E0084B186800F047F8A4F50044B4F5004FF6D8034B586800FB04F000F03CF810BD00BFD480FF1F08B5034B1B7A00FB03F000F031F808BDD3
:40138000D480FF1F70B504460E46074B1D681F2802D90020FFF7D4FF04F01F04103455F8240045F8246070BD08ED00E038B504460D46072902D90020FFF7C2FF1F2C02D9F5
:4013C0000020FFF7BDFF04F01F0000F1604000F564406D01EDB2057038BD00BF000000000230800803D000BF01380046FCD17047EFF3108072B6704780F31088704700BF87
:4014000080F0004002E000BF81F0004142001FBF5FEA410392EA030F7FEA226C7FEA236C6AD04FEA1262D2EB1363C1BFD218414048404140B8BF5B42192B88BF704710F01B
:40144000004F40F4000020F07F4018BF404211F0004F41F4000121F07F4118BF494292EA030F3FD0A2F1010241FA03FC10EB0C00C3F1200301FA03F100F0004302D5494239
:4014800060EB4000B0F5000F13D3B0F1807F06D340084FEA310102F10102FE2A51D2B1F1004F40EBC25008BF20F0010040EA03007047490040EB000010F4000FA2F1010293
:4014C000EDD1B0FA80FCACF1080CB2EB0C0200FA0CF0AABF00EBC25052421843BCBFD0401843704792F0000F81F4000106BF80F400000132013BB5E74FEA41037FEA226C05
:4015000018BF7FEA236C21D092EA030F04D092F0000F08BF0846704790EA010F1CBF0020704712F07F4F04D1400028BF40F00040704712F100723CBF00F50000704700F0F1
:40154000004343F0FE4040F4000070477FEA226216BF08467FEA23630146420206BF5FEA412390EA010F40F4800070474FF0000304E000BF10F0004348BF40425FEA000CD5
:4015800008BF704743F0964301464FF000001CE050EA010208BF70474FF000030AE000BF50EA010208BF704711F0004302D5404261EB41015FEA010C02BF8446014600204B
:4015C00043F0B64308BFA3F18053A3F50003BCFA8CF2083AA3EBC25310DB01FA02FC634400FA02FCC2F12002BCF1004F20FA02F243EB020008BF20F00100704702F12002A7
:4016000001FA02FCC2F1200250EA4C0021FA02F243EB020008BF20EADC7070474FF0FF0C1CEAD0521EBF1CEAD15392EA0C0F93EA0C0F6FD01A4480EA010C400218BF5FEA25
:4016400041211ED04FF0006343EA501043EA5111A0FB01310CF00040B1F5000F3EBF490041EAD3715B0040EA010062F17F02FD2A1DD8B3F1004F40EBC25008BF20F001006B
:40168000704790F0000F0CF0004C08BF49024CEA502040EA51207F3AC2BFD2F1FF0340EAC250704740F400004FF00003013A5DDC12F1190FDCBF00F000407047C2F100020B
:4016C000410021FA02F1C2F1200200FA02FC5FEA310040F1000053EA4C0308BF20EADC70704792F0000F00F0004C02BF400010F4000F013AF9D040EA0C0093F0000F01F025
:40170000004C02BF490011F4000F013BF9D041EA0C018FE70CEAD15392EA0C0F18BF93EA0C0F0AD030F0004C18BF31F0004CD8D180EA010000F00040704790F0000F17BF82
:4017400090F0004F084691F0000F91F0004F14D092EA0C0F01D142020FD193EA0C0F03D14B0218BF084608D180EA010000F0004040F0FE4040F40000704740F0FE4040F42E
:40178000400070474FF0FF0C1CEAD0521EBF1CEAD15392EA0C0F93EA0C0F69D0A2EB030280EA010C49024FEA402037D04FF0805343EA111143EA10130CF000408B4238BFAC
:4017C0005B0042F17D024FF4000C8B4224BF5B1A40EA0C00B3EB510F24BFA3EB510340EA5C00B3EB910F24BFA3EB910340EA9C00B3EBD10F24BFA3EBD10340EADC001B01FB
:4018000018BF5FEA1C1CE0D1FD2A3FF650AF8B4240EBC25008BF20F0010070470CF0004C4CEA50207F32C2BFD2F1FF0340EAC250704740F400004FF00003013A37E792F082
:40184000000F00F0004C02BF400010F4000F013AF9D040EA0C0093F0000F01F0004C02BF490011F4000F013BF9D041EA0C0195E70CEAD15392EA0C0F08D142027FF47DAFBC
:4018800093EA0C0F7FF470AF084676E793EA0C0F04D14B023FF44CAF08466EE730F0004C18BF31F0004CCAD130F000427FF45CAF31F000437FF43CAF5FE700BF4FEA40025B
:4018C000B2F1FE4F0FD34FF09E03B3EB12620DD94FEA002343F0004310F0004F23FA02F018BF404270474FF00000704712F1610F01D1420205D110F0004008BF6FF0004003
:4019000070474FF000007047014B1868704700BF4481FF1F0E4B70B51E460E4C0025E41AA410A54204D056F8253098470135F8E700F0B4FC084B094C1E46E41AA4100025ED
:40194000A54204D056F8253098470135F8E770BDA8220000A8220000A8220000B022000010B5431E0A44914204D011F8014B03F8014FF8E710BD03460244934202D003F820
:40198000011BFAE7704700000EB400B54FF402719CB0ADF814106FF00041049107914FF6FF711DAB02900690084853F8042BADF81610006802A9019300F064F8029B002278
:4019C0001A701CB05DF804EB03B070474481FF1F2DE9F0478E6882469E420C46914698463ED88A8912F4906F3AD02568096902236F1A656905EB450595FBF3F57B1C43448B
:401A00009D4238BF1D4653050FD5294600F040FB064698B13A462169FFF7A2FFA38923F4906343F08003A38113E02A4600F08EFB064670B92169504600F0DEFA0C23CAF827
:401A40000030A3894FF0FF3043F04003A381BDE8F08726613E44266046466561ED1BA560464528BF464649463246206800F0A8FAA36800209B1BA36023681E442660BDE8DD
:401A8000F08700002DE9F04F9DB003938B8980461C060D4616460DD50B695BB9402100F0F7FA2860286118B90C23C8F80030CDE040236B610023099320238DF82930DFF88C
:401AC0009CB130238DF82A3037463C4614F8013B1BB9B7EB060910D003E0252BF9D02746F3E74B46324629464046FFF771FF013000F0A780099B4B4409933B78002B00F02F
:401B0000A08000234FF0FF3204930793059206938DF853301A930126052221784E4800F041FA671C049B38B14B4A3C46801A06FA00F018430490EFE7D90644BF20228DF81A
:401B400053201A0744BF2B228DF8532022782A2A03D0079A00210A200BE0039A111D12680391002A10DA524243F00200079204900BE027463B780134303B092B03D800FB59
:401B800002320121F5E701B107923B782E2B1ED17B782A2B0AD1039B02371A1D1B680392002BB8BF4FF0FF33059310E0002319460593781C0A2407463A780130303A092A20
:401BC00003D804FB01210123F5E703B1059103223978224800F0E6F940B14023CBEB000003FA00F0049B013718430490397806221B487E1C8DF8281000F0D4F988B1194BE6
:401C000033B9039B073323F007030833039314E003AB00932A46144B04A94046AFF3008007E003AB00932A460F4B04A9404600F093F8B0F1FF3F824603D0099B53440993A8
:401C400042E7AB895B0601D4099801E04FF0FF301DB0BDE8F08F00BF662200006C2200007022000000000000D11900002DE9F04791461F460A698B6806469342B8BF1346BF
:401C8000C9F8003091F843200C46DDF8208012B10133C9F800302368990642BFD9F800300233C9F80030256815F0060510D104F1190A07E00123524639463046C0470130E0
:401CC0001AD00135E368D9F800209B1A9D42F1DB94F843302268003318BF012392060FD5E118302081F843005A1C94F845102244023382F8431003E04FF0FF30BDE8F087C4
:401D000004F1430239463046C0470130F4D02268D9F80050E36802F00602042A08BF5D1B2269A3680CBF25EAE57500259342C4BF9B1AED184FF000091A344D4509D00123F5
:401D4000224639463046C0470130D5D009F10109F3E70020BDE8F0872DE9F04317460A7E85B06E2A984606460C460C9B01F1430E00F0AE8011D8632A22D009D8002A00F02D
:401D8000BB80582A40F0CA8081F84520834955E0642A1ED0692A1CD0C0E0732A00F0B08009D86F2A2ED0702A40F0B8800A6842F020020A603EE0752A24D0782A3AD0ADE021
:401DC0001A6801F14205111D1960136884F84230A8E021681A6811F0800F02D0111D196008E011F0400F02F10401196002D0B2F9003000E01368002B3CDA2D225B4284F822
:401E0000432037E021681A6811F0800F02D0111D196007E011F0400F02F10401196001D0138800E01368227E5C496F2A14BF0A2208221BE078225A4984F84520226818687B
:401E400012F0800F00F104051D6003D1550601D5038800E00368D00744BF42F0200222601BB9226822F0200222601022002084F8430001E049490A226568002DA56008DB29
:401E8000206820F0040020602BB9002D7DD175460CE0002B79D07546B3FBF2F002FB1033CB5C05F8013D03460028F5D1082A0BD12368DA0708D5236962689A42DEBF3023EF
:401EC00005F8013C05F1FF35C5EB0E0323612EE008681A6810F0800F496903D0101D1860136808E010F0400F02F104001860136801D0198000E0196000232361754616E0C9
:401F00001A68111D1960156800216268284600F049F808B1401B6060636804E004F1420584F8422001232361002384F84330CDF800803B4603AA21463046FFF797FE01300E
:401F400002D14FF0FF3026E023692A4639463046C0470130F5D023689B0710D5002504F1190907E001234A4639463046C0470130E7D00135E368039A9B1A9D42F2DBE06898
:401F8000039B9842B8BF184605E00B7804F1420584F842308AE705B0BDE8F083772200008822000010B5C9B202449042034605D01C7801308C42F8D1184610BD002010BDD7
:401FC000884210B501EB020301D8421E0BE09842FBD28118D21AD34204D013F8014D01F8014DF8E710BD994204D011F8014B02F8014FF8E710BD000038B50546002944D06D
:4020000051F8043C0C1F002BB8BFE41800F0D4F81E4A1368114613B96360146030E0A3420DD92268A018834201BF18685B681218226063600C6023E0A24203D813465A68B8
:40204000002AF9D118681918A1420BD12168014458188242196013D110685268014419605A600DE002D90C232B6009E021686018824201BF106852680918216062605C60B1
:402080002846BDE8384000F098B838BD8881FF1F70B5CD1C25F0030508350C2D38BF0C25002D064601DBA94202D90C23336046E000F082F8234B1C681A462146A1B10B6885
:4020C0005B1B0ED40B2B03D90B60CC18CD501EE08C420BBF63684B681360636018BF0C4615E00C464968E9E7174C23681BB9304600F052F820602946304600F04DF8431C64
:4021000018D0C41C24F00304A0420DD12560304600F053F804F10B00231D20F00700C31A0ED05A42E25070BD211A304600F034F80130EBD10C233360304600F03EF8002081
:4021400070BD00BF8881FF1F8481FF1FF8B5074615460E4621B91146BDE8F840FFF798BF1AB9FFF749FF2846F8BD00F027F885420ED929463846FFF78BFF044650B1314605
:402180002A46FFF7EDFB31463846FFF735FF01E03046F8BD2046F8BD38B5064C0023054608462360FEF79EF9431C02D1236803B12B6038BD9081FF1F7047704751F8040C9A
:4021C0000028BEBF091851F8043CC0180438704700000000456A656D706C6F205254440054656D703D256C642E25303231642043000000000D510040005B00400D510040A3
:40220000005B0040101004400D510040045B00400D510040045B004020200880305100404000C05100401000F0510040100000000140001000140140000800400140000A31
:40224000004C01400002005001402000153E01FDB1B60A0F63457803605B00FDEA54100F129E72034300232D302B2000686C4C0065666745464700303132333435363738EA
:4022800039414243444546003031323334353637383961626364656600000000F8B500BFF8BC08BC9E4670474D00000061050000F8B500BFF8BC08BC9E4670472900000014
:4022C000D0220000C880FF1F8000000050000000000000009881FF1F01FF00000000E02EC05D00001800000000366E01000000000000000000000000000000000000000097
:402300000000000000000000000000006422000000000000000000000000000000000000000000000000000000000000000000000000000000000000000000000000000017
:40234000000000000000000000000000E480FF1F000000000000000000000000000000000000000000000000000000000000000000000000000000000000000000000000DB
:40238000000000000000000000000000000000000000000000000000000000000000000000000000000000000000000000000000000000000000000000000000000000001D
:4023C00000000000000000000000000000000000000000000000000000000000000000000000000000000000000000000000000000000000000000000000000000000000DD
:40240000000000000000000000000000000000000000000000000000000000000000000000000000000000000000000000000000000000000000000000000000000000009C
:40244000000000000000000000000000000000000000000000000000000000000000000000000000000000000000000000000000000000000000000000000000000000005C
:020000040003F7
:0200000480007A
:4000000001090140040A0140010B014001150140011B0140024401400145014003460140034701400248014001490140014C0140024D0140B502B802BE01D804DF011D02C3
:40004000EC10EC107C01DE01940145089401D001A508B401EC082510C820B510A508B508EC0800000000000000003E00000B0B0000000000007F7F000000000025001801BE
:400080000000000000000000000000000000000000000000000000000000000000000000000000000000000000000000000000000000000000000000000000000000000040
:4000C0000000000000000000000000000000000000000000000000000000000000000000000000000000000000000000000000000000000000000000000000000000000000
:4001000000000000000000000000000000000000000000000000000000000000000000000000000000000000000000000000000000000000000000000000000000000000BF
:40014000000000000000000000000000000000000000000000000000000000000000000000000000000000000000000000000000000000000000000000000000000000007F
:0200000490006A
:0400000000004005B7
:0200000490105A
:04000000BC90ACAF55
:0200000490303A
:0200000097D196
:0200000490402A
:4000000000000000000000000000000000000000000000000000000000000000000000000000000000000000000000000000000000000000000000000000000000000000C0
:400040000000000000000000000000000000000000000000000000000000000000000000000000000000000000000000000000000000000000000000000000000000000080
:400080000000000000000000000000000000000000000000000000000000000000000000000000000000000000000000000000000000000000000000000000000000000040
:4000C0000000000000000000000000000000000000000000000000000000000000000000000000000000000000000000000000000000000000000000000000000000000000
:0200000490501A
:0C00000000012E12306900012E1EC83ACB
:00000001FF